{
  "contractName": "CLTRNFT",
  "abi": [
    {
      "inputs": [],
      "stateMutability": "nonpayable",
      "type": "constructor"
    },
    {
      "anonymous": false,
      "inputs": [
        {
          "indexed": true,
          "internalType": "address",
          "name": "owner",
          "type": "address"
        },
        {
          "indexed": true,
          "internalType": "address",
          "name": "approved",
          "type": "address"
        },
        {
          "indexed": true,
          "internalType": "uint256",
          "name": "tokenId",
          "type": "uint256"
        }
      ],
      "name": "Approval",
      "type": "event"
    },
    {
      "anonymous": false,
      "inputs": [
        {
          "indexed": true,
          "internalType": "address",
          "name": "owner",
          "type": "address"
        },
        {
          "indexed": true,
          "internalType": "address",
          "name": "operator",
          "type": "address"
        },
        {
          "indexed": false,
          "internalType": "bool",
          "name": "approved",
          "type": "bool"
        }
      ],
      "name": "ApprovalForAll",
      "type": "event"
    },
    {
      "anonymous": false,
      "inputs": [
        {
          "indexed": true,
          "internalType": "address",
          "name": "from",
          "type": "address"
        },
        {
          "indexed": true,
          "internalType": "address",
          "name": "to",
          "type": "address"
        },
        {
          "indexed": true,
          "internalType": "uint256",
          "name": "tokenId",
          "type": "uint256"
        }
      ],
      "name": "Transfer",
      "type": "event"
    },
    {
      "inputs": [
        {
          "internalType": "address",
          "name": "to",
          "type": "address"
        },
        {
          "internalType": "uint256",
          "name": "tokenId",
          "type": "uint256"
        }
      ],
      "name": "approve",
      "outputs": [],
      "stateMutability": "nonpayable",
      "type": "function"
    },
    {
      "inputs": [
        {
          "internalType": "address",
          "name": "owner",
          "type": "address"
        }
      ],
      "name": "balanceOf",
      "outputs": [
        {
          "internalType": "uint256",
          "name": "",
          "type": "uint256"
        }
      ],
      "stateMutability": "view",
      "type": "function",
      "constant": true
    },
    {
      "inputs": [
        {
          "internalType": "uint256",
          "name": "tokenId",
          "type": "uint256"
        }
      ],
      "name": "getApproved",
      "outputs": [
        {
          "internalType": "address",
          "name": "",
          "type": "address"
        }
      ],
      "stateMutability": "view",
      "type": "function",
      "constant": true
    },
    {
      "inputs": [
        {
          "internalType": "address",
          "name": "owner",
          "type": "address"
        },
        {
          "internalType": "address",
          "name": "operator",
          "type": "address"
        }
      ],
      "name": "isApprovedForAll",
      "outputs": [
        {
          "internalType": "bool",
          "name": "",
          "type": "bool"
        }
      ],
      "stateMutability": "view",
      "type": "function",
      "constant": true
    },
    {
      "inputs": [],
      "name": "name",
      "outputs": [
        {
          "internalType": "string",
          "name": "",
          "type": "string"
        }
      ],
      "stateMutability": "view",
      "type": "function",
      "constant": true
    },
    {
      "inputs": [
        {
          "internalType": "uint256",
          "name": "tokenId",
          "type": "uint256"
        }
      ],
      "name": "ownerOf",
      "outputs": [
        {
          "internalType": "address",
          "name": "",
          "type": "address"
        }
      ],
      "stateMutability": "view",
      "type": "function",
      "constant": true
    },
    {
      "inputs": [
        {
          "internalType": "address",
          "name": "from",
          "type": "address"
        },
        {
          "internalType": "address",
          "name": "to",
          "type": "address"
        },
        {
          "internalType": "uint256",
          "name": "tokenId",
          "type": "uint256"
        }
      ],
      "name": "safeTransferFrom",
      "outputs": [],
      "stateMutability": "nonpayable",
      "type": "function"
    },
    {
      "inputs": [
        {
          "internalType": "address",
          "name": "from",
          "type": "address"
        },
        {
          "internalType": "address",
          "name": "to",
          "type": "address"
        },
        {
          "internalType": "uint256",
          "name": "tokenId",
          "type": "uint256"
        },
        {
          "internalType": "bytes",
          "name": "_data",
          "type": "bytes"
        }
      ],
      "name": "safeTransferFrom",
      "outputs": [],
      "stateMutability": "nonpayable",
      "type": "function"
    },
    {
      "inputs": [
        {
          "internalType": "address",
          "name": "operator",
          "type": "address"
        },
        {
          "internalType": "bool",
          "name": "approved",
          "type": "bool"
        }
      ],
      "name": "setApprovalForAll",
      "outputs": [],
      "stateMutability": "nonpayable",
      "type": "function"
    },
    {
      "inputs": [
        {
          "internalType": "bytes4",
          "name": "interfaceId",
          "type": "bytes4"
        }
      ],
      "name": "supportsInterface",
      "outputs": [
        {
          "internalType": "bool",
          "name": "",
          "type": "bool"
        }
      ],
      "stateMutability": "view",
      "type": "function",
      "constant": true
    },
    {
      "inputs": [],
      "name": "symbol",
      "outputs": [
        {
          "internalType": "string",
          "name": "",
          "type": "string"
        }
      ],
      "stateMutability": "view",
      "type": "function",
      "constant": true
    },
    {
      "inputs": [],
      "name": "tokenCounter",
      "outputs": [
        {
          "internalType": "uint256",
          "name": "",
          "type": "uint256"
        }
      ],
      "stateMutability": "view",
      "type": "function",
      "constant": true
    },
    {
      "inputs": [
        {
          "internalType": "uint256",
          "name": "tokenId",
          "type": "uint256"
        }
      ],
      "name": "tokenURI",
      "outputs": [
        {
          "internalType": "string",
          "name": "",
          "type": "string"
        }
      ],
      "stateMutability": "view",
      "type": "function",
      "constant": true
    },
    {
      "inputs": [
        {
          "internalType": "address",
          "name": "from",
          "type": "address"
        },
        {
          "internalType": "address",
          "name": "to",
          "type": "address"
        },
        {
          "internalType": "uint256",
          "name": "tokenId",
          "type": "uint256"
        }
      ],
      "name": "transferFrom",
      "outputs": [],
      "stateMutability": "nonpayable",
      "type": "function"
    },
    {
      "inputs": [
        {
          "internalType": "string",
          "name": "_tokenURI",
          "type": "string"
        }
      ],
      "name": "_findTokenURI",
      "outputs": [
        {
          "internalType": "uint256",
          "name": "index",
          "type": "uint256"
        }
      ],
      "stateMutability": "nonpayable",
      "type": "function"
    },
    {
      "inputs": [
        {
          "internalType": "string",
          "name": "_tokenURI",
          "type": "string"
        },
        {
          "internalType": "uint256",
          "name": "_amount",
          "type": "uint256"
        },
        {
          "internalType": "address",
          "name": "_ettr_contract",
          "type": "address"
        }
      ],
      "name": "cltrnft_mint",
      "outputs": [
        {
          "internalType": "bool",
          "name": "",
          "type": "bool"
        }
      ],
      "stateMutability": "nonpayable",
      "type": "function"
    },
    {
      "inputs": [
        {
          "internalType": "address",
          "name": "owner",
          "type": "address"
        },
        {
          "internalType": "string",
          "name": "_tokenURI",
          "type": "string"
        },
        {
          "internalType": "uint256",
          "name": "_amount",
          "type": "uint256"
        },
        {
          "internalType": "address",
          "name": "_ettr_contract",
          "type": "address"
        }
      ],
      "name": "cltrnft_market_buy",
      "outputs": [
        {
          "internalType": "bool",
          "name": "",
          "type": "bool"
        }
      ],
      "stateMutability": "nonpayable",
      "type": "function"
    },
    {
      "inputs": [
        {
          "internalType": "string",
          "name": "_tokenURI",
          "type": "string"
        }
      ],
      "name": "cltrnft_market_sell",
      "outputs": [
        {
          "internalType": "bool",
          "name": "",
          "type": "bool"
        }
      ],
      "stateMutability": "nonpayable",
      "type": "function"
    },
    {
      "inputs": [
        {
          "internalType": "string",
          "name": "_tokenURI_1",
          "type": "string"
        },
        {
          "internalType": "string",
          "name": "_tokenURI_2",
          "type": "string"
        },
        {
          "internalType": "string",
          "name": "_tokenURI_3",
          "type": "string"
        },
        {
          "internalType": "string",
          "name": "_tokenURI",
          "type": "string"
        },
        {
          "internalType": "uint256",
          "name": "_amount",
          "type": "uint256"
        },
        {
          "internalType": "address",
          "name": "_ettr_contract",
          "type": "address"
        }
      ],
      "name": "cltrnft_forge",
      "outputs": [
        {
          "internalType": "bool",
          "name": "",
          "type": "bool"
        }
      ],
      "stateMutability": "nonpayable",
      "type": "function"
    }
  ],
  "bytecode": "0x60806040523480156200001157600080fd5b506040518060400160405280600b81526020017f436c6574746572204e46540000000000000000000000000000000000000000008152506040518060400160405280600781526020017f434c54524e465400000000000000000000000000000000000000000000000000815250816000908051906020019062000096929190620000c0565b508060019080519060200190620000af929190620000c0565b5050506000600781905550620001d5565b828054620000ce9062000170565b90600052602060002090601f016020900481019282620000f257600085556200013e565b82601f106200010d57805160ff19168380011785556200013e565b828001600101855582156200013e579182015b828111156200013d57825182559160200191906001019062000120565b5b5090506200014d919062000151565b5090565b5b808211156200016c57600081600090555060010162000152565b5090565b600060028204905060018216806200018957607f821691505b60208210811415620001a0576200019f620001a6565b5b50919050565b7f4e487b7100000000000000000000000000000000000000000000000000000000600052602260045260246000fd5b6134c380620001e56000396000f3fe608060405234801561001057600080fd5b50600436106101215760003560e01c806370a08231116100ad578063d082e38111610071578063d082e3811461033e578063d5ede7fe1461035c578063e985e9c51461038c578063ec18bf7f146103bc578063ed1d53c9146103ec57610121565b806370a082311461028857806395d89b41146102b8578063a22cb465146102d6578063b88d4fde146102f2578063c87b56dd1461030e57610121565b806323b872dd116100f457806323b872dd146101c057806342842e0e146101dc57806351505910146101f8578063563c401d146102285780636352211e1461025857610121565b806301ffc9a71461012657806306fdde0314610156578063081812fc14610174578063095ea7b3146101a4575b600080fd5b610140600480360381019061013b9190612313565b61041c565b60405161014d919061298d565b60405180910390f35b61015e6104fe565b60405161016b91906129a8565b60405180910390f35b61018e60048036038101906101899190612522565b610590565b60405161019b91906128fd565b60405180910390f35b6101be60048036038101906101b991906122a6565b610615565b005b6101da60048036038101906101d5919061210d565b61072d565b005b6101f660048036038101906101f1919061210d565b61078d565b005b610212600480360381019061020d91906124b3565b6107ad565b60405161021f919061298d565b60405180910390f35b610242600480360381019061023d9190612223565b610905565b60405161024f919061298d565b60405180910390f35b610272600480360381019061026d9190612522565b610acb565b60405161027f91906128fd565b60405180910390f35b6102a2600480360381019061029d91906120a0565b610b7d565b6040516102af9190612baa565b60405180910390f35b6102c0610c35565b6040516102cd91906129a8565b60405180910390f35b6102f060048036038101906102eb91906121e3565b610cc7565b005b61030c60048036038101906103079190612160565b610cdd565b005b61032860048036038101906103239190612522565b610d3f565b60405161033591906129a8565b60405180910390f35b610346610de6565b6040516103539190612baa565b60405180910390f35b610376600480360381019061037191906123b6565b610dec565b604051610383919061298d565b60405180910390f35b6103a660048036038101906103a191906120cd565b610f86565b6040516103b3919061298d565b60405180910390f35b6103d660048036038101906103d1919061236d565b61101a565b6040516103e39190612baa565b60405180910390f35b6104066004803603810190610401919061236d565b6110b9565b604051610413919061298d565b60405180910390f35b60007f80ac58cd000000000000000000000000000000000000000000000000000000007bffffffffffffffffffffffffffffffffffffffffffffffffffffffff1916827bffffffffffffffffffffffffffffffffffffffffffffffffffffffff191614806104e757507f5b5e139f000000000000000000000000000000000000000000000000000000007bffffffffffffffffffffffffffffffffffffffffffffffffffffffff1916827bffffffffffffffffffffffffffffffffffffffffffffffffffffffff1916145b806104f757506104f6826110da565b5b9050919050565b60606000805461050d90612e15565b80601f016020809104026020016040519081016040528092919081815260200182805461053990612e15565b80156105865780601f1061055b57610100808354040283529160200191610586565b820191906000526020600020905b81548152906001019060200180831161056957829003601f168201915b5050505050905090565b600061059b82611144565b6105da576040517f08c379a00000000000000000000000000000000000000000000000000000000081526004016105d190612b0a565b60405180910390fd5b6004600083815260200190815260200160002060009054906101000a900473ffffffffffffffffffffffffffffffffffffffff169050919050565b600061062082610acb565b90508073ffffffffffffffffffffffffffffffffffffffff168373ffffffffffffffffffffffffffffffffffffffff161415610691576040517f08c379a000000000000000000000000000000000000000000000000000000000815260040161068890612b6a565b60405180910390fd5b8073ffffffffffffffffffffffffffffffffffffffff166106b06111b0565b73ffffffffffffffffffffffffffffffffffffffff1614806106df57506106de816106d96111b0565b610f86565b5b61071e576040517f08c379a000000000000000000000000000000000000000000000000000000000815260040161071590612a8a565b60405180910390fd5b61072883836111b8565b505050565b61073e6107386111b0565b82611271565b61077d576040517f08c379a000000000000000000000000000000000000000000000000000000000815260040161077490612b8a565b60405180910390fd5b61078883838361134f565b505050565b6107a883838360405180602001604052806000815250610cdd565b505050565b600080829050600115158173ffffffffffffffffffffffffffffffffffffffff166392422f7933876040518363ffffffff1660e01b81526004016107f2929190612964565b602060405180830381600087803b15801561080c57600080fd5b505af1158015610820573d6000803e3d6000fd5b505050506040513d601f19601f8201168201806040525081019061084491906122e6565b151514156108f8578073ffffffffffffffffffffffffffffffffffffffff1663dc951e1633866040518363ffffffff1660e01b8152600401610887929190612964565b600060405180830381600087803b1580156108a157600080fd5b505af11580156108b5573d6000803e3d6000fd5b50505050600060075490506108cc336007546115b6565b6108d8600754876115d4565b60016007546108e79190612ca4565b6007819055506001925050506108fe565b60009150505b9392505050565b600080829050600115158173ffffffffffffffffffffffffffffffffffffffff166392422f7933876040518363ffffffff1660e01b815260040161094a929190612964565b602060405180830381600087803b15801561096457600080fd5b505af1158015610978573d6000803e3d6000fd5b505050506040513d601f19601f8201168201806040525081019061099c91906122e6565b15151415610abd578073ffffffffffffffffffffffffffffffffffffffff1663dc951e1633866040518363ffffffff1660e01b81526004016109df929190612964565b600060405180830381600087803b1580156109f957600080fd5b505af1158015610a0d573d6000803e3d6000fd5b505050508073ffffffffffffffffffffffffffffffffffffffff166324a6943887866040518363ffffffff1660e01b8152600401610a4c929190612964565b600060405180830381600087803b158015610a6657600080fd5b505af1158015610a7a573d6000803e3d6000fd5b5050505060006007549050610a91336007546115b6565b610a9d600754876115d4565b6001600754610aac9190612ca4565b600781905550600192505050610ac3565b60009150505b949350505050565b6000806002600084815260200190815260200160002060009054906101000a900473ffffffffffffffffffffffffffffffffffffffff169050600073ffffffffffffffffffffffffffffffffffffffff168173ffffffffffffffffffffffffffffffffffffffff161415610b74576040517f08c379a0000000000000000000000000000000000000000000000000000000008152600401610b6b90612aca565b60405180910390fd5b80915050919050565b60008073ffffffffffffffffffffffffffffffffffffffff168273ffffffffffffffffffffffffffffffffffffffff161415610bee576040517f08c379a0000000000000000000000000000000000000000000000000000000008152600401610be590612aaa565b60405180910390fd5b600360008373ffffffffffffffffffffffffffffffffffffffff1673ffffffffffffffffffffffffffffffffffffffff168152602001908152602001600020549050919050565b606060018054610c4490612e15565b80601f0160208091040260200160405190810160405280929190818152602001828054610c7090612e15565b8015610cbd5780601f10610c9257610100808354040283529160200191610cbd565b820191906000526020600020905b815481529060010190602001808311610ca057829003601f168201915b5050505050905090565b610cd9610cd26111b0565b8383611648565b5050565b610cee610ce86111b0565b83611271565b610d2d576040517f08c379a0000000000000000000000000000000000000000000000000000000008152600401610d2490612b8a565b60405180910390fd5b610d39848484846117b5565b50505050565b6060610d4a82611144565b610d89576040517f08c379a0000000000000000000000000000000000000000000000000000000008152600401610d8090612b4a565b60405180910390fd5b6000610d93611811565b90506000815111610db35760405180602001604052806000815250610dde565b80610dbd84611828565b604051602001610dce9291906128c2565b6040516020818303038152906040525b915050919050565b60075481565b600080829050600115158173ffffffffffffffffffffffffffffffffffffffff166392422f7933876040518363ffffffff1660e01b8152600401610e31929190612964565b602060405180830381600087803b158015610e4b57600080fd5b505af1158015610e5f573d6000803e3d6000fd5b505050506040513d601f19601f82011682018060405250810190610e8391906122e6565b15151415610f76578073ffffffffffffffffffffffffffffffffffffffff1663dc951e1633866040518363ffffffff1660e01b8152600401610ec6929190612964565b600060405180830381600087803b158015610ee057600080fd5b505af1158015610ef4573d6000803e3d6000fd5b505050506000610f038961101a565b9050610f0e81611989565b610f178861101a565b9050610f2281611989565b610f2b8761101a565b9050610f3681611989565b60006007549050610f49336007546115b6565b610f55600754886115d4565b6001600754610f649190612ca4565b60078190555060019350505050610f7c565b60009150505b9695505050505050565b6000600560008473ffffffffffffffffffffffffffffffffffffffff1673ffffffffffffffffffffffffffffffffffffffff16815260200190815260200160002060008373ffffffffffffffffffffffffffffffffffffffff1673ffffffffffffffffffffffffffffffffffffffff16815260200190815260200160002060009054906101000a900460ff16905092915050565b600080600090505b6007548110156110ae578260405160200161103d91906128ab565b604051602081830303815290604052805190602001206006600083815260200190815260200160002060405160200161107691906128e6565b60405160208183030381529060405280519060200120141561109b57809150506110b4565b80806110a690612e78565b915050611022565b50600090505b919050565b6000806110c58361101a565b90506110d081611989565b6001915050919050565b60007f01ffc9a7000000000000000000000000000000000000000000000000000000007bffffffffffffffffffffffffffffffffffffffffffffffffffffffff1916827bffffffffffffffffffffffffffffffffffffffffffffffffffffffff1916149050919050565b60008073ffffffffffffffffffffffffffffffffffffffff166002600084815260200190815260200160002060009054906101000a900473ffffffffffffffffffffffffffffffffffffffff1673ffffffffffffffffffffffffffffffffffffffff1614159050919050565b600033905090565b816004600083815260200190815260200160002060006101000a81548173ffffffffffffffffffffffffffffffffffffffff021916908373ffffffffffffffffffffffffffffffffffffffff160217905550808273ffffffffffffffffffffffffffffffffffffffff1661122b83610acb565b73ffffffffffffffffffffffffffffffffffffffff167f8c5be1e5ebec7d5bd14f71427d1e84f3dd0314c0f7b2291e5b200ac8c7c3b92560405160405180910390a45050565b600061127c82611144565b6112bb576040517f08c379a00000000000000000000000000000000000000000000000000000000081526004016112b290612a6a565b60405180910390fd5b60006112c683610acb565b90508073ffffffffffffffffffffffffffffffffffffffff168473ffffffffffffffffffffffffffffffffffffffff16148061130857506113078185610f86565b5b8061134657508373ffffffffffffffffffffffffffffffffffffffff1661132e84610590565b73ffffffffffffffffffffffffffffffffffffffff16145b91505092915050565b8273ffffffffffffffffffffffffffffffffffffffff1661136f82610acb565b73ffffffffffffffffffffffffffffffffffffffff16146113c5576040517f08c379a00000000000000000000000000000000000000000000000000000000081526004016113bc906129ea565b60405180910390fd5b600073ffffffffffffffffffffffffffffffffffffffff168273ffffffffffffffffffffffffffffffffffffffff161415611435576040517f08c379a000000000000000000000000000000000000000000000000000000000815260040161142c90612a2a565b60405180910390fd5b611440838383611aa6565b61144b6000826111b8565b6001600360008573ffffffffffffffffffffffffffffffffffffffff1673ffffffffffffffffffffffffffffffffffffffff168152602001908152602001600020600082825461149b9190612d2b565b925050819055506001600360008473ffffffffffffffffffffffffffffffffffffffff1673ffffffffffffffffffffffffffffffffffffffff16815260200190815260200160002060008282546114f29190612ca4565b92505081905550816002600083815260200190815260200160002060006101000a81548173ffffffffffffffffffffffffffffffffffffffff021916908373ffffffffffffffffffffffffffffffffffffffff160217905550808273ffffffffffffffffffffffffffffffffffffffff168473ffffffffffffffffffffffffffffffffffffffff167fddf252ad1be2c89b69c2b068fc378daa952ba7f163c4a11628f55a4df523b3ef60405160405180910390a46115b1838383611aab565b505050565b6115d0828260405180602001604052806000815250611ab0565b5050565b6115dd82611144565b61161c576040517f08c379a000000000000000000000000000000000000000000000000000000000815260040161161390612b2a565b60405180910390fd5b80600660008481526020019081526020016000209080519060200190611643929190611e9f565b505050565b8173ffffffffffffffffffffffffffffffffffffffff168373ffffffffffffffffffffffffffffffffffffffff1614156116b7576040517f08c379a00000000000000000000000000000000000000000000000000000000081526004016116ae90612a4a565b60405180910390fd5b80600560008573ffffffffffffffffffffffffffffffffffffffff1673ffffffffffffffffffffffffffffffffffffffff16815260200190815260200160002060008473ffffffffffffffffffffffffffffffffffffffff1673ffffffffffffffffffffffffffffffffffffffff16815260200190815260200160002060006101000a81548160ff0219169083151502179055508173ffffffffffffffffffffffffffffffffffffffff168373ffffffffffffffffffffffffffffffffffffffff167f17307eab39ab6107e8899845ad3d59bd9653f200f220920489ca2b5937696c31836040516117a8919061298d565b60405180910390a3505050565b6117c084848461134f565b6117cc84848484611b0b565b61180b576040517f08c379a0000000000000000000000000000000000000000000000000000000008152600401611802906129ca565b60405180910390fd5b50505050565b606060405180602001604052806000815250905090565b60606000821415611870576040518060400160405280600181526020017f30000000000000000000000000000000000000000000000000000000000000008152509050611984565b600082905060005b600082146118a257808061188b90612e78565b915050600a8261189b9190612cfa565b9150611878565b60008167ffffffffffffffff8111156118be576118bd612fae565b5b6040519080825280601f01601f1916602001820160405280156118f05781602001600182028036833780820191505090505b5090505b6000851461197d576001826119099190612d2b565b9150600a856119189190612ec1565b60306119249190612ca4565b60f81b81838151811061193a57611939612f7f565b5b60200101907effffffffffffffffffffffffffffffffffffffffffffffffffffffffffffff1916908160001a905350600a856119769190612cfa565b94506118f4565b8093505050505b919050565b600061199482610acb565b90506119a281600084611aa6565b6119ad6000836111b8565b6001600360008373ffffffffffffffffffffffffffffffffffffffff1673ffffffffffffffffffffffffffffffffffffffff16815260200190815260200160002060008282546119fd9190612d2b565b925050819055506002600083815260200190815260200160002060006101000a81549073ffffffffffffffffffffffffffffffffffffffff021916905581600073ffffffffffffffffffffffffffffffffffffffff168273ffffffffffffffffffffffffffffffffffffffff167fddf252ad1be2c89b69c2b068fc378daa952ba7f163c4a11628f55a4df523b3ef60405160405180910390a4611aa281600084611aab565b5050565b505050565b505050565b611aba8383611ca2565b611ac76000848484611b0b565b611b06576040517f08c379a0000000000000000000000000000000000000000000000000000000008152600401611afd906129ca565b60405180910390fd5b505050565b6000611b2c8473ffffffffffffffffffffffffffffffffffffffff16611e7c565b15611c95578373ffffffffffffffffffffffffffffffffffffffff1663150b7a02611b556111b0565b8786866040518563ffffffff1660e01b8152600401611b779493929190612918565b602060405180830381600087803b158015611b9157600080fd5b505af1925050508015611bc257506040513d601f19601f82011682018060405250810190611bbf9190612340565b60015b611c45573d8060008114611bf2576040519150601f19603f3d011682016040523d82523d6000602084013e611bf7565b606091505b50600081511415611c3d576040517f08c379a0000000000000000000000000000000000000000000000000000000008152600401611c34906129ca565b60405180910390fd5b805181602001fd5b63150b7a0260e01b7bffffffffffffffffffffffffffffffffffffffffffffffffffffffff1916817bffffffffffffffffffffffffffffffffffffffffffffffffffffffff191614915050611c9a565b600190505b949350505050565b600073ffffffffffffffffffffffffffffffffffffffff168273ffffffffffffffffffffffffffffffffffffffff161415611d12576040517f08c379a0000000000000000000000000000000000000000000000000000000008152600401611d0990612aea565b60405180910390fd5b611d1b81611144565b15611d5b576040517f08c379a0000000000000000000000000000000000000000000000000000000008152600401611d5290612a0a565b60405180910390fd5b611d6760008383611aa6565b6001600360008473ffffffffffffffffffffffffffffffffffffffff1673ffffffffffffffffffffffffffffffffffffffff1681526020019081526020016000206000828254611db79190612ca4565b92505081905550816002600083815260200190815260200160002060006101000a81548173ffffffffffffffffffffffffffffffffffffffff021916908373ffffffffffffffffffffffffffffffffffffffff160217905550808273ffffffffffffffffffffffffffffffffffffffff16600073ffffffffffffffffffffffffffffffffffffffff167fddf252ad1be2c89b69c2b068fc378daa952ba7f163c4a11628f55a4df523b3ef60405160405180910390a4611e7860008383611aab565b5050565b6000808273ffffffffffffffffffffffffffffffffffffffff163b119050919050565b828054611eab90612e15565b90600052602060002090601f016020900481019282611ecd5760008555611f14565b82601f10611ee657805160ff1916838001178555611f14565b82800160010185558215611f14579182015b82811115611f13578251825591602001919060010190611ef8565b5b509050611f219190611f25565b5090565b5b80821115611f3e576000816000905550600101611f26565b5090565b6000611f55611f5084612bea565b612bc5565b905082815260208101848484011115611f7157611f70612fe2565b5b611f7c848285612dd3565b509392505050565b6000611f97611f9284612c1b565b612bc5565b905082815260208101848484011115611fb357611fb2612fe2565b5b611fbe848285612dd3565b509392505050565b600081359050611fd581613431565b92915050565b600081359050611fea81613448565b92915050565b600081519050611fff81613448565b92915050565b6000813590506120148161345f565b92915050565b6000815190506120298161345f565b92915050565b600082601f83011261204457612043612fdd565b5b8135612054848260208601611f42565b91505092915050565b600082601f83011261207257612071612fdd565b5b8135612082848260208601611f84565b91505092915050565b60008135905061209a81613476565b92915050565b6000602082840312156120b6576120b5612fec565b5b60006120c484828501611fc6565b91505092915050565b600080604083850312156120e4576120e3612fec565b5b60006120f285828601611fc6565b925050602061210385828601611fc6565b9150509250929050565b60008060006060848603121561212657612125612fec565b5b600061213486828701611fc6565b935050602061214586828701611fc6565b92505060406121568682870161208b565b9150509250925092565b6000806000806080858703121561217a57612179612fec565b5b600061218887828801611fc6565b945050602061219987828801611fc6565b93505060406121aa8782880161208b565b925050606085013567ffffffffffffffff8111156121cb576121ca612fe7565b5b6121d78782880161202f565b91505092959194509250565b600080604083850312156121fa576121f9612fec565b5b600061220885828601611fc6565b925050602061221985828601611fdb565b9150509250929050565b6000806000806080858703121561223d5761223c612fec565b5b600061224b87828801611fc6565b945050602085013567ffffffffffffffff81111561226c5761226b612fe7565b5b6122788782880161205d565b93505060406122898782880161208b565b925050606061229a87828801611fc6565b91505092959194509250565b600080604083850312156122bd576122bc612fec565b5b60006122cb85828601611fc6565b92505060206122dc8582860161208b565b9150509250929050565b6000602082840312156122fc576122fb612fec565b5b600061230a84828501611ff0565b91505092915050565b60006020828403121561232957612328612fec565b5b600061233784828501612005565b91505092915050565b60006020828403121561235657612355612fec565b5b60006123648482850161201a565b91505092915050565b60006020828403121561238357612382612fec565b5b600082013567ffffffffffffffff8111156123a1576123a0612fe7565b5b6123ad8482850161205d565b91505092915050565b60008060008060008060c087890312156123d3576123d2612fec565b5b600087013567ffffffffffffffff8111156123f1576123f0612fe7565b5b6123fd89828a0161205d565b965050602087013567ffffffffffffffff81111561241e5761241d612fe7565b5b61242a89828a0161205d565b955050604087013567ffffffffffffffff81111561244b5761244a612fe7565b5b61245789828a0161205d565b945050606087013567ffffffffffffffff81111561247857612477612fe7565b5b61248489828a0161205d565b935050608061249589828a0161208b565b92505060a06124a689828a01611fc6565b9150509295509295509295565b6000806000606084860312156124cc576124cb612fec565b5b600084013567ffffffffffffffff8111156124ea576124e9612fe7565b5b6124f68682870161205d565b93505060206125078682870161208b565b925050604061251886828701611fc6565b9150509250925092565b60006020828403121561253857612537612fec565b5b60006125468482850161208b565b91505092915050565b61255881612d5f565b82525050565b61256781612d71565b82525050565b600061257882612c61565b6125828185612c77565b9350612592818560208601612de2565b61259b81612ff1565b840191505092915050565b60006125b182612c6c565b6125bb8185612c88565b93506125cb818560208601612de2565b6125d481612ff1565b840191505092915050565b60006125ea82612c6c565b6125f48185612c99565b9350612604818560208601612de2565b80840191505092915050565b6000815461261d81612e15565b6126278186612c99565b94506001821660008114612642576001811461265357612686565b60ff19831686528186019350612686565b61265c85612c4c565b60005b8381101561267e5781548189015260018201915060208101905061265f565b838801955050505b50505092915050565b600061269c603283612c88565b91506126a782613002565b604082019050919050565b60006126bf602583612c88565b91506126ca82613051565b604082019050919050565b60006126e2601c83612c88565b91506126ed826130a0565b602082019050919050565b6000612705602483612c88565b9150612710826130c9565b604082019050919050565b6000612728601983612c88565b915061273382613118565b602082019050919050565b600061274b602c83612c88565b915061275682613141565b604082019050919050565b600061276e603883612c88565b915061277982613190565b604082019050919050565b6000612791602a83612c88565b915061279c826131df565b604082019050919050565b60006127b4602983612c88565b91506127bf8261322e565b604082019050919050565b60006127d7602083612c88565b91506127e28261327d565b602082019050919050565b60006127fa602c83612c88565b9150612805826132a6565b604082019050919050565b600061281d602c83612c88565b9150612828826132f5565b604082019050919050565b6000612840602f83612c88565b915061284b82613344565b604082019050919050565b6000612863602183612c88565b915061286e82613393565b604082019050919050565b6000612886603183612c88565b9150612891826133e2565b604082019050919050565b6128a581612dc9565b82525050565b60006128b782846125df565b915081905092915050565b60006128ce82856125df565b91506128da82846125df565b91508190509392505050565b60006128f28284612610565b915081905092915050565b6000602082019050612912600083018461254f565b92915050565b600060808201905061292d600083018761254f565b61293a602083018661254f565b612947604083018561289c565b8181036060830152612959818461256d565b905095945050505050565b6000604082019050612979600083018561254f565b612986602083018461289c565b9392505050565b60006020820190506129a2600083018461255e565b92915050565b600060208201905081810360008301526129c281846125a6565b905092915050565b600060208201905081810360008301526129e38161268f565b9050919050565b60006020820190508181036000830152612a03816126b2565b9050919050565b60006020820190508181036000830152612a23816126d5565b9050919050565b60006020820190508181036000830152612a43816126f8565b9050919050565b60006020820190508181036000830152612a638161271b565b9050919050565b60006020820190508181036000830152612a838161273e565b9050919050565b60006020820190508181036000830152612aa381612761565b9050919050565b60006020820190508181036000830152612ac381612784565b9050919050565b60006020820190508181036000830152612ae3816127a7565b9050919050565b60006020820190508181036000830152612b03816127ca565b9050919050565b60006020820190508181036000830152612b23816127ed565b9050919050565b60006020820190508181036000830152612b4381612810565b9050919050565b60006020820190508181036000830152612b6381612833565b9050919050565b60006020820190508181036000830152612b8381612856565b9050919050565b60006020820190508181036000830152612ba381612879565b9050919050565b6000602082019050612bbf600083018461289c565b92915050565b6000612bcf612be0565b9050612bdb8282612e47565b919050565b6000604051905090565b600067ffffffffffffffff821115612c0557612c04612fae565b5b612c0e82612ff1565b9050602081019050919050565b600067ffffffffffffffff821115612c3657612c35612fae565b5b612c3f82612ff1565b9050602081019050919050565b60008190508160005260206000209050919050565b600081519050919050565b600081519050919050565b600082825260208201905092915050565b600082825260208201905092915050565b600081905092915050565b6000612caf82612dc9565b9150612cba83612dc9565b9250827fffffffffffffffffffffffffffffffffffffffffffffffffffffffffffffffff03821115612cef57612cee612ef2565b5b828201905092915050565b6000612d0582612dc9565b9150612d1083612dc9565b925082612d2057612d1f612f21565b5b828204905092915050565b6000612d3682612dc9565b9150612d4183612dc9565b925082821015612d5457612d53612ef2565b5b828203905092915050565b6000612d6a82612da9565b9050919050565b60008115159050919050565b60007fffffffff0000000000000000000000000000000000000000000000000000000082169050919050565b600073ffffffffffffffffffffffffffffffffffffffff82169050919050565b6000819050919050565b82818337600083830152505050565b60005b83811015612e00578082015181840152602081019050612de5565b83811115612e0f576000848401525b50505050565b60006002820490506001821680612e2d57607f821691505b60208210811415612e4157612e40612f50565b5b50919050565b612e5082612ff1565b810181811067ffffffffffffffff82111715612e6f57612e6e612fae565b5b80604052505050565b6000612e8382612dc9565b91507fffffffffffffffffffffffffffffffffffffffffffffffffffffffffffffffff821415612eb657612eb5612ef2565b5b600182019050919050565b6000612ecc82612dc9565b9150612ed783612dc9565b925082612ee757612ee6612f21565b5b828206905092915050565b7f4e487b7100000000000000000000000000000000000000000000000000000000600052601160045260246000fd5b7f4e487b7100000000000000000000000000000000000000000000000000000000600052601260045260246000fd5b7f4e487b7100000000000000000000000000000000000000000000000000000000600052602260045260246000fd5b7f4e487b7100000000000000000000000000000000000000000000000000000000600052603260045260246000fd5b7f4e487b7100000000000000000000000000000000000000000000000000000000600052604160045260246000fd5b600080fd5b600080fd5b600080fd5b600080fd5b6000601f19601f8301169050919050565b7f4552433732313a207472616e7366657220746f206e6f6e20455243373231526560008201527f63656976657220696d706c656d656e7465720000000000000000000000000000602082015250565b7f4552433732313a207472616e736665722066726f6d20696e636f72726563742060008201527f6f776e6572000000000000000000000000000000000000000000000000000000602082015250565b7f4552433732313a20746f6b656e20616c7265616479206d696e74656400000000600082015250565b7f4552433732313a207472616e7366657220746f20746865207a65726f2061646460008201527f7265737300000000000000000000000000000000000000000000000000000000602082015250565b7f4552433732313a20617070726f766520746f2063616c6c657200000000000000600082015250565b7f4552433732313a206f70657261746f7220717565727920666f72206e6f6e657860008201527f697374656e7420746f6b656e0000000000000000000000000000000000000000602082015250565b7f4552433732313a20617070726f76652063616c6c6572206973206e6f74206f7760008201527f6e6572206e6f7220617070726f76656420666f7220616c6c0000000000000000602082015250565b7f4552433732313a2062616c616e636520717565727920666f7220746865207a6560008201527f726f206164647265737300000000000000000000000000000000000000000000602082015250565b7f4552433732313a206f776e657220717565727920666f72206e6f6e657869737460008201527f656e7420746f6b656e0000000000000000000000000000000000000000000000602082015250565b7f4552433732313a206d696e7420746f20746865207a65726f2061646472657373600082015250565b7f4552433732313a20617070726f76656420717565727920666f72206e6f6e657860008201527f697374656e7420746f6b656e0000000000000000000000000000000000000000602082015250565b7f4552433732314d657461646174613a2055524920736574206f66206e6f6e657860008201527f697374656e7420746f6b656e0000000000000000000000000000000000000000602082015250565b7f4552433732314d657461646174613a2055524920717565727920666f72206e6f60008201527f6e6578697374656e7420746f6b656e0000000000000000000000000000000000602082015250565b7f4552433732313a20617070726f76616c20746f2063757272656e74206f776e6560008201527f7200000000000000000000000000000000000000000000000000000000000000602082015250565b7f4552433732313a207472616e736665722063616c6c6572206973206e6f74206f60008201527f776e6572206e6f7220617070726f766564000000000000000000000000000000602082015250565b61343a81612d5f565b811461344557600080fd5b50565b61345181612d71565b811461345c57600080fd5b50565b61346881612d7d565b811461347357600080fd5b50565b61347f81612dc9565b811461348a57600080fd5b5056fea26469706673582212208360d193652b41c9987023b9c557198550838fa9dff151cdafa7c7c5217169a164736f6c63430008050033",
  "immutableReferences": {},
  "source": "import '@openzeppelin/contracts/token/ERC721/ERC721.sol';\n\nimport './Ettr.sol';\n\ncontract CLTRNFT is ERC721{\n\n    // Optional mapping for token URIs\n    mapping (uint256 => string) private _tokenURIs;\n\n    uint256 public tokenCounter;\n    constructor() ERC721(\"Cletter NFT\", \"CLTRNFT\") public {\n        tokenCounter = 0;\n    }\n\n    function _setTokenURI(uint256 tokenId, string memory _tokenURI) internal virtual {\n        require(_exists(tokenId), \"ERC721Metadata: URI set of nonexistent token\");\n        _tokenURIs[tokenId] = _tokenURI;\n    }\n\n    function _findTokenURI(string memory _tokenURI) public returns(uint256 index){\n        for(uint i = 0; i < tokenCounter; i++){\n            if (keccak256(abi.encodePacked(_tokenURIs[i])) == keccak256(abi.encodePacked(_tokenURI))){\n                return i;\n            }\n        }\n        return 0;\n    }\n    \n    function cltrnft_mint(string memory _tokenURI, uint256 _amount, address _ettr_contract) public returns(bool) {\n        Ettr E = Ettr(_ettr_contract);\n        if (E.get_ettr_balance_subtract(msg.sender, _amount) == true){\n            E.ettr_burn(msg.sender, _amount);\n            uint256 newItemId = tokenCounter;\n            _safeMint(msg.sender, tokenCounter);\n            _setTokenURI(tokenCounter, _tokenURI);\n            tokenCounter = tokenCounter + 1;\n            return true;\n        }\n        else {\n            return false;\n        }\n    }\n\n    function cltrnft_market_buy(address owner,string memory _tokenURI, uint256 _amount, address _ettr_contract) public returns(bool) {\n        Ettr E = Ettr(_ettr_contract);\n        if (E.get_ettr_balance_subtract(msg.sender, _amount) == true){\n            E.ettr_burn(msg.sender, _amount);\n\n            E.external_ettr_mint(owner, _amount);\n\n            uint256 newItemId = tokenCounter;\n            _safeMint(msg.sender, tokenCounter);\n            _setTokenURI(tokenCounter, _tokenURI);\n            tokenCounter = tokenCounter + 1;\n            return true;\n        }\n        else {\n            return false;\n        }\n    }\n\n    function cltrnft_market_sell(string memory _tokenURI) public returns(bool) {\n        uint tokenId = _findTokenURI((_tokenURI));\n        _burn(tokenId);\n        return true;\n    }\n\n    function cltrnft_forge(string memory _tokenURI_1, string memory _tokenURI_2, string memory _tokenURI_3, string memory _tokenURI, uint256 _amount, address _ettr_contract) public returns(bool) {\n        Ettr E = Ettr(_ettr_contract);\n        if (E.get_ettr_balance_subtract(msg.sender, _amount) == true){\n            E.ettr_burn(msg.sender, _amount);\n\n            uint tokenId = _findTokenURI((_tokenURI_1));\n            _burn(tokenId);\n\n            tokenId = _findTokenURI((_tokenURI_2));\n            _burn(tokenId);\n\n            tokenId = _findTokenURI((_tokenURI_3));\n            _burn(tokenId);\n\n            uint256 newItemId = tokenCounter;\n            _safeMint(msg.sender, tokenCounter);\n            _setTokenURI(tokenCounter, _tokenURI);\n            tokenCounter = tokenCounter + 1;\n            return true;\n        }\n        else {\n            return false;\n        }\n    }\n}\n",
  "sourcePath": "/Users/chrismanueltrajano/Documents/Github/clettr/clettr-blockchain/contracts/CLTRNFT.sol",
  "compiler": {
    "name": "solc",
    "version": "0.8.5+commit.a4f2e591.Emscripten.clang"
  },
  "schemaVersion": "3.4.7",
  "updatedAt": "2022-06-13T17:17:55.869Z",
  "networkType": "ethereum",
  "devdoc": {
    "kind": "dev",
    "methods": {
      "approve(address,uint256)": {
        "details": "See {IERC721-approve}."
      },
      "balanceOf(address)": {
        "details": "See {IERC721-balanceOf}."
      },
      "getApproved(uint256)": {
        "details": "See {IERC721-getApproved}."
      },
      "isApprovedForAll(address,address)": {
        "details": "See {IERC721-isApprovedForAll}."
      },
      "name()": {
        "details": "See {IERC721Metadata-name}."
      },
      "ownerOf(uint256)": {
        "details": "See {IERC721-ownerOf}."
      },
      "safeTransferFrom(address,address,uint256)": {
        "details": "See {IERC721-safeTransferFrom}."
      },
      "safeTransferFrom(address,address,uint256,bytes)": {
        "details": "See {IERC721-safeTransferFrom}."
      },
      "setApprovalForAll(address,bool)": {
        "details": "See {IERC721-setApprovalForAll}."
      },
      "supportsInterface(bytes4)": {
        "details": "See {IERC165-supportsInterface}."
      },
      "symbol()": {
        "details": "See {IERC721Metadata-symbol}."
      },
      "tokenURI(uint256)": {
        "details": "See {IERC721Metadata-tokenURI}."
      },
      "transferFrom(address,address,uint256)": {
        "details": "See {IERC721-transferFrom}."
      }
    },
    "version": 1
  },
  "userdoc": {
    "kind": "user",
    "methods": {},
    "version": 1
  }
}