{
  "contractName": "CLTRNFT",
  "abi": [
    {
      "inputs": [],
      "stateMutability": "nonpayable",
      "type": "constructor"
    },
    {
      "anonymous": false,
      "inputs": [
        {
          "indexed": true,
          "internalType": "address",
          "name": "owner",
          "type": "address"
        },
        {
          "indexed": true,
          "internalType": "address",
          "name": "approved",
          "type": "address"
        },
        {
          "indexed": true,
          "internalType": "uint256",
          "name": "tokenId",
          "type": "uint256"
        }
      ],
      "name": "Approval",
      "type": "event"
    },
    {
      "anonymous": false,
      "inputs": [
        {
          "indexed": true,
          "internalType": "address",
          "name": "owner",
          "type": "address"
        },
        {
          "indexed": true,
          "internalType": "address",
          "name": "operator",
          "type": "address"
        },
        {
          "indexed": false,
          "internalType": "bool",
          "name": "approved",
          "type": "bool"
        }
      ],
      "name": "ApprovalForAll",
      "type": "event"
    },
    {
      "anonymous": false,
      "inputs": [
        {
          "indexed": true,
          "internalType": "address",
          "name": "previousOwner",
          "type": "address"
        },
        {
          "indexed": true,
          "internalType": "address",
          "name": "newOwner",
          "type": "address"
        }
      ],
      "name": "OwnershipTransferred",
      "type": "event"
    },
    {
      "anonymous": false,
      "inputs": [
        {
          "indexed": true,
          "internalType": "address",
          "name": "owner",
          "type": "address"
        },
        {
          "indexed": false,
          "internalType": "uint256",
          "name": "tokenId",
          "type": "uint256"
        }
      ],
      "name": "TokenMinted",
      "type": "event"
    },
    {
      "anonymous": false,
      "inputs": [
        {
          "indexed": true,
          "internalType": "address",
          "name": "from",
          "type": "address"
        },
        {
          "indexed": true,
          "internalType": "address",
          "name": "to",
          "type": "address"
        },
        {
          "indexed": true,
          "internalType": "uint256",
          "name": "tokenId",
          "type": "uint256"
        }
      ],
      "name": "Transfer",
      "type": "event"
    },
    {
      "inputs": [
        {
          "internalType": "address",
          "name": "to",
          "type": "address"
        },
        {
          "internalType": "uint256",
          "name": "tokenId",
          "type": "uint256"
        }
      ],
      "name": "approve",
      "outputs": [],
      "stateMutability": "nonpayable",
      "type": "function"
    },
    {
      "inputs": [
        {
          "internalType": "address",
          "name": "owner",
          "type": "address"
        }
      ],
      "name": "balanceOf",
      "outputs": [
        {
          "internalType": "uint256",
          "name": "",
          "type": "uint256"
        }
      ],
      "stateMutability": "view",
      "type": "function",
      "constant": true
    },
    {
      "inputs": [
        {
          "internalType": "uint256",
          "name": "tokenId",
          "type": "uint256"
        }
      ],
      "name": "getApproved",
      "outputs": [
        {
          "internalType": "address",
          "name": "",
          "type": "address"
        }
      ],
      "stateMutability": "view",
      "type": "function",
      "constant": true
    },
    {
      "inputs": [
        {
          "internalType": "address",
          "name": "owner",
          "type": "address"
        },
        {
          "internalType": "address",
          "name": "operator",
          "type": "address"
        }
      ],
      "name": "isApprovedForAll",
      "outputs": [
        {
          "internalType": "bool",
          "name": "",
          "type": "bool"
        }
      ],
      "stateMutability": "view",
      "type": "function",
      "constant": true
    },
    {
      "inputs": [],
      "name": "name",
      "outputs": [
        {
          "internalType": "string",
          "name": "",
          "type": "string"
        }
      ],
      "stateMutability": "view",
      "type": "function",
      "constant": true
    },
    {
      "inputs": [],
      "name": "owner",
      "outputs": [
        {
          "internalType": "address",
          "name": "",
          "type": "address"
        }
      ],
      "stateMutability": "view",
      "type": "function",
      "constant": true
    },
    {
      "inputs": [
        {
          "internalType": "uint256",
          "name": "tokenId",
          "type": "uint256"
        }
      ],
      "name": "ownerOf",
      "outputs": [
        {
          "internalType": "address",
          "name": "",
          "type": "address"
        }
      ],
      "stateMutability": "view",
      "type": "function",
      "constant": true
    },
    {
      "inputs": [],
      "name": "renounceOwnership",
      "outputs": [],
      "stateMutability": "nonpayable",
      "type": "function"
    },
    {
      "inputs": [
        {
          "internalType": "address",
          "name": "from",
          "type": "address"
        },
        {
          "internalType": "address",
          "name": "to",
          "type": "address"
        },
        {
          "internalType": "uint256",
          "name": "tokenId",
          "type": "uint256"
        }
      ],
      "name": "safeTransferFrom",
      "outputs": [],
      "stateMutability": "nonpayable",
      "type": "function"
    },
    {
      "inputs": [
        {
          "internalType": "address",
          "name": "from",
          "type": "address"
        },
        {
          "internalType": "address",
          "name": "to",
          "type": "address"
        },
        {
          "internalType": "uint256",
          "name": "tokenId",
          "type": "uint256"
        },
        {
          "internalType": "bytes",
          "name": "_data",
          "type": "bytes"
        }
      ],
      "name": "safeTransferFrom",
      "outputs": [],
      "stateMutability": "nonpayable",
      "type": "function"
    },
    {
      "inputs": [
        {
          "internalType": "address",
          "name": "operator",
          "type": "address"
        },
        {
          "internalType": "bool",
          "name": "approved",
          "type": "bool"
        }
      ],
      "name": "setApprovalForAll",
      "outputs": [],
      "stateMutability": "nonpayable",
      "type": "function"
    },
    {
      "inputs": [
        {
          "internalType": "bytes4",
          "name": "interfaceId",
          "type": "bytes4"
        }
      ],
      "name": "supportsInterface",
      "outputs": [
        {
          "internalType": "bool",
          "name": "",
          "type": "bool"
        }
      ],
      "stateMutability": "view",
      "type": "function",
      "constant": true
    },
    {
      "inputs": [],
      "name": "symbol",
      "outputs": [
        {
          "internalType": "string",
          "name": "",
          "type": "string"
        }
      ],
      "stateMutability": "view",
      "type": "function",
      "constant": true
    },
    {
      "inputs": [],
      "name": "tokenCounter",
      "outputs": [
        {
          "internalType": "uint256",
          "name": "",
          "type": "uint256"
        }
      ],
      "stateMutability": "view",
      "type": "function",
      "constant": true
    },
    {
      "inputs": [
        {
          "internalType": "uint256",
          "name": "tokenId",
          "type": "uint256"
        }
      ],
      "name": "tokenURI",
      "outputs": [
        {
          "internalType": "string",
          "name": "",
          "type": "string"
        }
      ],
      "stateMutability": "view",
      "type": "function",
      "constant": true
    },
    {
      "inputs": [
        {
          "internalType": "address",
          "name": "from",
          "type": "address"
        },
        {
          "internalType": "address",
          "name": "to",
          "type": "address"
        },
        {
          "internalType": "uint256",
          "name": "tokenId",
          "type": "uint256"
        }
      ],
      "name": "transferFrom",
      "outputs": [],
      "stateMutability": "nonpayable",
      "type": "function"
    },
    {
      "inputs": [
        {
          "internalType": "address",
          "name": "newOwner",
          "type": "address"
        }
      ],
      "name": "transferOwnership",
      "outputs": [],
      "stateMutability": "nonpayable",
      "type": "function"
    },
    {
      "inputs": [
        {
          "internalType": "string",
          "name": "_tokenURI",
          "type": "string"
        }
      ],
      "name": "_findTokenURI",
      "outputs": [
        {
          "internalType": "uint256",
          "name": "index",
          "type": "uint256"
        }
      ],
      "stateMutability": "nonpayable",
      "type": "function"
    },
    {
      "inputs": [
        {
          "internalType": "string",
          "name": "_tokenURI",
          "type": "string"
        },
        {
          "internalType": "uint256",
          "name": "_amount",
          "type": "uint256"
        },
        {
          "internalType": "address",
          "name": "_ettr_contract",
          "type": "address"
        },
        {
          "internalType": "address",
          "name": "_susdc_contract",
          "type": "address"
        },
        {
          "internalType": "uint256",
          "name": "_type",
          "type": "uint256"
        }
      ],
      "name": "cltrnft_mint",
      "outputs": [
        {
          "internalType": "bool",
          "name": "",
          "type": "bool"
        }
      ],
      "stateMutability": "nonpayable",
      "type": "function"
    },
    {
      "inputs": [
        {
          "internalType": "address",
          "name": "owner",
          "type": "address"
        },
        {
          "internalType": "string",
          "name": "_tokenURI",
          "type": "string"
        },
        {
          "internalType": "uint256",
          "name": "_amount",
          "type": "uint256"
        },
        {
          "internalType": "address",
          "name": "_ettr_contract",
          "type": "address"
        },
        {
          "internalType": "address",
          "name": "_susdc_contract",
          "type": "address"
        }
      ],
      "name": "cltrnft_market_buy",
      "outputs": [
        {
          "internalType": "bool",
          "name": "",
          "type": "bool"
        }
      ],
      "stateMutability": "nonpayable",
      "type": "function"
    },
    {
      "inputs": [
        {
          "internalType": "string",
          "name": "_tokenURI",
          "type": "string"
        }
      ],
      "name": "cltrnft_market_sell",
      "outputs": [
        {
          "internalType": "bool",
          "name": "",
          "type": "bool"
        }
      ],
      "stateMutability": "nonpayable",
      "type": "function"
    },
    {
      "inputs": [
        {
          "internalType": "uint256",
          "name": "_tokenId_1",
          "type": "uint256"
        },
        {
          "internalType": "uint256",
          "name": "_tokenId_2",
          "type": "uint256"
        },
        {
          "internalType": "uint256",
          "name": "_tokenId_3",
          "type": "uint256"
        },
        {
          "internalType": "string",
          "name": "_tokenURI",
          "type": "string"
        },
        {
          "internalType": "uint256",
          "name": "_amount",
          "type": "uint256"
        },
        {
          "internalType": "address",
          "name": "_ettr_contract",
          "type": "address"
        }
      ],
      "name": "cltrnft_forge",
      "outputs": [
        {
          "internalType": "bool",
          "name": "",
          "type": "bool"
        }
      ],
      "stateMutability": "nonpayable",
      "type": "function"
    }
  ],
  "bytecode": "0x60806040523480156200001157600080fd5b506040518060400160405280600b81526020017f436c6574746572204e46540000000000000000000000000000000000000000008152506040518060400160405280600781526020017f434c54524e465400000000000000000000000000000000000000000000000000815250816000908051906020019062000096929190620001ae565b508060019080519060200190620000af929190620001ae565b505050620000d2620000c6620000e060201b60201c565b620000e860201b60201c565b6000600881905550620002c3565b600033905090565b6000600660009054906101000a900473ffffffffffffffffffffffffffffffffffffffff16905081600660006101000a81548173ffffffffffffffffffffffffffffffffffffffff021916908373ffffffffffffffffffffffffffffffffffffffff1602179055508173ffffffffffffffffffffffffffffffffffffffff168173ffffffffffffffffffffffffffffffffffffffff167f8be0079c531659141344cd1fd0a4f28419497f9722a3daafe3b4186f6b6457e060405160405180910390a35050565b828054620001bc906200025e565b90600052602060002090601f016020900481019282620001e057600085556200022c565b82601f10620001fb57805160ff19168380011785556200022c565b828001600101855582156200022c579182015b828111156200022b5782518255916020019190600101906200020e565b5b5090506200023b91906200023f565b5090565b5b808211156200025a57600081600090555060010162000240565b5090565b600060028204905060018216806200027757607f821691505b602082108114156200028e576200028d62000294565b5b50919050565b7f4e487b7100000000000000000000000000000000000000000000000000000000600052602260045260246000fd5b613c1680620002d36000396000f3fe608060405234801561001057600080fd5b50600436106101425760003560e01c806395d89b41116100b8578063d082e3811161007c578063d082e38114610387578063e985e9c5146103a5578063ec18bf7f146103d5578063ed1d53c914610405578063f2fde38b14610435578063fc3635871461045157610142565b806395d89b41146102d1578063a22cb465146102ef578063ac22558d1461030b578063b88d4fde1461033b578063c87b56dd1461035757610142565b806323b872dd1161010a57806323b872dd1461021157806342842e0e1461022d5780636352211e1461024957806370a0823114610279578063715018a6146102a95780638da5cb5b146102b357610142565b806301ffc9a71461014757806306fdde0314610177578063081812fc14610195578063095ea7b3146101c55780631b04c4e7146101e1575b600080fd5b610161600480360381019061015c9190612850565b610481565b60405161016e9190612f4d565b60405180910390f35b61017f610563565b60405161018c9190612f68565b60405180910390f35b6101af60048036038101906101aa919061298a565b6105f5565b6040516101bc9190612ebd565b60405180910390f35b6101df60048036038101906101da91906127e3565b61067a565b005b6101fb60048036038101906101f6919061274c565b610792565b6040516102089190612f4d565b60405180910390f35b61022b60048036038101906102269190612636565b6108e8565b005b61024760048036038101906102429190612636565b610948565b005b610263600480360381019061025e919061298a565b610968565b6040516102709190612ebd565b60405180910390f35b610293600480360381019061028e91906125c9565b610a1a565b6040516102a0919061320a565b60405180910390f35b6102b1610ad2565b005b6102bb610b5a565b6040516102c89190612ebd565b60405180910390f35b6102d9610b84565b6040516102e69190612f68565b60405180910390f35b6103096004803603810190610304919061270c565b610c16565b005b610325600480360381019061032091906128f3565b610c2c565b6040516103329190612f4d565b60405180910390f35b61035560048036038101906103509190612689565b610fe2565b005b610371600480360381019061036c919061298a565b611044565b60405161037e9190612f68565b60405180910390f35b61038f6110eb565b60405161039c919061320a565b60405180910390f35b6103bf60048036038101906103ba91906125f6565b6110f1565b6040516103cc9190612f4d565b60405180910390f35b6103ef60048036038101906103ea91906128aa565b611185565b6040516103fc919061320a565b60405180910390f35b61041f600480360381019061041a91906128aa565b611224565b60405161042c9190612f4d565b60405180910390f35b61044f600480360381019061044a91906125c9565b611242565b005b61046b600480360381019061046691906129b7565b61133a565b6040516104789190612f4d565b60405180910390f35b60007f80ac58cd000000000000000000000000000000000000000000000000000000007bffffffffffffffffffffffffffffffffffffffffffffffffffffffff1916827bffffffffffffffffffffffffffffffffffffffffffffffffffffffff1916148061054c57507f5b5e139f000000000000000000000000000000000000000000000000000000007bffffffffffffffffffffffffffffffffffffffffffffffffffffffff1916827bffffffffffffffffffffffffffffffffffffffffffffffffffffffff1916145b8061055c575061055b82611527565b5b9050919050565b60606000805461057290613475565b80601f016020809104026020016040519081016040528092919081815260200182805461059e90613475565b80156105eb5780601f106105c0576101008083540402835291602001916105eb565b820191906000526020600020905b8154815290600101906020018083116105ce57829003601f168201915b5050505050905090565b600061060082611591565b61063f576040517f08c379a00000000000000000000000000000000000000000000000000000000081526004016106369061312a565b60405180910390fd5b6004600083815260200190815260200160002060009054906101000a900473ffffffffffffffffffffffffffffffffffffffff169050919050565b600061068582610968565b90508073ffffffffffffffffffffffffffffffffffffffff168373ffffffffffffffffffffffffffffffffffffffff1614156106f6576040517f08c379a00000000000000000000000000000000000000000000000000000000081526004016106ed906131ca565b60405180910390fd5b8073ffffffffffffffffffffffffffffffffffffffff166107156115fd565b73ffffffffffffffffffffffffffffffffffffffff16148061074457506107438161073e6115fd565b6110f1565b5b610783576040517f08c379a000000000000000000000000000000000000000000000000000000000815260040161077a906130aa565b60405180910390fd5b61078d8383611605565b505050565b6000808390508073ffffffffffffffffffffffffffffffffffffffff166392422f7933876040518363ffffffff1660e01b81526004016107d3929190612f24565b602060405180830381600087803b1580156107ed57600080fd5b505af1158015610801573d6000803e3d6000fd5b505050506040513d601f19601f820116820180604052508101906108259190612823565b610864576040517f08c379a000000000000000000000000000000000000000000000000000000000815260040161085b9061308a565b60405180910390fd5b600061086f87611185565b905061087b33826116be565b6108ba576040517f08c379a00000000000000000000000000000000000000000000000000000000081526004016108b1906131ea565b60405180910390fd5b6108dd6108c682610968565b89836040518060200160405280600081525061179c565b505095945050505050565b6108f96108f36115fd565b826116be565b610938576040517f08c379a000000000000000000000000000000000000000000000000000000000815260040161092f906131ea565b60405180910390fd5b6109438383836117f8565b505050565b61096383838360405180602001604052806000815250610fe2565b505050565b6000806002600084815260200190815260200160002060009054906101000a900473ffffffffffffffffffffffffffffffffffffffff169050600073ffffffffffffffffffffffffffffffffffffffff168173ffffffffffffffffffffffffffffffffffffffff161415610a11576040517f08c379a0000000000000000000000000000000000000000000000000000000008152600401610a08906130ea565b60405180910390fd5b80915050919050565b60008073ffffffffffffffffffffffffffffffffffffffff168273ffffffffffffffffffffffffffffffffffffffff161415610a8b576040517f08c379a0000000000000000000000000000000000000000000000000000000008152600401610a82906130ca565b60405180910390fd5b600360008373ffffffffffffffffffffffffffffffffffffffff1673ffffffffffffffffffffffffffffffffffffffff168152602001908152602001600020549050919050565b610ada6115fd565b73ffffffffffffffffffffffffffffffffffffffff16610af8610b5a565b73ffffffffffffffffffffffffffffffffffffffff1614610b4e576040517f08c379a0000000000000000000000000000000000000000000000000000000008152600401610b459061316a565b60405180910390fd5b610b586000611a5f565b565b6000600660009054906101000a900473ffffffffffffffffffffffffffffffffffffffff16905090565b606060018054610b9390613475565b80601f0160208091040260200160405190810160405280929190818152602001828054610bbf90613475565b8015610c0c5780601f10610be157610100808354040283529160200191610c0c565b820191906000526020600020905b815481529060010190602001808311610bef57829003601f168201915b5050505050905090565b610c28610c216115fd565b8383611b25565b5050565b60008084905060008490506000841480610c465750600184145b610c85576040517f08c379a0000000000000000000000000000000000000000000000000000000008152600401610c7c9061300a565b60405180910390fd5b6000841415610dcc578173ffffffffffffffffffffffffffffffffffffffff166392422f7933896040518363ffffffff1660e01b8152600401610cc9929190612f24565b602060405180830381600087803b158015610ce357600080fd5b505af1158015610cf7573d6000803e3d6000fd5b505050506040513d601f19601f82011682018060405250810190610d1b9190612823565b610d5a576040517f08c379a0000000000000000000000000000000000000000000000000000000008152600401610d519061308a565b60405180910390fd5b8173ffffffffffffffffffffffffffffffffffffffff1663dc951e1633896040518363ffffffff1660e01b8152600401610d95929190612f24565b600060405180830381600087803b158015610daf57600080fd5b505af1158015610dc3573d6000803e3d6000fd5b50505050610f4f565b6001841415610f13578073ffffffffffffffffffffffffffffffffffffffff1663540e78f933896040518363ffffffff1660e01b8152600401610e10929190612f24565b602060405180830381600087803b158015610e2a57600080fd5b505af1158015610e3e573d6000803e3d6000fd5b505050506040513d601f19601f82011682018060405250810190610e629190612823565b610ea1576040517f08c379a0000000000000000000000000000000000000000000000000000000008152600401610e98906131aa565b60405180910390fd5b8073ffffffffffffffffffffffffffffffffffffffff1663b4e809e133896040518363ffffffff1660e01b8152600401610edc929190612f24565b600060405180830381600087803b158015610ef657600080fd5b505af1158015610f0a573d6000803e3d6000fd5b50505050610f4e565b6040517f08c379a0000000000000000000000000000000000000000000000000000000008152600401610f459061300a565b60405180910390fd5b5b610f656001600854611c9290919063ffffffff16565b6008819055503373ffffffffffffffffffffffffffffffffffffffff167fb9144c96c86541f6fa89c9f2f02495cccf4b08cd6643e26d34ee00aa586558a8600854604051610fb3919061320a565b60405180910390a2610fc733600854611ca8565b610fd360085489611cc6565b60019250505095945050505050565b610ff3610fed6115fd565b836116be565b611032576040517f08c379a0000000000000000000000000000000000000000000000000000000008152600401611029906131ea565b60405180910390fd5b61103e8484848461179c565b50505050565b606061104f82611591565b61108e576040517f08c379a00000000000000000000000000000000000000000000000000000000081526004016110859061318a565b60405180910390fd5b6000611098611d3a565b905060008151116110b857604051806020016040528060008152506110e3565b806110c284611d51565b6040516020016110d3929190612e82565b6040516020818303038152906040525b915050919050565b60085481565b6000600560008473ffffffffffffffffffffffffffffffffffffffff1673ffffffffffffffffffffffffffffffffffffffff16815260200190815260200160002060008373ffffffffffffffffffffffffffffffffffffffff1673ffffffffffffffffffffffffffffffffffffffff16815260200190815260200160002060009054906101000a900460ff16905092915050565b600080600090505b60085481101561121957826040516020016111a89190612e6b565b60405160208183030381529060405280519060200120600760008381526020019081526020016000206040516020016111e19190612ea6565b604051602081830303815290604052805190602001201415611206578091505061121f565b8080611211906134d8565b91505061118d565b50600090505b919050565b60008061123083611185565b905061123c338261067a565b50919050565b61124a6115fd565b73ffffffffffffffffffffffffffffffffffffffff16611268610b5a565b73ffffffffffffffffffffffffffffffffffffffff16146112be576040517f08c379a00000000000000000000000000000000000000000000000000000000081526004016112b59061316a565b60405180910390fd5b600073ffffffffffffffffffffffffffffffffffffffff168173ffffffffffffffffffffffffffffffffffffffff16141561132e576040517f08c379a000000000000000000000000000000000000000000000000000000000815260040161132590612faa565b60405180910390fd5b61133781611a5f565b50565b6000808290508073ffffffffffffffffffffffffffffffffffffffff166392422f7933866040518363ffffffff1660e01b815260040161137b929190612f24565b602060405180830381600087803b15801561139557600080fd5b505af11580156113a9573d6000803e3d6000fd5b505050506040513d601f19601f820116820180604052508101906113cd9190612823565b61140c576040517f08c379a00000000000000000000000000000000000000000000000000000000081526004016114039061308a565b60405180910390fd5b8073ffffffffffffffffffffffffffffffffffffffff1663dc951e1633866040518363ffffffff1660e01b8152600401611447929190612f24565b600060405180830381600087803b15801561146157600080fd5b505af1158015611475573d6000803e3d6000fd5b5050505061148288611eb2565b61148b87611eb2565b61149486611eb2565b6114aa6001600854611c9290919063ffffffff16565b6008819055503373ffffffffffffffffffffffffffffffffffffffff167fb9144c96c86541f6fa89c9f2f02495cccf4b08cd6643e26d34ee00aa586558a86008546040516114f8919061320a565b60405180910390a261150c33600854611ca8565b61151860085486611cc6565b60019150509695505050505050565b60007f01ffc9a7000000000000000000000000000000000000000000000000000000007bffffffffffffffffffffffffffffffffffffffffffffffffffffffff1916827bffffffffffffffffffffffffffffffffffffffffffffffffffffffff1916149050919050565b60008073ffffffffffffffffffffffffffffffffffffffff166002600084815260200190815260200160002060009054906101000a900473ffffffffffffffffffffffffffffffffffffffff1673ffffffffffffffffffffffffffffffffffffffff1614159050919050565b600033905090565b816004600083815260200190815260200160002060006101000a81548173ffffffffffffffffffffffffffffffffffffffff021916908373ffffffffffffffffffffffffffffffffffffffff160217905550808273ffffffffffffffffffffffffffffffffffffffff1661167883610968565b73ffffffffffffffffffffffffffffffffffffffff167f8c5be1e5ebec7d5bd14f71427d1e84f3dd0314c0f7b2291e5b200ac8c7c3b92560405160405180910390a45050565b60006116c982611591565b611708576040517f08c379a00000000000000000000000000000000000000000000000000000000081526004016116ff9061306a565b60405180910390fd5b600061171383610968565b90508073ffffffffffffffffffffffffffffffffffffffff168473ffffffffffffffffffffffffffffffffffffffff161480611755575061175481856110f1565b5b8061179357508373ffffffffffffffffffffffffffffffffffffffff1661177b846105f5565b73ffffffffffffffffffffffffffffffffffffffff16145b91505092915050565b6117a78484846117f8565b6117b384848484611fcf565b6117f2576040517f08c379a00000000000000000000000000000000000000000000000000000000081526004016117e990612f8a565b60405180910390fd5b50505050565b8273ffffffffffffffffffffffffffffffffffffffff1661181882610968565b73ffffffffffffffffffffffffffffffffffffffff161461186e576040517f08c379a000000000000000000000000000000000000000000000000000000000815260040161186590612fca565b60405180910390fd5b600073ffffffffffffffffffffffffffffffffffffffff168273ffffffffffffffffffffffffffffffffffffffff1614156118de576040517f08c379a00000000000000000000000000000000000000000000000000000000081526004016118d59061302a565b60405180910390fd5b6118e9838383612166565b6118f4600082611605565b6001600360008573ffffffffffffffffffffffffffffffffffffffff1673ffffffffffffffffffffffffffffffffffffffff1681526020019081526020016000206000828254611944919061338b565b925050819055506001600360008473ffffffffffffffffffffffffffffffffffffffff1673ffffffffffffffffffffffffffffffffffffffff168152602001908152602001600020600082825461199b9190613304565b92505081905550816002600083815260200190815260200160002060006101000a81548173ffffffffffffffffffffffffffffffffffffffff021916908373ffffffffffffffffffffffffffffffffffffffff160217905550808273ffffffffffffffffffffffffffffffffffffffff168473ffffffffffffffffffffffffffffffffffffffff167fddf252ad1be2c89b69c2b068fc378daa952ba7f163c4a11628f55a4df523b3ef60405160405180910390a4611a5a83838361216b565b505050565b6000600660009054906101000a900473ffffffffffffffffffffffffffffffffffffffff16905081600660006101000a81548173ffffffffffffffffffffffffffffffffffffffff021916908373ffffffffffffffffffffffffffffffffffffffff1602179055508173ffffffffffffffffffffffffffffffffffffffff168173ffffffffffffffffffffffffffffffffffffffff167f8be0079c531659141344cd1fd0a4f28419497f9722a3daafe3b4186f6b6457e060405160405180910390a35050565b8173ffffffffffffffffffffffffffffffffffffffff168373ffffffffffffffffffffffffffffffffffffffff161415611b94576040517f08c379a0000000000000000000000000000000000000000000000000000000008152600401611b8b9061304a565b60405180910390fd5b80600560008573ffffffffffffffffffffffffffffffffffffffff1673ffffffffffffffffffffffffffffffffffffffff16815260200190815260200160002060008473ffffffffffffffffffffffffffffffffffffffff1673ffffffffffffffffffffffffffffffffffffffff16815260200190815260200160002060006101000a81548160ff0219169083151502179055508173ffffffffffffffffffffffffffffffffffffffff168373ffffffffffffffffffffffffffffffffffffffff167f17307eab39ab6107e8899845ad3d59bd9653f200f220920489ca2b5937696c3183604051611c859190612f4d565b60405180910390a3505050565b60008183611ca09190613304565b905092915050565b611cc2828260405180602001604052806000815250612170565b5050565b611ccf82611591565b611d0e576040517f08c379a0000000000000000000000000000000000000000000000000000000008152600401611d059061314a565b60405180910390fd5b80600760008481526020019081526020016000209080519060200190611d359291906123c8565b505050565b606060405180602001604052806000815250905090565b60606000821415611d99576040518060400160405280600181526020017f30000000000000000000000000000000000000000000000000000000000000008152509050611ead565b600082905060005b60008214611dcb578080611db4906134d8565b915050600a82611dc4919061335a565b9150611da1565b60008167ffffffffffffffff811115611de757611de661360e565b5b6040519080825280601f01601f191660200182016040528015611e195781602001600182028036833780820191505090505b5090505b60008514611ea657600182611e32919061338b565b9150600a85611e419190613521565b6030611e4d9190613304565b60f81b818381518110611e6357611e626135df565b5b60200101907effffffffffffffffffffffffffffffffffffffffffffffffffffffffffffff1916908160001a905350600a85611e9f919061335a565b9450611e1d565b8093505050505b919050565b6000611ebd82610968565b9050611ecb81600084612166565b611ed6600083611605565b6001600360008373ffffffffffffffffffffffffffffffffffffffff1673ffffffffffffffffffffffffffffffffffffffff1681526020019081526020016000206000828254611f26919061338b565b925050819055506002600083815260200190815260200160002060006101000a81549073ffffffffffffffffffffffffffffffffffffffff021916905581600073ffffffffffffffffffffffffffffffffffffffff168273ffffffffffffffffffffffffffffffffffffffff167fddf252ad1be2c89b69c2b068fc378daa952ba7f163c4a11628f55a4df523b3ef60405160405180910390a4611fcb8160008461216b565b5050565b6000611ff08473ffffffffffffffffffffffffffffffffffffffff166121cb565b15612159578373ffffffffffffffffffffffffffffffffffffffff1663150b7a026120196115fd565b8786866040518563ffffffff1660e01b815260040161203b9493929190612ed8565b602060405180830381600087803b15801561205557600080fd5b505af192505050801561208657506040513d601f19601f82011682018060405250810190612083919061287d565b60015b612109573d80600081146120b6576040519150601f19603f3d011682016040523d82523d6000602084013e6120bb565b606091505b50600081511415612101576040517f08c379a00000000000000000000000000000000000000000000000000000000081526004016120f890612f8a565b60405180910390fd5b805181602001fd5b63150b7a0260e01b7bffffffffffffffffffffffffffffffffffffffffffffffffffffffff1916817bffffffffffffffffffffffffffffffffffffffffffffffffffffffff19161491505061215e565b600190505b949350505050565b505050565b505050565b61217a83836121ee565b6121876000848484611fcf565b6121c6576040517f08c379a00000000000000000000000000000000000000000000000000000000081526004016121bd90612f8a565b60405180910390fd5b505050565b6000808273ffffffffffffffffffffffffffffffffffffffff163b119050919050565b600073ffffffffffffffffffffffffffffffffffffffff168273ffffffffffffffffffffffffffffffffffffffff16141561225e576040517f08c379a00000000000000000000000000000000000000000000000000000000081526004016122559061310a565b60405180910390fd5b61226781611591565b156122a7576040517f08c379a000000000000000000000000000000000000000000000000000000000815260040161229e90612fea565b60405180910390fd5b6122b360008383612166565b6001600360008473ffffffffffffffffffffffffffffffffffffffff1673ffffffffffffffffffffffffffffffffffffffff16815260200190815260200160002060008282546123039190613304565b92505081905550816002600083815260200190815260200160002060006101000a81548173ffffffffffffffffffffffffffffffffffffffff021916908373ffffffffffffffffffffffffffffffffffffffff160217905550808273ffffffffffffffffffffffffffffffffffffffff16600073ffffffffffffffffffffffffffffffffffffffff167fddf252ad1be2c89b69c2b068fc378daa952ba7f163c4a11628f55a4df523b3ef60405160405180910390a46123c46000838361216b565b5050565b8280546123d490613475565b90600052602060002090601f0160209004810192826123f6576000855561243d565b82601f1061240f57805160ff191683800117855561243d565b8280016001018555821561243d579182015b8281111561243c578251825591602001919060010190612421565b5b50905061244a919061244e565b5090565b5b8082111561246757600081600090555060010161244f565b5090565b600061247e6124798461324a565b613225565b90508281526020810184848401111561249a57612499613642565b5b6124a5848285613433565b509392505050565b60006124c06124bb8461327b565b613225565b9050828152602081018484840111156124dc576124db613642565b5b6124e7848285613433565b509392505050565b6000813590506124fe81613b84565b92915050565b60008135905061251381613b9b565b92915050565b60008151905061252881613b9b565b92915050565b60008135905061253d81613bb2565b92915050565b60008151905061255281613bb2565b92915050565b600082601f83011261256d5761256c61363d565b5b813561257d84826020860161246b565b91505092915050565b600082601f83011261259b5761259a61363d565b5b81356125ab8482602086016124ad565b91505092915050565b6000813590506125c381613bc9565b92915050565b6000602082840312156125df576125de61364c565b5b60006125ed848285016124ef565b91505092915050565b6000806040838503121561260d5761260c61364c565b5b600061261b858286016124ef565b925050602061262c858286016124ef565b9150509250929050565b60008060006060848603121561264f5761264e61364c565b5b600061265d868287016124ef565b935050602061266e868287016124ef565b925050604061267f868287016125b4565b9150509250925092565b600080600080608085870312156126a3576126a261364c565b5b60006126b1878288016124ef565b94505060206126c2878288016124ef565b93505060406126d3878288016125b4565b925050606085013567ffffffffffffffff8111156126f4576126f3613647565b5b61270087828801612558565b91505092959194509250565b600080604083850312156127235761272261364c565b5b6000612731858286016124ef565b925050602061274285828601612504565b9150509250929050565b600080600080600060a086880312156127685761276761364c565b5b6000612776888289016124ef565b955050602086013567ffffffffffffffff81111561279757612796613647565b5b6127a388828901612586565b94505060406127b4888289016125b4565b93505060606127c5888289016124ef565b92505060806127d6888289016124ef565b9150509295509295909350565b600080604083850312156127fa576127f961364c565b5b6000612808858286016124ef565b9250506020612819858286016125b4565b9150509250929050565b6000602082840312156128395761283861364c565b5b600061284784828501612519565b91505092915050565b6000602082840312156128665761286561364c565b5b60006128748482850161252e565b91505092915050565b6000602082840312156128935761289261364c565b5b60006128a184828501612543565b91505092915050565b6000602082840312156128c0576128bf61364c565b5b600082013567ffffffffffffffff8111156128de576128dd613647565b5b6128ea84828501612586565b91505092915050565b600080600080600060a0868803121561290f5761290e61364c565b5b600086013567ffffffffffffffff81111561292d5761292c613647565b5b61293988828901612586565b955050602061294a888289016125b4565b945050604061295b888289016124ef565b935050606061296c888289016124ef565b925050608061297d888289016125b4565b9150509295509295909350565b6000602082840312156129a05761299f61364c565b5b60006129ae848285016125b4565b91505092915050565b60008060008060008060c087890312156129d4576129d361364c565b5b60006129e289828a016125b4565b96505060206129f389828a016125b4565b9550506040612a0489828a016125b4565b945050606087013567ffffffffffffffff811115612a2557612a24613647565b5b612a3189828a01612586565b9350506080612a4289828a016125b4565b92505060a0612a5389828a016124ef565b9150509295509295509295565b612a69816133bf565b82525050565b612a78816133d1565b82525050565b6000612a89826132c1565b612a9381856132d7565b9350612aa3818560208601613442565b612aac81613651565b840191505092915050565b6000612ac2826132cc565b612acc81856132e8565b9350612adc818560208601613442565b612ae581613651565b840191505092915050565b6000612afb826132cc565b612b0581856132f9565b9350612b15818560208601613442565b80840191505092915050565b60008154612b2e81613475565b612b3881866132f9565b94506001821660008114612b535760018114612b6457612b97565b60ff19831686528186019350612b97565b612b6d856132ac565b60005b83811015612b8f57815481890152600182019150602081019050612b70565b838801955050505b50505092915050565b6000612bad6032836132e8565b9150612bb882613662565b604082019050919050565b6000612bd06026836132e8565b9150612bdb826136b1565b604082019050919050565b6000612bf36025836132e8565b9150612bfe82613700565b604082019050919050565b6000612c16601c836132e8565b9150612c218261374f565b602082019050919050565b6000612c396012836132e8565b9150612c4482613778565b602082019050919050565b6000612c5c6024836132e8565b9150612c67826137a1565b604082019050919050565b6000612c7f6019836132e8565b9150612c8a826137f0565b602082019050919050565b6000612ca2602c836132e8565b9150612cad82613819565b604082019050919050565b6000612cc56019836132e8565b9150612cd082613868565b602082019050919050565b6000612ce86038836132e8565b9150612cf382613891565b604082019050919050565b6000612d0b602a836132e8565b9150612d16826138e0565b604082019050919050565b6000612d2e6029836132e8565b9150612d398261392f565b604082019050919050565b6000612d516020836132e8565b9150612d5c8261397e565b602082019050919050565b6000612d74602c836132e8565b9150612d7f826139a7565b604082019050919050565b6000612d97602c836132e8565b9150612da2826139f6565b604082019050919050565b6000612dba6020836132e8565b9150612dc582613a45565b602082019050919050565b6000612ddd602f836132e8565b9150612de882613a6e565b604082019050919050565b6000612e00601a836132e8565b9150612e0b82613abd565b602082019050919050565b6000612e236021836132e8565b9150612e2e82613ae6565b604082019050919050565b6000612e466031836132e8565b9150612e5182613b35565b604082019050919050565b612e6581613429565b82525050565b6000612e778284612af0565b915081905092915050565b6000612e8e8285612af0565b9150612e9a8284612af0565b91508190509392505050565b6000612eb28284612b21565b915081905092915050565b6000602082019050612ed26000830184612a60565b92915050565b6000608082019050612eed6000830187612a60565b612efa6020830186612a60565b612f076040830185612e5c565b8181036060830152612f198184612a7e565b905095945050505050565b6000604082019050612f396000830185612a60565b612f466020830184612e5c565b9392505050565b6000602082019050612f626000830184612a6f565b92915050565b60006020820190508181036000830152612f828184612ab7565b905092915050565b60006020820190508181036000830152612fa381612ba0565b9050919050565b60006020820190508181036000830152612fc381612bc3565b9050919050565b60006020820190508181036000830152612fe381612be6565b9050919050565b6000602082019050818103600083015261300381612c09565b9050919050565b6000602082019050818103600083015261302381612c2c565b9050919050565b6000602082019050818103600083015261304381612c4f565b9050919050565b6000602082019050818103600083015261306381612c72565b9050919050565b6000602082019050818103600083015261308381612c95565b9050919050565b600060208201905081810360008301526130a381612cb8565b9050919050565b600060208201905081810360008301526130c381612cdb565b9050919050565b600060208201905081810360008301526130e381612cfe565b9050919050565b6000602082019050818103600083015261310381612d21565b9050919050565b6000602082019050818103600083015261312381612d44565b9050919050565b6000602082019050818103600083015261314381612d67565b9050919050565b6000602082019050818103600083015261316381612d8a565b9050919050565b6000602082019050818103600083015261318381612dad565b9050919050565b600060208201905081810360008301526131a381612dd0565b9050919050565b600060208201905081810360008301526131c381612df3565b9050919050565b600060208201905081810360008301526131e381612e16565b9050919050565b6000602082019050818103600083015261320381612e39565b9050919050565b600060208201905061321f6000830184612e5c565b92915050565b600061322f613240565b905061323b82826134a7565b919050565b6000604051905090565b600067ffffffffffffffff8211156132655761326461360e565b5b61326e82613651565b9050602081019050919050565b600067ffffffffffffffff8211156132965761329561360e565b5b61329f82613651565b9050602081019050919050565b60008190508160005260206000209050919050565b600081519050919050565b600081519050919050565b600082825260208201905092915050565b600082825260208201905092915050565b600081905092915050565b600061330f82613429565b915061331a83613429565b9250827fffffffffffffffffffffffffffffffffffffffffffffffffffffffffffffffff0382111561334f5761334e613552565b5b828201905092915050565b600061336582613429565b915061337083613429565b9250826133805761337f613581565b5b828204905092915050565b600061339682613429565b91506133a183613429565b9250828210156133b4576133b3613552565b5b828203905092915050565b60006133ca82613409565b9050919050565b60008115159050919050565b60007fffffffff0000000000000000000000000000000000000000000000000000000082169050919050565b600073ffffffffffffffffffffffffffffffffffffffff82169050919050565b6000819050919050565b82818337600083830152505050565b60005b83811015613460578082015181840152602081019050613445565b8381111561346f576000848401525b50505050565b6000600282049050600182168061348d57607f821691505b602082108114156134a1576134a06135b0565b5b50919050565b6134b082613651565b810181811067ffffffffffffffff821117156134cf576134ce61360e565b5b80604052505050565b60006134e382613429565b91507fffffffffffffffffffffffffffffffffffffffffffffffffffffffffffffffff82141561351657613515613552565b5b600182019050919050565b600061352c82613429565b915061353783613429565b92508261354757613546613581565b5b828206905092915050565b7f4e487b7100000000000000000000000000000000000000000000000000000000600052601160045260246000fd5b7f4e487b7100000000000000000000000000000000000000000000000000000000600052601260045260246000fd5b7f4e487b7100000000000000000000000000000000000000000000000000000000600052602260045260246000fd5b7f4e487b7100000000000000000000000000000000000000000000000000000000600052603260045260246000fd5b7f4e487b7100000000000000000000000000000000000000000000000000000000600052604160045260246000fd5b600080fd5b600080fd5b600080fd5b600080fd5b6000601f19601f8301169050919050565b7f4552433732313a207472616e7366657220746f206e6f6e20455243373231526560008201527f63656976657220696d706c656d656e7465720000000000000000000000000000602082015250565b7f4f776e61626c653a206e6577206f776e657220697320746865207a65726f206160008201527f6464726573730000000000000000000000000000000000000000000000000000602082015250565b7f4552433732313a207472616e736665722066726f6d20696e636f72726563742060008201527f6f776e6572000000000000000000000000000000000000000000000000000000602082015250565b7f4552433732313a20746f6b656e20616c7265616479206d696e74656400000000600082015250565b7f496e76616c696420746f6b656e20747970650000000000000000000000000000600082015250565b7f4552433732313a207472616e7366657220746f20746865207a65726f2061646460008201527f7265737300000000000000000000000000000000000000000000000000000000602082015250565b7f4552433732313a20617070726f766520746f2063616c6c657200000000000000600082015250565b7f4552433732313a206f70657261746f7220717565727920666f72206e6f6e657860008201527f697374656e7420746f6b656e0000000000000000000000000000000000000000602082015250565b7f496e73756666696369656e7420455454522062616c616e636500000000000000600082015250565b7f4552433732313a20617070726f76652063616c6c6572206973206e6f74206f7760008201527f6e6572206e6f7220617070726f76656420666f7220616c6c0000000000000000602082015250565b7f4552433732313a2062616c616e636520717565727920666f7220746865207a6560008201527f726f206164647265737300000000000000000000000000000000000000000000602082015250565b7f4552433732313a206f776e657220717565727920666f72206e6f6e657869737460008201527f656e7420746f6b656e0000000000000000000000000000000000000000000000602082015250565b7f4552433732313a206d696e7420746f20746865207a65726f2061646472657373600082015250565b7f4552433732313a20617070726f76656420717565727920666f72206e6f6e657860008201527f697374656e7420746f6b656e0000000000000000000000000000000000000000602082015250565b7f4552433732314d657461646174613a2055524920736574206f66206e6f6e657860008201527f697374656e7420746f6b656e0000000000000000000000000000000000000000602082015250565b7f4f776e61626c653a2063616c6c6572206973206e6f7420746865206f776e6572600082015250565b7f4552433732314d657461646174613a2055524920717565727920666f72206e6f60008201527f6e6578697374656e7420746f6b656e0000000000000000000000000000000000602082015250565b7f496e73756666696369656e742073555344432062616c616e6365000000000000600082015250565b7f4552433732313a20617070726f76616c20746f2063757272656e74206f776e6560008201527f7200000000000000000000000000000000000000000000000000000000000000602082015250565b7f4552433732313a207472616e736665722063616c6c6572206973206e6f74206f60008201527f776e6572206e6f7220617070726f766564000000000000000000000000000000602082015250565b613b8d816133bf565b8114613b9857600080fd5b50565b613ba4816133d1565b8114613baf57600080fd5b50565b613bbb816133dd565b8114613bc657600080fd5b50565b613bd281613429565b8114613bdd57600080fd5b5056fea26469706673582212205deb8a257ee579db73a40ebac1089d3067e37752632261229a3c560c346b18cc64736f6c63430008050033",
  "immutableReferences": {},
  "source": "pragma solidity ^0.8.5;\n\nimport \"@openzeppelin/contracts/utils/math/SafeMath.sol\";\nimport '@openzeppelin/contracts/token/ERC721/ERC721.sol';\nimport \"@openzeppelin/contracts/access/Ownable.sol\";\n\nimport './Ettr.sol';\nimport './SUSDC.sol';\n\ncontract CLTRNFT is ERC721, Ownable{\n    using SafeMath for uint256;\n\n    // Optional mapping for token URIs\n    mapping (uint256 => string) private _tokenURIs;\n\n    uint256 public tokenCounter;\n    constructor() ERC721(\"Cletter NFT\", \"CLTRNFT\") public {\n        tokenCounter = 0;\n    }\n\n    function _setTokenURI(uint256 tokenId, string memory _tokenURI) internal virtual {\n        require(_exists(tokenId), \"ERC721Metadata: URI set of nonexistent token\");\n        _tokenURIs[tokenId] = _tokenURI;\n    }\n\n    function _findTokenURI(string memory _tokenURI) public returns(uint256 index){\n        for(uint i = 0; i < tokenCounter; i++){\n            if (keccak256(abi.encodePacked(_tokenURIs[i])) == keccak256(abi.encodePacked(_tokenURI))){\n                return i;\n            }\n        }\n        return 0;\n    }\n\n    event TokenMinted(address indexed owner, uint256 tokenId);\n    function cltrnft_mint(string memory _tokenURI, uint256 _amount, address _ettr_contract, address _susdc_contract, uint256 _type) public returns (bool) {\n        Ettr E = Ettr(_ettr_contract);\n        SUSDC S = SUSDC(_susdc_contract);\n\n        require(_type == 0 || _type == 1, \"Invalid token type\");\n\n        if (_type == 0) {\n            require(E.get_ettr_balance_subtract(msg.sender, _amount), \"Insufficient ETTR balance\");\n            E.ettr_burn(msg.sender, _amount);\n        } else if (_type == 1) {\n            require(S.get_susdc_balance_subtract(msg.sender, _amount), \"Insufficient sUSDC balance\");\n            S.susdc_burn(msg.sender, _amount);\n        } else {\n            revert(\"Invalid token type\");\n        }\n\n        tokenCounter = tokenCounter.add(1);\n        emit TokenMinted(msg.sender, tokenCounter);\n        _safeMint(msg.sender, tokenCounter);\n        _setTokenURI(tokenCounter, _tokenURI);\n\n        return true;\n    }\n\n    function cltrnft_market_buy(address owner, string memory _tokenURI, uint256 _amount, address _ettr_contract, address _susdc_contract) public returns(bool) {\n        Ettr E = Ettr(_ettr_contract);\n        require(E.get_ettr_balance_subtract(msg.sender, _amount), \"Insufficient ETTR balance\");\n        uint tokenId = _findTokenURI((_tokenURI));\n        require(_isApprovedOrOwner(msg.sender, tokenId), \"ERC721: transfer caller is not owner nor approved\");\n        _safeTransfer(ownerOf(tokenId), owner, tokenId, \"\");\n        // Ettr E = Ettr(_ettr_contract);\n        // if (E.get_ettr_balance_subtract(msg.sender, _amount) == true){\n        //     E.ettr_burn(msg.sender, _amount);\n\n        //     E.external_ettr_mint(owner, _amount);\n\n        //     _safeMint(msg.sender, tokenCounter);\n        //     _setTokenURI(tokenCounter, _tokenURI);\n        //     tokenCounter = tokenCounter + 1;\n        //     return true;\n        // }\n        // else {\n        //     return false;\n        // }\n    }\n\n    function cltrnft_market_sell(string memory _tokenURI) public returns(bool) {\n        uint tokenId = _findTokenURI((_tokenURI));\n        approve(msg.sender, tokenId);\n    }\n\n    function cltrnft_forge(uint _tokenId_1, uint _tokenId_2, uint _tokenId_3, string memory _tokenURI, uint256 _amount, address _ettr_contract) public returns(bool) {\n        Ettr E = Ettr(_ettr_contract);\n        require(E.get_ettr_balance_subtract(msg.sender, _amount), \"Insufficient ETTR balance\");\n        E.ettr_burn(msg.sender, _amount);\n\n        _burn(_tokenId_1);\n        _burn(_tokenId_2);\n        _burn(_tokenId_3);\n\n        tokenCounter = tokenCounter.add(1);\n        emit TokenMinted(msg.sender, tokenCounter);\n        _safeMint(msg.sender, tokenCounter);\n        _setTokenURI(tokenCounter, _tokenURI);\n        return true;\n    }\n}\n",
  "sourcePath": "/Users/chrismanueltrajano/Documents/Github/clettr/clettr-backend/blockchain/contracts/CLTRNFT.sol",
  "compiler": {
    "name": "solc",
    "version": "0.8.5+commit.a4f2e591.Emscripten.clang"
  },
  "schemaVersion": "3.4.16",
  "updatedAt": "2024-01-21T13:17:13.954Z",
  "networkType": "ethereum",
  "devdoc": {
    "kind": "dev",
    "methods": {
      "approve(address,uint256)": {
        "details": "See {IERC721-approve}."
      },
      "balanceOf(address)": {
        "details": "See {IERC721-balanceOf}."
      },
      "getApproved(uint256)": {
        "details": "See {IERC721-getApproved}."
      },
      "isApprovedForAll(address,address)": {
        "details": "See {IERC721-isApprovedForAll}."
      },
      "name()": {
        "details": "See {IERC721Metadata-name}."
      },
      "owner()": {
        "details": "Returns the address of the current owner."
      },
      "ownerOf(uint256)": {
        "details": "See {IERC721-ownerOf}."
      },
      "renounceOwnership()": {
        "details": "Leaves the contract without owner. It will not be possible to call `onlyOwner` functions anymore. Can only be called by the current owner. NOTE: Renouncing ownership will leave the contract without an owner, thereby removing any functionality that is only available to the owner."
      },
      "safeTransferFrom(address,address,uint256)": {
        "details": "See {IERC721-safeTransferFrom}."
      },
      "safeTransferFrom(address,address,uint256,bytes)": {
        "details": "See {IERC721-safeTransferFrom}."
      },
      "setApprovalForAll(address,bool)": {
        "details": "See {IERC721-setApprovalForAll}."
      },
      "supportsInterface(bytes4)": {
        "details": "See {IERC165-supportsInterface}."
      },
      "symbol()": {
        "details": "See {IERC721Metadata-symbol}."
      },
      "tokenURI(uint256)": {
        "details": "See {IERC721Metadata-tokenURI}."
      },
      "transferFrom(address,address,uint256)": {
        "details": "See {IERC721-transferFrom}."
      },
      "transferOwnership(address)": {
        "details": "Transfers ownership of the contract to a new account (`newOwner`). Can only be called by the current owner."
      }
    },
    "version": 1
  },
  "userdoc": {
    "kind": "user",
    "methods": {},
    "version": 1
  }
}