{
  "contractName": "CLTRNFT",
  "abi": [
    {
      "inputs": [],
      "stateMutability": "nonpayable",
      "type": "constructor"
    },
    {
      "anonymous": false,
      "inputs": [
        {
          "indexed": true,
          "internalType": "address",
          "name": "owner",
          "type": "address"
        },
        {
          "indexed": true,
          "internalType": "address",
          "name": "approved",
          "type": "address"
        },
        {
          "indexed": true,
          "internalType": "uint256",
          "name": "tokenId",
          "type": "uint256"
        }
      ],
      "name": "Approval",
      "type": "event"
    },
    {
      "anonymous": false,
      "inputs": [
        {
          "indexed": true,
          "internalType": "address",
          "name": "owner",
          "type": "address"
        },
        {
          "indexed": true,
          "internalType": "address",
          "name": "operator",
          "type": "address"
        },
        {
          "indexed": false,
          "internalType": "bool",
          "name": "approved",
          "type": "bool"
        }
      ],
      "name": "ApprovalForAll",
      "type": "event"
    },
    {
      "anonymous": false,
      "inputs": [
        {
          "indexed": true,
          "internalType": "address",
          "name": "previousOwner",
          "type": "address"
        },
        {
          "indexed": true,
          "internalType": "address",
          "name": "newOwner",
          "type": "address"
        }
      ],
      "name": "OwnershipTransferred",
      "type": "event"
    },
    {
      "anonymous": false,
      "inputs": [
        {
          "indexed": true,
          "internalType": "uint256",
          "name": "tokenId",
          "type": "uint256"
        }
      ],
      "name": "SaleApprovalRevoked",
      "type": "event"
    },
    {
      "anonymous": false,
      "inputs": [
        {
          "indexed": true,
          "internalType": "uint256",
          "name": "tokenId",
          "type": "uint256"
        }
      ],
      "name": "SaleApproved",
      "type": "event"
    },
    {
      "anonymous": false,
      "inputs": [
        {
          "indexed": true,
          "internalType": "address",
          "name": "owner",
          "type": "address"
        },
        {
          "indexed": false,
          "internalType": "uint256",
          "name": "tokenId",
          "type": "uint256"
        }
      ],
      "name": "TokenMinted",
      "type": "event"
    },
    {
      "anonymous": false,
      "inputs": [
        {
          "indexed": true,
          "internalType": "address",
          "name": "from",
          "type": "address"
        },
        {
          "indexed": true,
          "internalType": "address",
          "name": "to",
          "type": "address"
        },
        {
          "indexed": true,
          "internalType": "uint256",
          "name": "tokenId",
          "type": "uint256"
        }
      ],
      "name": "Transfer",
      "type": "event"
    },
    {
      "inputs": [
        {
          "internalType": "address",
          "name": "to",
          "type": "address"
        },
        {
          "internalType": "uint256",
          "name": "tokenId",
          "type": "uint256"
        }
      ],
      "name": "approve",
      "outputs": [],
      "stateMutability": "nonpayable",
      "type": "function"
    },
    {
      "inputs": [
        {
          "internalType": "address",
          "name": "owner",
          "type": "address"
        }
      ],
      "name": "balanceOf",
      "outputs": [
        {
          "internalType": "uint256",
          "name": "",
          "type": "uint256"
        }
      ],
      "stateMutability": "view",
      "type": "function",
      "constant": true
    },
    {
      "inputs": [
        {
          "internalType": "uint256",
          "name": "tokenId",
          "type": "uint256"
        }
      ],
      "name": "getApproved",
      "outputs": [
        {
          "internalType": "address",
          "name": "",
          "type": "address"
        }
      ],
      "stateMutability": "view",
      "type": "function",
      "constant": true
    },
    {
      "inputs": [
        {
          "internalType": "address",
          "name": "owner",
          "type": "address"
        },
        {
          "internalType": "address",
          "name": "operator",
          "type": "address"
        }
      ],
      "name": "isApprovedForAll",
      "outputs": [
        {
          "internalType": "bool",
          "name": "",
          "type": "bool"
        }
      ],
      "stateMutability": "view",
      "type": "function",
      "constant": true
    },
    {
      "inputs": [],
      "name": "name",
      "outputs": [
        {
          "internalType": "string",
          "name": "",
          "type": "string"
        }
      ],
      "stateMutability": "view",
      "type": "function",
      "constant": true
    },
    {
      "inputs": [],
      "name": "owner",
      "outputs": [
        {
          "internalType": "address",
          "name": "",
          "type": "address"
        }
      ],
      "stateMutability": "view",
      "type": "function",
      "constant": true
    },
    {
      "inputs": [
        {
          "internalType": "uint256",
          "name": "tokenId",
          "type": "uint256"
        }
      ],
      "name": "ownerOf",
      "outputs": [
        {
          "internalType": "address",
          "name": "",
          "type": "address"
        }
      ],
      "stateMutability": "view",
      "type": "function",
      "constant": true
    },
    {
      "inputs": [],
      "name": "renounceOwnership",
      "outputs": [],
      "stateMutability": "nonpayable",
      "type": "function"
    },
    {
      "inputs": [
        {
          "internalType": "address",
          "name": "from",
          "type": "address"
        },
        {
          "internalType": "address",
          "name": "to",
          "type": "address"
        },
        {
          "internalType": "uint256",
          "name": "tokenId",
          "type": "uint256"
        }
      ],
      "name": "safeTransferFrom",
      "outputs": [],
      "stateMutability": "nonpayable",
      "type": "function"
    },
    {
      "inputs": [
        {
          "internalType": "address",
          "name": "from",
          "type": "address"
        },
        {
          "internalType": "address",
          "name": "to",
          "type": "address"
        },
        {
          "internalType": "uint256",
          "name": "tokenId",
          "type": "uint256"
        },
        {
          "internalType": "bytes",
          "name": "_data",
          "type": "bytes"
        }
      ],
      "name": "safeTransferFrom",
      "outputs": [],
      "stateMutability": "nonpayable",
      "type": "function"
    },
    {
      "inputs": [
        {
          "internalType": "address",
          "name": "operator",
          "type": "address"
        },
        {
          "internalType": "bool",
          "name": "approved",
          "type": "bool"
        }
      ],
      "name": "setApprovalForAll",
      "outputs": [],
      "stateMutability": "nonpayable",
      "type": "function"
    },
    {
      "inputs": [
        {
          "internalType": "bytes4",
          "name": "interfaceId",
          "type": "bytes4"
        }
      ],
      "name": "supportsInterface",
      "outputs": [
        {
          "internalType": "bool",
          "name": "",
          "type": "bool"
        }
      ],
      "stateMutability": "view",
      "type": "function",
      "constant": true
    },
    {
      "inputs": [],
      "name": "symbol",
      "outputs": [
        {
          "internalType": "string",
          "name": "",
          "type": "string"
        }
      ],
      "stateMutability": "view",
      "type": "function",
      "constant": true
    },
    {
      "inputs": [],
      "name": "tokenCounter",
      "outputs": [
        {
          "internalType": "uint256",
          "name": "",
          "type": "uint256"
        }
      ],
      "stateMutability": "view",
      "type": "function",
      "constant": true
    },
    {
      "inputs": [
        {
          "internalType": "uint256",
          "name": "tokenId",
          "type": "uint256"
        }
      ],
      "name": "tokenURI",
      "outputs": [
        {
          "internalType": "string",
          "name": "",
          "type": "string"
        }
      ],
      "stateMutability": "view",
      "type": "function",
      "constant": true
    },
    {
      "inputs": [
        {
          "internalType": "address",
          "name": "from",
          "type": "address"
        },
        {
          "internalType": "address",
          "name": "to",
          "type": "address"
        },
        {
          "internalType": "uint256",
          "name": "tokenId",
          "type": "uint256"
        }
      ],
      "name": "transferFrom",
      "outputs": [],
      "stateMutability": "nonpayable",
      "type": "function"
    },
    {
      "inputs": [
        {
          "internalType": "address",
          "name": "newOwner",
          "type": "address"
        }
      ],
      "name": "transferOwnership",
      "outputs": [],
      "stateMutability": "nonpayable",
      "type": "function"
    },
    {
      "inputs": [
        {
          "internalType": "string",
          "name": "_tokenURI",
          "type": "string"
        }
      ],
      "name": "_findTokenURI",
      "outputs": [
        {
          "internalType": "uint256",
          "name": "index",
          "type": "uint256"
        }
      ],
      "stateMutability": "nonpayable",
      "type": "function"
    },
    {
      "inputs": [
        {
          "internalType": "string",
          "name": "_tokenURI",
          "type": "string"
        },
        {
          "internalType": "uint256",
          "name": "_amount",
          "type": "uint256"
        },
        {
          "internalType": "address",
          "name": "_ettr_contract",
          "type": "address"
        },
        {
          "internalType": "address",
          "name": "_susdc_contract",
          "type": "address"
        },
        {
          "internalType": "uint256",
          "name": "_type",
          "type": "uint256"
        }
      ],
      "name": "cltrnft_mint",
      "outputs": [
        {
          "internalType": "bool",
          "name": "",
          "type": "bool"
        }
      ],
      "stateMutability": "nonpayable",
      "type": "function"
    },
    {
      "inputs": [
        {
          "internalType": "uint256",
          "name": "_tokenId",
          "type": "uint256"
        },
        {
          "internalType": "uint256",
          "name": "_amount",
          "type": "uint256"
        },
        {
          "internalType": "address",
          "name": "_ettr_contract",
          "type": "address"
        },
        {
          "internalType": "address",
          "name": "_susdc_contract",
          "type": "address"
        },
        {
          "internalType": "uint256",
          "name": "_type",
          "type": "uint256"
        }
      ],
      "name": "cltrnft_market_buy",
      "outputs": [
        {
          "internalType": "bool",
          "name": "",
          "type": "bool"
        }
      ],
      "stateMutability": "nonpayable",
      "type": "function"
    },
    {
      "inputs": [
        {
          "internalType": "uint256",
          "name": "_tokenId",
          "type": "uint256"
        }
      ],
      "name": "cltrnft_market_sell",
      "outputs": [],
      "stateMutability": "nonpayable",
      "type": "function"
    },
    {
      "inputs": [
        {
          "internalType": "uint256",
          "name": "tokenId",
          "type": "uint256"
        }
      ],
      "name": "cltrnft_market_revoke_approval",
      "outputs": [],
      "stateMutability": "nonpayable",
      "type": "function"
    },
    {
      "inputs": [
        {
          "internalType": "uint256",
          "name": "_tokenId_1",
          "type": "uint256"
        },
        {
          "internalType": "uint256",
          "name": "_tokenId_2",
          "type": "uint256"
        },
        {
          "internalType": "uint256",
          "name": "_tokenId_3",
          "type": "uint256"
        },
        {
          "internalType": "string",
          "name": "_tokenURI",
          "type": "string"
        },
        {
          "internalType": "uint256",
          "name": "_amount",
          "type": "uint256"
        },
        {
          "internalType": "address",
          "name": "_ettr_contract",
          "type": "address"
        }
      ],
      "name": "cltrnft_forge",
      "outputs": [
        {
          "internalType": "bool",
          "name": "",
          "type": "bool"
        }
      ],
      "stateMutability": "nonpayable",
      "type": "function"
    }
  ],
  "bytecode": "0x60806040523480156200001157600080fd5b506040518060400160405280600b81526020017f436c6574746572204e46540000000000000000000000000000000000000000008152506040518060400160405280600781526020017f434c54524e465400000000000000000000000000000000000000000000000000815250816000908051906020019062000096929190620001ae565b508060019080519060200190620000af929190620001ae565b505050620000d2620000c6620000e060201b60201c565b620000e860201b60201c565b6000600981905550620002c3565b600033905090565b6000600660009054906101000a900473ffffffffffffffffffffffffffffffffffffffff16905081600660006101000a81548173ffffffffffffffffffffffffffffffffffffffff021916908373ffffffffffffffffffffffffffffffffffffffff1602179055508173ffffffffffffffffffffffffffffffffffffffff168173ffffffffffffffffffffffffffffffffffffffff167f8be0079c531659141344cd1fd0a4f28419497f9722a3daafe3b4186f6b6457e060405160405180910390a35050565b828054620001bc906200025e565b90600052602060002090601f016020900481019282620001e057600085556200022c565b82601f10620001fb57805160ff19168380011785556200022c565b828001600101855582156200022c579182015b828111156200022b5782518255916020019190600101906200020e565b5b5090506200023b91906200023f565b5090565b5b808211156200025a57600081600090555060010162000240565b5090565b600060028204905060018216806200027757607f821691505b602082108114156200028e576200028d62000294565b5b50919050565b7f4e487b7100000000000000000000000000000000000000000000000000000000600052602260045260246000fd5b6141f380620002d36000396000f3fe608060405234801561001057600080fd5b506004361061014d5760003560e01c80638da5cb5b116100c3578063c87b56dd1161007c578063c87b56dd1461039a578063d082e381146103ca578063e985e9c5146103e8578063ec18bf7f14610418578063f2fde38b14610448578063fc363587146104645761014d565b80638da5cb5b146102da57806392161170146102f857806395d89b4114610314578063a22cb46514610332578063ac22558d1461034e578063b88d4fde1461037e5761014d565b806323b872dd1161011557806323b872dd1461021c57806342842e0e146102385780636352211e14610254578063674aa1a81461028457806370a08231146102a0578063715018a6146102d05761014d565b806301ffc9a71461015257806306fdde0314610182578063081812fc146101a0578063095ea7b3146101d05780631f8e7018146101ec575b600080fd5b61016c60048036038101906101679190612c02565b610494565b6040516101799190613406565b60405180910390f35b61018a610576565b6040516101979190613421565b60405180910390f35b6101ba60048036038101906101b59190612d3c565b610608565b6040516101c79190613376565b60405180910390f35b6101ea60048036038101906101e59190612b95565b61068d565b005b61020660048036038101906102019190612d69565b6107a5565b6040516102139190613406565b60405180910390f35b61023660048036038101906102319190612a7f565b610b46565b005b610252600480360381019061024d9190612a7f565b610ba6565b005b61026e60048036038101906102699190612d3c565b610bc6565b60405161027b9190613376565b60405180910390f35b61029e60048036038101906102999190612d3c565b610c78565b005b6102ba60048036038101906102b59190612a12565b610d7d565b6040516102c79190613743565b60405180910390f35b6102d8610e35565b005b6102e2610ebd565b6040516102ef9190613376565b60405180910390f35b610312600480360381019061030d9190612d3c565b610ee7565b005b61031c610feb565b6040516103299190613421565b60405180910390f35b61034c60048036038101906103479190612b55565b61107d565b005b61036860048036038101906103639190612ca5565b611093565b6040516103759190613406565b60405180910390f35b61039860048036038101906103939190612ad2565b611449565b005b6103b460048036038101906103af9190612d3c565b6114ab565b6040516103c19190613421565b60405180910390f35b6103d2611552565b6040516103df9190613743565b60405180910390f35b61040260048036038101906103fd9190612a3f565b611558565b60405161040f9190613406565b60405180910390f35b610432600480360381019061042d9190612c5c565b6115ec565b60405161043f9190613743565b60405180910390f35b610462600480360381019061045d9190612a12565b61168b565b005b61047e60048036038101906104799190612de4565b611783565b60405161048b9190613406565b60405180910390f35b60007f80ac58cd000000000000000000000000000000000000000000000000000000007bffffffffffffffffffffffffffffffffffffffffffffffffffffffff1916827bffffffffffffffffffffffffffffffffffffffffffffffffffffffff1916148061055f57507f5b5e139f000000000000000000000000000000000000000000000000000000007bffffffffffffffffffffffffffffffffffffffffffffffffffffffff1916827bffffffffffffffffffffffffffffffffffffffffffffffffffffffff1916145b8061056f575061056e82611970565b5b9050919050565b606060008054610585906139ae565b80601f01602080910402602001604051908101604052809291908181526020018280546105b1906139ae565b80156105fe5780601f106105d3576101008083540402835291602001916105fe565b820191906000526020600020905b8154815290600101906020018083116105e157829003601f168201915b5050505050905090565b6000610613826119da565b610652576040517f08c379a000000000000000000000000000000000000000000000000000000000815260040161064990613603565b60405180910390fd5b6004600083815260200190815260200160002060009054906101000a900473ffffffffffffffffffffffffffffffffffffffff169050919050565b600061069882610bc6565b90508073ffffffffffffffffffffffffffffffffffffffff168373ffffffffffffffffffffffffffffffffffffffff161415610709576040517f08c379a0000000000000000000000000000000000000000000000000000000008152600401610700906136a3565b60405180910390fd5b8073ffffffffffffffffffffffffffffffffffffffff16610728611a46565b73ffffffffffffffffffffffffffffffffffffffff161480610757575061075681610751611a46565b611558565b5b610796576040517f08c379a000000000000000000000000000000000000000000000000000000000815260040161078d90613583565b60405180910390fd5b6107a08383611a4e565b505050565b600080849050600084905060008414806107bf5750600184145b6107fe576040517f08c379a00000000000000000000000000000000000000000000000000000000081526004016107f5906134c3565b60405180910390fd5b6000841415610945578173ffffffffffffffffffffffffffffffffffffffff166392422f7933896040518363ffffffff1660e01b81526004016108429291906133dd565b602060405180830381600087803b15801561085c57600080fd5b505af1158015610870573d6000803e3d6000fd5b505050506040513d601f19601f820116820180604052508101906108949190612bd5565b6108d3576040517f08c379a00000000000000000000000000000000000000000000000000000000081526004016108ca90613563565b60405180910390fd5b8173ffffffffffffffffffffffffffffffffffffffff1663dc951e1633896040518363ffffffff1660e01b815260040161090e9291906133dd565b600060405180830381600087803b15801561092857600080fd5b505af115801561093c573d6000803e3d6000fd5b50505050610ac8565b6001841415610a8c578073ffffffffffffffffffffffffffffffffffffffff1663540e78f933896040518363ffffffff1660e01b81526004016109899291906133dd565b602060405180830381600087803b1580156109a357600080fd5b505af11580156109b7573d6000803e3d6000fd5b505050506040513d601f19601f820116820180604052508101906109db9190612bd5565b610a1a576040517f08c379a0000000000000000000000000000000000000000000000000000000008152600401610a1190613683565b60405180910390fd5b8073ffffffffffffffffffffffffffffffffffffffff1663b4e809e133896040518363ffffffff1660e01b8152600401610a559291906133dd565b600060405180830381600087803b158015610a6f57600080fd5b505af1158015610a83573d6000803e3d6000fd5b50505050610ac7565b6040517f08c379a0000000000000000000000000000000000000000000000000000000008152600401610abe906134c3565b60405180910390fd5b5b6008600089815260200190815260200160002060009054906101000a900460ff16610b28576040517f08c379a0000000000000000000000000000000000000000000000000000000008152600401610b1f90613703565b60405180910390fd5b610b3b610b3489610bc6565b338a611b07565b505095945050505050565b610b57610b51611a46565b82611d6e565b610b96576040517f08c379a0000000000000000000000000000000000000000000000000000000008152600401610b8d906136c3565b60405180910390fd5b610ba1838383611b07565b505050565b610bc183838360405180602001604052806000815250611449565b505050565b6000806002600084815260200190815260200160002060009054906101000a900473ffffffffffffffffffffffffffffffffffffffff169050600073ffffffffffffffffffffffffffffffffffffffff168173ffffffffffffffffffffffffffffffffffffffff161415610c6f576040517f08c379a0000000000000000000000000000000000000000000000000000000008152600401610c66906135c3565b60405180910390fd5b80915050919050565b610c81816119da565b610cc0576040517f08c379a0000000000000000000000000000000000000000000000000000000008152600401610cb790613523565b60405180910390fd5b6008600082815260200190815260200160002060009054906101000a900460ff1615610d21576040517f08c379a0000000000000000000000000000000000000000000000000000000008152600401610d1890613723565b60405180910390fd5b60016008600083815260200190815260200160002060006101000a81548160ff021916908315150217905550807fbb04bea84885a72e3891993318adefb442812fa459948e555c4e09692e352e6060405160405180910390a250565b60008073ffffffffffffffffffffffffffffffffffffffff168273ffffffffffffffffffffffffffffffffffffffff161415610dee576040517f08c379a0000000000000000000000000000000000000000000000000000000008152600401610de5906135a3565b60405180910390fd5b600360008373ffffffffffffffffffffffffffffffffffffffff1673ffffffffffffffffffffffffffffffffffffffff168152602001908152602001600020549050919050565b610e3d611a46565b73ffffffffffffffffffffffffffffffffffffffff16610e5b610ebd565b73ffffffffffffffffffffffffffffffffffffffff1614610eb1576040517f08c379a0000000000000000000000000000000000000000000000000000000008152600401610ea890613643565b60405180910390fd5b610ebb6000611e4c565b565b6000600660009054906101000a900473ffffffffffffffffffffffffffffffffffffffff16905090565b610ef0816119da565b610f2f576040517f08c379a0000000000000000000000000000000000000000000000000000000008152600401610f2690613523565b60405180910390fd5b6008600082815260200190815260200160002060009054906101000a900460ff16610f8f576040517f08c379a0000000000000000000000000000000000000000000000000000000008152600401610f86906136e3565b60405180910390fd5b60006008600083815260200190815260200160002060006101000a81548160ff021916908315150217905550807fd52687612c745dc976e4dd8f250e30e11d422100d0f85fce912dde2b97d8506760405160405180910390a250565b606060018054610ffa906139ae565b80601f0160208091040260200160405190810160405280929190818152602001828054611026906139ae565b80156110735780601f1061104857610100808354040283529160200191611073565b820191906000526020600020905b81548152906001019060200180831161105657829003601f168201915b5050505050905090565b61108f611088611a46565b8383611f12565b5050565b600080849050600084905060008414806110ad5750600184145b6110ec576040517f08c379a00000000000000000000000000000000000000000000000000000000081526004016110e3906134c3565b60405180910390fd5b6000841415611233578173ffffffffffffffffffffffffffffffffffffffff166392422f7933896040518363ffffffff1660e01b81526004016111309291906133dd565b602060405180830381600087803b15801561114a57600080fd5b505af115801561115e573d6000803e3d6000fd5b505050506040513d601f19601f820116820180604052508101906111829190612bd5565b6111c1576040517f08c379a00000000000000000000000000000000000000000000000000000000081526004016111b890613563565b60405180910390fd5b8173ffffffffffffffffffffffffffffffffffffffff1663dc951e1633896040518363ffffffff1660e01b81526004016111fc9291906133dd565b600060405180830381600087803b15801561121657600080fd5b505af115801561122a573d6000803e3d6000fd5b505050506113b6565b600184141561137a578073ffffffffffffffffffffffffffffffffffffffff1663540e78f933896040518363ffffffff1660e01b81526004016112779291906133dd565b602060405180830381600087803b15801561129157600080fd5b505af11580156112a5573d6000803e3d6000fd5b505050506040513d601f19601f820116820180604052508101906112c99190612bd5565b611308576040517f08c379a00000000000000000000000000000000000000000000000000000000081526004016112ff90613683565b60405180910390fd5b8073ffffffffffffffffffffffffffffffffffffffff1663b4e809e133896040518363ffffffff1660e01b81526004016113439291906133dd565b600060405180830381600087803b15801561135d57600080fd5b505af1158015611371573d6000803e3d6000fd5b505050506113b5565b6040517f08c379a00000000000000000000000000000000000000000000000000000000081526004016113ac906134c3565b60405180910390fd5b5b6113cc600160095461207f90919063ffffffff16565b6009819055503373ffffffffffffffffffffffffffffffffffffffff167fb9144c96c86541f6fa89c9f2f02495cccf4b08cd6643e26d34ee00aa586558a860095460405161141a9190613743565b60405180910390a261142e33600954612095565b61143a600954896120b3565b60019250505095945050505050565b61145a611454611a46565b83611d6e565b611499576040517f08c379a0000000000000000000000000000000000000000000000000000000008152600401611490906136c3565b60405180910390fd5b6114a584848484612127565b50505050565b60606114b6826119da565b6114f5576040517f08c379a00000000000000000000000000000000000000000000000000000000081526004016114ec90613663565b60405180910390fd5b60006114ff612183565b9050600081511161151f576040518060200160405280600081525061154a565b806115298461219a565b60405160200161153a92919061333b565b6040516020818303038152906040525b915050919050565b60095481565b6000600560008473ffffffffffffffffffffffffffffffffffffffff1673ffffffffffffffffffffffffffffffffffffffff16815260200190815260200160002060008373ffffffffffffffffffffffffffffffffffffffff1673ffffffffffffffffffffffffffffffffffffffff16815260200190815260200160002060009054906101000a900460ff16905092915050565b600080600090505b600954811015611680578260405160200161160f9190613324565b6040516020818303038152906040528051906020012060076000838152602001908152602001600020604051602001611648919061335f565b60405160208183030381529060405280519060200120141561166d5780915050611686565b808061167890613a11565b9150506115f4565b50600090505b919050565b611693611a46565b73ffffffffffffffffffffffffffffffffffffffff166116b1610ebd565b73ffffffffffffffffffffffffffffffffffffffff1614611707576040517f08c379a00000000000000000000000000000000000000000000000000000000081526004016116fe90613643565b60405180910390fd5b600073ffffffffffffffffffffffffffffffffffffffff168173ffffffffffffffffffffffffffffffffffffffff161415611777576040517f08c379a000000000000000000000000000000000000000000000000000000000815260040161176e90613463565b60405180910390fd5b61178081611e4c565b50565b6000808290508073ffffffffffffffffffffffffffffffffffffffff166392422f7933866040518363ffffffff1660e01b81526004016117c49291906133dd565b602060405180830381600087803b1580156117de57600080fd5b505af11580156117f2573d6000803e3d6000fd5b505050506040513d601f19601f820116820180604052508101906118169190612bd5565b611855576040517f08c379a000000000000000000000000000000000000000000000000000000000815260040161184c90613563565b60405180910390fd5b8073ffffffffffffffffffffffffffffffffffffffff1663dc951e1633866040518363ffffffff1660e01b81526004016118909291906133dd565b600060405180830381600087803b1580156118aa57600080fd5b505af11580156118be573d6000803e3d6000fd5b505050506118cb886122fb565b6118d4876122fb565b6118dd866122fb565b6118f3600160095461207f90919063ffffffff16565b6009819055503373ffffffffffffffffffffffffffffffffffffffff167fb9144c96c86541f6fa89c9f2f02495cccf4b08cd6643e26d34ee00aa586558a86009546040516119419190613743565b60405180910390a261195533600954612095565b611961600954866120b3565b60019150509695505050505050565b60007f01ffc9a7000000000000000000000000000000000000000000000000000000007bffffffffffffffffffffffffffffffffffffffffffffffffffffffff1916827bffffffffffffffffffffffffffffffffffffffffffffffffffffffff1916149050919050565b60008073ffffffffffffffffffffffffffffffffffffffff166002600084815260200190815260200160002060009054906101000a900473ffffffffffffffffffffffffffffffffffffffff1673ffffffffffffffffffffffffffffffffffffffff1614159050919050565b600033905090565b816004600083815260200190815260200160002060006101000a81548173ffffffffffffffffffffffffffffffffffffffff021916908373ffffffffffffffffffffffffffffffffffffffff160217905550808273ffffffffffffffffffffffffffffffffffffffff16611ac183610bc6565b73ffffffffffffffffffffffffffffffffffffffff167f8c5be1e5ebec7d5bd14f71427d1e84f3dd0314c0f7b2291e5b200ac8c7c3b92560405160405180910390a45050565b8273ffffffffffffffffffffffffffffffffffffffff16611b2782610bc6565b73ffffffffffffffffffffffffffffffffffffffff1614611b7d576040517f08c379a0000000000000000000000000000000000000000000000000000000008152600401611b7490613483565b60405180910390fd5b600073ffffffffffffffffffffffffffffffffffffffff168273ffffffffffffffffffffffffffffffffffffffff161415611bed576040517f08c379a0000000000000000000000000000000000000000000000000000000008152600401611be4906134e3565b60405180910390fd5b611bf8838383612418565b611c03600082611a4e565b6001600360008573ffffffffffffffffffffffffffffffffffffffff1673ffffffffffffffffffffffffffffffffffffffff1681526020019081526020016000206000828254611c5391906138c4565b925050819055506001600360008473ffffffffffffffffffffffffffffffffffffffff1673ffffffffffffffffffffffffffffffffffffffff1681526020019081526020016000206000828254611caa919061383d565b92505081905550816002600083815260200190815260200160002060006101000a81548173ffffffffffffffffffffffffffffffffffffffff021916908373ffffffffffffffffffffffffffffffffffffffff160217905550808273ffffffffffffffffffffffffffffffffffffffff168473ffffffffffffffffffffffffffffffffffffffff167fddf252ad1be2c89b69c2b068fc378daa952ba7f163c4a11628f55a4df523b3ef60405160405180910390a4611d6983838361241d565b505050565b6000611d79826119da565b611db8576040517f08c379a0000000000000000000000000000000000000000000000000000000008152600401611daf90613543565b60405180910390fd5b6000611dc383610bc6565b90508073ffffffffffffffffffffffffffffffffffffffff168473ffffffffffffffffffffffffffffffffffffffff161480611e055750611e048185611558565b5b80611e4357508373ffffffffffffffffffffffffffffffffffffffff16611e2b84610608565b73ffffffffffffffffffffffffffffffffffffffff16145b91505092915050565b6000600660009054906101000a900473ffffffffffffffffffffffffffffffffffffffff16905081600660006101000a81548173ffffffffffffffffffffffffffffffffffffffff021916908373ffffffffffffffffffffffffffffffffffffffff1602179055508173ffffffffffffffffffffffffffffffffffffffff168173ffffffffffffffffffffffffffffffffffffffff167f8be0079c531659141344cd1fd0a4f28419497f9722a3daafe3b4186f6b6457e060405160405180910390a35050565b8173ffffffffffffffffffffffffffffffffffffffff168373ffffffffffffffffffffffffffffffffffffffff161415611f81576040517f08c379a0000000000000000000000000000000000000000000000000000000008152600401611f7890613503565b60405180910390fd5b80600560008573ffffffffffffffffffffffffffffffffffffffff1673ffffffffffffffffffffffffffffffffffffffff16815260200190815260200160002060008473ffffffffffffffffffffffffffffffffffffffff1673ffffffffffffffffffffffffffffffffffffffff16815260200190815260200160002060006101000a81548160ff0219169083151502179055508173ffffffffffffffffffffffffffffffffffffffff168373ffffffffffffffffffffffffffffffffffffffff167f17307eab39ab6107e8899845ad3d59bd9653f200f220920489ca2b5937696c31836040516120729190613406565b60405180910390a3505050565b6000818361208d919061383d565b905092915050565b6120af828260405180602001604052806000815250612422565b5050565b6120bc826119da565b6120fb576040517f08c379a00000000000000000000000000000000000000000000000000000000081526004016120f290613623565b60405180910390fd5b80600760008481526020019081526020016000209080519060200190612122929190612811565b505050565b612132848484611b07565b61213e8484848461247d565b61217d576040517f08c379a000000000000000000000000000000000000000000000000000000000815260040161217490613443565b60405180910390fd5b50505050565b606060405180602001604052806000815250905090565b606060008214156121e2576040518060400160405280600181526020017f300000000000000000000000000000000000000000000000000000000000000081525090506122f6565b600082905060005b600082146122145780806121fd90613a11565b915050600a8261220d9190613893565b91506121ea565b60008167ffffffffffffffff8111156122305761222f613b47565b5b6040519080825280601f01601f1916602001820160405280156122625781602001600182028036833780820191505090505b5090505b600085146122ef5760018261227b91906138c4565b9150600a8561228a9190613a5a565b6030612296919061383d565b60f81b8183815181106122ac576122ab613b18565b5b60200101907effffffffffffffffffffffffffffffffffffffffffffffffffffffffffffff1916908160001a905350600a856122e89190613893565b9450612266565b8093505050505b919050565b600061230682610bc6565b905061231481600084612418565b61231f600083611a4e565b6001600360008373ffffffffffffffffffffffffffffffffffffffff1673ffffffffffffffffffffffffffffffffffffffff168152602001908152602001600020600082825461236f91906138c4565b925050819055506002600083815260200190815260200160002060006101000a81549073ffffffffffffffffffffffffffffffffffffffff021916905581600073ffffffffffffffffffffffffffffffffffffffff168273ffffffffffffffffffffffffffffffffffffffff167fddf252ad1be2c89b69c2b068fc378daa952ba7f163c4a11628f55a4df523b3ef60405160405180910390a46124148160008461241d565b5050565b505050565b505050565b61242c8383612614565b612439600084848461247d565b612478576040517f08c379a000000000000000000000000000000000000000000000000000000000815260040161246f90613443565b60405180910390fd5b505050565b600061249e8473ffffffffffffffffffffffffffffffffffffffff166127ee565b15612607578373ffffffffffffffffffffffffffffffffffffffff1663150b7a026124c7611a46565b8786866040518563ffffffff1660e01b81526004016124e99493929190613391565b602060405180830381600087803b15801561250357600080fd5b505af192505050801561253457506040513d601f19601f820116820180604052508101906125319190612c2f565b60015b6125b7573d8060008114612564576040519150601f19603f3d011682016040523d82523d6000602084013e612569565b606091505b506000815114156125af576040517f08c379a00000000000000000000000000000000000000000000000000000000081526004016125a690613443565b60405180910390fd5b805181602001fd5b63150b7a0260e01b7bffffffffffffffffffffffffffffffffffffffffffffffffffffffff1916817bffffffffffffffffffffffffffffffffffffffffffffffffffffffff19161491505061260c565b600190505b949350505050565b600073ffffffffffffffffffffffffffffffffffffffff168273ffffffffffffffffffffffffffffffffffffffff161415612684576040517f08c379a000000000000000000000000000000000000000000000000000000000815260040161267b906135e3565b60405180910390fd5b61268d816119da565b156126cd576040517f08c379a00000000000000000000000000000000000000000000000000000000081526004016126c4906134a3565b60405180910390fd5b6126d960008383612418565b6001600360008473ffffffffffffffffffffffffffffffffffffffff1673ffffffffffffffffffffffffffffffffffffffff1681526020019081526020016000206000828254612729919061383d565b92505081905550816002600083815260200190815260200160002060006101000a81548173ffffffffffffffffffffffffffffffffffffffff021916908373ffffffffffffffffffffffffffffffffffffffff160217905550808273ffffffffffffffffffffffffffffffffffffffff16600073ffffffffffffffffffffffffffffffffffffffff167fddf252ad1be2c89b69c2b068fc378daa952ba7f163c4a11628f55a4df523b3ef60405160405180910390a46127ea6000838361241d565b5050565b6000808273ffffffffffffffffffffffffffffffffffffffff163b119050919050565b82805461281d906139ae565b90600052602060002090601f01602090048101928261283f5760008555612886565b82601f1061285857805160ff1916838001178555612886565b82800160010185558215612886579182015b8281111561288557825182559160200191906001019061286a565b5b5090506128939190612897565b5090565b5b808211156128b0576000816000905550600101612898565b5090565b60006128c76128c284613783565b61375e565b9050828152602081018484840111156128e3576128e2613b7b565b5b6128ee84828561396c565b509392505050565b6000612909612904846137b4565b61375e565b90508281526020810184848401111561292557612924613b7b565b5b61293084828561396c565b509392505050565b60008135905061294781614161565b92915050565b60008135905061295c81614178565b92915050565b60008151905061297181614178565b92915050565b6000813590506129868161418f565b92915050565b60008151905061299b8161418f565b92915050565b600082601f8301126129b6576129b5613b76565b5b81356129c68482602086016128b4565b91505092915050565b600082601f8301126129e4576129e3613b76565b5b81356129f48482602086016128f6565b91505092915050565b600081359050612a0c816141a6565b92915050565b600060208284031215612a2857612a27613b85565b5b6000612a3684828501612938565b91505092915050565b60008060408385031215612a5657612a55613b85565b5b6000612a6485828601612938565b9250506020612a7585828601612938565b9150509250929050565b600080600060608486031215612a9857612a97613b85565b5b6000612aa686828701612938565b9350506020612ab786828701612938565b9250506040612ac8868287016129fd565b9150509250925092565b60008060008060808587031215612aec57612aeb613b85565b5b6000612afa87828801612938565b9450506020612b0b87828801612938565b9350506040612b1c878288016129fd565b925050606085013567ffffffffffffffff811115612b3d57612b3c613b80565b5b612b49878288016129a1565b91505092959194509250565b60008060408385031215612b6c57612b6b613b85565b5b6000612b7a85828601612938565b9250506020612b8b8582860161294d565b9150509250929050565b60008060408385031215612bac57612bab613b85565b5b6000612bba85828601612938565b9250506020612bcb858286016129fd565b9150509250929050565b600060208284031215612beb57612bea613b85565b5b6000612bf984828501612962565b91505092915050565b600060208284031215612c1857612c17613b85565b5b6000612c2684828501612977565b91505092915050565b600060208284031215612c4557612c44613b85565b5b6000612c538482850161298c565b91505092915050565b600060208284031215612c7257612c71613b85565b5b600082013567ffffffffffffffff811115612c9057612c8f613b80565b5b612c9c848285016129cf565b91505092915050565b600080600080600060a08688031215612cc157612cc0613b85565b5b600086013567ffffffffffffffff811115612cdf57612cde613b80565b5b612ceb888289016129cf565b9550506020612cfc888289016129fd565b9450506040612d0d88828901612938565b9350506060612d1e88828901612938565b9250506080612d2f888289016129fd565b9150509295509295909350565b600060208284031215612d5257612d51613b85565b5b6000612d60848285016129fd565b91505092915050565b600080600080600060a08688031215612d8557612d84613b85565b5b6000612d93888289016129fd565b9550506020612da4888289016129fd565b9450506040612db588828901612938565b9350506060612dc688828901612938565b9250506080612dd7888289016129fd565b9150509295509295909350565b60008060008060008060c08789031215612e0157612e00613b85565b5b6000612e0f89828a016129fd565b9650506020612e2089828a016129fd565b9550506040612e3189828a016129fd565b945050606087013567ffffffffffffffff811115612e5257612e51613b80565b5b612e5e89828a016129cf565b9350506080612e6f89828a016129fd565b92505060a0612e8089828a01612938565b9150509295509295509295565b612e96816138f8565b82525050565b612ea58161390a565b82525050565b6000612eb6826137fa565b612ec08185613810565b9350612ed081856020860161397b565b612ed981613b8a565b840191505092915050565b6000612eef82613805565b612ef98185613821565b9350612f0981856020860161397b565b612f1281613b8a565b840191505092915050565b6000612f2882613805565b612f328185613832565b9350612f4281856020860161397b565b80840191505092915050565b60008154612f5b816139ae565b612f658186613832565b94506001821660008114612f805760018114612f9157612fc4565b60ff19831686528186019350612fc4565b612f9a856137e5565b60005b83811015612fbc57815481890152600182019150602081019050612f9d565b838801955050505b50505092915050565b6000612fda603283613821565b9150612fe582613b9b565b604082019050919050565b6000612ffd602683613821565b915061300882613bea565b604082019050919050565b6000613020602583613821565b915061302b82613c39565b604082019050919050565b6000613043601c83613821565b915061304e82613c88565b602082019050919050565b6000613066601283613821565b915061307182613cb1565b602082019050919050565b6000613089602483613821565b915061309482613cda565b604082019050919050565b60006130ac601983613821565b91506130b782613d29565b602082019050919050565b60006130cf601783613821565b91506130da82613d52565b602082019050919050565b60006130f2602c83613821565b91506130fd82613d7b565b604082019050919050565b6000613115601983613821565b915061312082613dca565b602082019050919050565b6000613138603883613821565b915061314382613df3565b604082019050919050565b600061315b602a83613821565b915061316682613e42565b604082019050919050565b600061317e602983613821565b915061318982613e91565b604082019050919050565b60006131a1602083613821565b91506131ac82613ee0565b602082019050919050565b60006131c4602c83613821565b91506131cf82613f09565b604082019050919050565b60006131e7602c83613821565b91506131f282613f58565b604082019050919050565b600061320a602083613821565b915061321582613fa7565b602082019050919050565b600061322d602f83613821565b915061323882613fd0565b604082019050919050565b6000613250601a83613821565b915061325b8261401f565b602082019050919050565b6000613273602183613821565b915061327e82614048565b604082019050919050565b6000613296603183613821565b91506132a182614097565b604082019050919050565b60006132b9601983613821565b91506132c4826140e6565b602082019050919050565b60006132dc601183613821565b91506132e78261410f565b602082019050919050565b60006132ff601583613821565b915061330a82614138565b602082019050919050565b61331e81613962565b82525050565b60006133308284612f1d565b915081905092915050565b60006133478285612f1d565b91506133538284612f1d565b91508190509392505050565b600061336b8284612f4e565b915081905092915050565b600060208201905061338b6000830184612e8d565b92915050565b60006080820190506133a66000830187612e8d565b6133b36020830186612e8d565b6133c06040830185613315565b81810360608301526133d28184612eab565b905095945050505050565b60006040820190506133f26000830185612e8d565b6133ff6020830184613315565b9392505050565b600060208201905061341b6000830184612e9c565b92915050565b6000602082019050818103600083015261343b8184612ee4565b905092915050565b6000602082019050818103600083015261345c81612fcd565b9050919050565b6000602082019050818103600083015261347c81612ff0565b9050919050565b6000602082019050818103600083015261349c81613013565b9050919050565b600060208201905081810360008301526134bc81613036565b9050919050565b600060208201905081810360008301526134dc81613059565b9050919050565b600060208201905081810360008301526134fc8161307c565b9050919050565b6000602082019050818103600083015261351c8161309f565b9050919050565b6000602082019050818103600083015261353c816130c2565b9050919050565b6000602082019050818103600083015261355c816130e5565b9050919050565b6000602082019050818103600083015261357c81613108565b9050919050565b6000602082019050818103600083015261359c8161312b565b9050919050565b600060208201905081810360008301526135bc8161314e565b9050919050565b600060208201905081810360008301526135dc81613171565b9050919050565b600060208201905081810360008301526135fc81613194565b9050919050565b6000602082019050818103600083015261361c816131b7565b9050919050565b6000602082019050818103600083015261363c816131da565b9050919050565b6000602082019050818103600083015261365c816131fd565b9050919050565b6000602082019050818103600083015261367c81613220565b9050919050565b6000602082019050818103600083015261369c81613243565b9050919050565b600060208201905081810360008301526136bc81613266565b9050919050565b600060208201905081810360008301526136dc81613289565b9050919050565b600060208201905081810360008301526136fc816132ac565b9050919050565b6000602082019050818103600083015261371c816132cf565b9050919050565b6000602082019050818103600083015261373c816132f2565b9050919050565b60006020820190506137586000830184613315565b92915050565b6000613768613779565b905061377482826139e0565b919050565b6000604051905090565b600067ffffffffffffffff82111561379e5761379d613b47565b5b6137a782613b8a565b9050602081019050919050565b600067ffffffffffffffff8211156137cf576137ce613b47565b5b6137d882613b8a565b9050602081019050919050565b60008190508160005260206000209050919050565b600081519050919050565b600081519050919050565b600082825260208201905092915050565b600082825260208201905092915050565b600081905092915050565b600061384882613962565b915061385383613962565b9250827fffffffffffffffffffffffffffffffffffffffffffffffffffffffffffffffff0382111561388857613887613a8b565b5b828201905092915050565b600061389e82613962565b91506138a983613962565b9250826138b9576138b8613aba565b5b828204905092915050565b60006138cf82613962565b91506138da83613962565b9250828210156138ed576138ec613a8b565b5b828203905092915050565b600061390382613942565b9050919050565b60008115159050919050565b60007fffffffff0000000000000000000000000000000000000000000000000000000082169050919050565b600073ffffffffffffffffffffffffffffffffffffffff82169050919050565b6000819050919050565b82818337600083830152505050565b60005b8381101561399957808201518184015260208101905061397e565b838111156139a8576000848401525b50505050565b600060028204905060018216806139c657607f821691505b602082108114156139da576139d9613ae9565b5b50919050565b6139e982613b8a565b810181811067ffffffffffffffff82111715613a0857613a07613b47565b5b80604052505050565b6000613a1c82613962565b91507fffffffffffffffffffffffffffffffffffffffffffffffffffffffffffffffff821415613a4f57613a4e613a8b565b5b600182019050919050565b6000613a6582613962565b9150613a7083613962565b925082613a8057613a7f613aba565b5b828206905092915050565b7f4e487b7100000000000000000000000000000000000000000000000000000000600052601160045260246000fd5b7f4e487b7100000000000000000000000000000000000000000000000000000000600052601260045260246000fd5b7f4e487b7100000000000000000000000000000000000000000000000000000000600052602260045260246000fd5b7f4e487b7100000000000000000000000000000000000000000000000000000000600052603260045260246000fd5b7f4e487b7100000000000000000000000000000000000000000000000000000000600052604160045260246000fd5b600080fd5b600080fd5b600080fd5b600080fd5b6000601f19601f8301169050919050565b7f4552433732313a207472616e7366657220746f206e6f6e20455243373231526560008201527f63656976657220696d706c656d656e7465720000000000000000000000000000602082015250565b7f4f776e61626c653a206e6577206f776e657220697320746865207a65726f206160008201527f6464726573730000000000000000000000000000000000000000000000000000602082015250565b7f4552433732313a207472616e736665722066726f6d20696e636f72726563742060008201527f6f776e6572000000000000000000000000000000000000000000000000000000602082015250565b7f4552433732313a20746f6b656e20616c7265616479206d696e74656400000000600082015250565b7f496e76616c696420746f6b656e20747970650000000000000000000000000000600082015250565b7f4552433732313a207472616e7366657220746f20746865207a65726f2061646460008201527f7265737300000000000000000000000000000000000000000000000000000000602082015250565b7f4552433732313a20617070726f766520746f2063616c6c657200000000000000600082015250565b7f546f6b656e20494420646f6573206e6f74206578697374000000000000000000600082015250565b7f4552433732313a206f70657261746f7220717565727920666f72206e6f6e657860008201527f697374656e7420746f6b656e0000000000000000000000000000000000000000602082015250565b7f496e73756666696369656e7420455454522062616c616e636500000000000000600082015250565b7f4552433732313a20617070726f76652063616c6c6572206973206e6f74206f7760008201527f6e6572206e6f7220617070726f76656420666f7220616c6c0000000000000000602082015250565b7f4552433732313a2062616c616e636520717565727920666f7220746865207a6560008201527f726f206164647265737300000000000000000000000000000000000000000000602082015250565b7f4552433732313a206f776e657220717565727920666f72206e6f6e657869737460008201527f656e7420746f6b656e0000000000000000000000000000000000000000000000602082015250565b7f4552433732313a206d696e7420746f20746865207a65726f2061646472657373600082015250565b7f4552433732313a20617070726f76656420717565727920666f72206e6f6e657860008201527f697374656e7420746f6b656e0000000000000000000000000000000000000000602082015250565b7f4552433732314d657461646174613a2055524920736574206f66206e6f6e657860008201527f697374656e7420746f6b656e0000000000000000000000000000000000000000602082015250565b7f4f776e61626c653a2063616c6c6572206973206e6f7420746865206f776e6572600082015250565b7f4552433732314d657461646174613a2055524920717565727920666f72206e6f60008201527f6e6578697374656e7420746f6b656e0000000000000000000000000000000000602082015250565b7f496e73756666696369656e742073555344432062616c616e6365000000000000600082015250565b7f4552433732313a20617070726f76616c20746f2063757272656e74206f776e6560008201527f7200000000000000000000000000000000000000000000000000000000000000602082015250565b7f4552433732313a207472616e736665722063616c6c6572206973206e6f74206f60008201527f776e6572206e6f7220617070726f766564000000000000000000000000000000602082015250565b7f53616c6520617070726f76616c206e6f74206772616e74656400000000000000600082015250565b7f53616c65206e6f7420617070726f766564000000000000000000000000000000600082015250565b7f53616c6520616c726561647920617070726f7665640000000000000000000000600082015250565b61416a816138f8565b811461417557600080fd5b50565b6141818161390a565b811461418c57600080fd5b50565b61419881613916565b81146141a357600080fd5b50565b6141af81613962565b81146141ba57600080fd5b5056fea2646970667358221220914e21f149a84c9f8c0d2256837496af841e9affe1a9cf8b90b85a8750945abf64736f6c63430008050033",
  "immutableReferences": {},
  "source": "pragma solidity ^0.8.5;\n\nimport \"@openzeppelin/contracts/utils/math/SafeMath.sol\";\nimport '@openzeppelin/contracts/token/ERC721/ERC721.sol';\nimport \"@openzeppelin/contracts/access/Ownable.sol\";\n\nimport './Ettr.sol';\nimport './SUSDC.sol';\n\ncontract CLTRNFT is ERC721, Ownable{\n    using SafeMath for uint256;\n\n    // Optional mapping for token URIs\n    mapping (uint256 => string) private _tokenURIs;\n\n    // Mapping to track approval status of each NFT\n    mapping(uint256 => bool) private _saleApproved;\n\n    uint256 public tokenCounter;\n    constructor() ERC721(\"Cletter NFT\", \"CLTRNFT\") public {\n        tokenCounter = 0;\n    }\n\n    function _setTokenURI(uint256 tokenId, string memory _tokenURI) internal virtual {\n        require(_exists(tokenId), \"ERC721Metadata: URI set of nonexistent token\");\n        _tokenURIs[tokenId] = _tokenURI;\n    }\n\n    function _findTokenURI(string memory _tokenURI) public returns(uint256 index){\n        for(uint i = 0; i < tokenCounter; i++){\n            if (keccak256(abi.encodePacked(_tokenURIs[i])) == keccak256(abi.encodePacked(_tokenURI))){\n                return i;\n            }\n        }\n        return 0;\n    }\n\n    event TokenMinted(address indexed owner, uint256 tokenId);\n    function cltrnft_mint(string memory _tokenURI, uint256 _amount, address _ettr_contract, address _susdc_contract, uint256 _type) public returns (bool) {\n        Ettr E = Ettr(_ettr_contract);\n        SUSDC S = SUSDC(_susdc_contract);\n\n        require(_type == 0 || _type == 1, \"Invalid token type\");\n\n        if (_type == 0) {\n            require(E.get_ettr_balance_subtract(msg.sender, _amount), \"Insufficient ETTR balance\");\n            // - In a production scenario this would to another wallet, or another contract\n            E.ettr_burn(msg.sender, _amount);\n        } else if (_type == 1) {\n            require(S.get_susdc_balance_subtract(msg.sender, _amount), \"Insufficient sUSDC balance\");\n            // - In a production scenario this would to another wallet, or another contract\n            S.susdc_burn(msg.sender, _amount);\n        } else {\n            revert(\"Invalid token type\");\n        }\n\n        tokenCounter = tokenCounter.add(1);\n        emit TokenMinted(msg.sender, tokenCounter);\n        _safeMint(msg.sender, tokenCounter);\n        _setTokenURI(tokenCounter, _tokenURI);\n\n        return true;\n    }\n\n    function cltrnft_market_buy(uint _tokenId, uint256 _amount, address _ettr_contract, address _susdc_contract, uint256 _type) public returns(bool) {\n        Ettr E = Ettr(_ettr_contract);\n        SUSDC S = SUSDC(_susdc_contract);\n\n        require(_type == 0 || _type == 1, \"Invalid token type\");\n\n        if (_type == 0)  {\n            require(E.get_ettr_balance_subtract(msg.sender, _amount), \"Insufficient ETTR balance\");\n            E.ettr_burn(msg.sender, _amount);\n        } else if (_type == 1) {\n            require(S.get_susdc_balance_subtract(msg.sender, _amount), \"Insufficient sUSDC balance\");\n            S.susdc_burn(msg.sender, _amount);\n        } else {\n            revert(\"Invalid token type\");\n        }\n\n        require(_saleApproved[_tokenId], \"Sale not approved\");\n        _transfer(ownerOf(_tokenId), msg.sender, _tokenId);\n    }\n\n    // Event triggered when an NFT sale is approved\n    event SaleApproved(uint256 indexed tokenId);\n    function cltrnft_market_sell(uint _tokenId) public {\n        require(_exists(_tokenId), \"Token ID does not exist\");\n        //require(ownerOf(_tokenId) == msg.sender, \"Only the owner can approve the sale\");\n        require(!_saleApproved[_tokenId], \"Sale already approved\");\n\n        _saleApproved[_tokenId] = true;\n\n        emit SaleApproved(_tokenId);\n    }\n\n    // Event triggered when an NFT sale approval is revoked\n    event SaleApprovalRevoked(uint256 indexed tokenId);\n    function cltrnft_market_revoke_approval(uint256 tokenId) public {\n        require(_exists(tokenId), \"Token ID does not exist\");\n        //require(ownerOf(tokenId) == owner(), \"Only the owner can revoke the sale approval\");\n        require(_saleApproved[tokenId], \"Sale approval not granted\");\n\n        _saleApproved[tokenId] = false;\n\n        emit SaleApprovalRevoked(tokenId);\n    }\n\n\n    function cltrnft_forge(uint _tokenId_1, uint _tokenId_2, uint _tokenId_3, string memory _tokenURI, uint256 _amount, address _ettr_contract) public returns(bool) {\n        Ettr E = Ettr(_ettr_contract);\n        require(E.get_ettr_balance_subtract(msg.sender, _amount), \"Insufficient ETTR balance\");\n        E.ettr_burn(msg.sender, _amount);\n\n        _burn(_tokenId_1);\n        _burn(_tokenId_2);\n        _burn(_tokenId_3);\n\n        tokenCounter = tokenCounter.add(1);\n        emit TokenMinted(msg.sender, tokenCounter);\n        _safeMint(msg.sender, tokenCounter);\n        _setTokenURI(tokenCounter, _tokenURI);\n        return true;\n    }\n}\n",
  "sourcePath": "/Users/chrismanueltrajano/Documents/Github/clettr/clettr-backend/blockchain/contracts/CLTRNFT.sol",
  "compiler": {
    "name": "solc",
    "version": "0.8.5+commit.a4f2e591.Emscripten.clang"
  },
  "schemaVersion": "3.4.16",
  "updatedAt": "2024-01-26T03:38:00.844Z",
  "networkType": "ethereum",
  "devdoc": {
    "kind": "dev",
    "methods": {
      "approve(address,uint256)": {
        "details": "See {IERC721-approve}."
      },
      "balanceOf(address)": {
        "details": "See {IERC721-balanceOf}."
      },
      "getApproved(uint256)": {
        "details": "See {IERC721-getApproved}."
      },
      "isApprovedForAll(address,address)": {
        "details": "See {IERC721-isApprovedForAll}."
      },
      "name()": {
        "details": "See {IERC721Metadata-name}."
      },
      "owner()": {
        "details": "Returns the address of the current owner."
      },
      "ownerOf(uint256)": {
        "details": "See {IERC721-ownerOf}."
      },
      "renounceOwnership()": {
        "details": "Leaves the contract without owner. It will not be possible to call `onlyOwner` functions anymore. Can only be called by the current owner. NOTE: Renouncing ownership will leave the contract without an owner, thereby removing any functionality that is only available to the owner."
      },
      "safeTransferFrom(address,address,uint256)": {
        "details": "See {IERC721-safeTransferFrom}."
      },
      "safeTransferFrom(address,address,uint256,bytes)": {
        "details": "See {IERC721-safeTransferFrom}."
      },
      "setApprovalForAll(address,bool)": {
        "details": "See {IERC721-setApprovalForAll}."
      },
      "supportsInterface(bytes4)": {
        "details": "See {IERC165-supportsInterface}."
      },
      "symbol()": {
        "details": "See {IERC721Metadata-symbol}."
      },
      "tokenURI(uint256)": {
        "details": "See {IERC721Metadata-tokenURI}."
      },
      "transferFrom(address,address,uint256)": {
        "details": "See {IERC721-transferFrom}."
      },
      "transferOwnership(address)": {
        "details": "Transfers ownership of the contract to a new account (`newOwner`). Can only be called by the current owner."
      }
    },
    "version": 1
  },
  "userdoc": {
    "kind": "user",
    "methods": {},
    "version": 1
  }
}