{
  "contractName": "Ettr2",
  "abi": [
    {
      "inputs": [],
      "stateMutability": "nonpayable",
      "type": "constructor"
    },
    {
      "anonymous": false,
      "inputs": [
        {
          "indexed": true,
          "internalType": "address",
          "name": "owner",
          "type": "address"
        },
        {
          "indexed": true,
          "internalType": "address",
          "name": "spender",
          "type": "address"
        },
        {
          "indexed": false,
          "internalType": "uint256",
          "name": "value",
          "type": "uint256"
        }
      ],
      "name": "Approval",
      "type": "event"
    },
    {
      "anonymous": false,
      "inputs": [
        {
          "indexed": true,
          "internalType": "address",
          "name": "from",
          "type": "address"
        },
        {
          "indexed": true,
          "internalType": "address",
          "name": "to",
          "type": "address"
        },
        {
          "indexed": false,
          "internalType": "uint256",
          "name": "value",
          "type": "uint256"
        }
      ],
      "name": "Transfer",
      "type": "event"
    },
    {
      "inputs": [
        {
          "internalType": "address",
          "name": "owner",
          "type": "address"
        },
        {
          "internalType": "address",
          "name": "spender",
          "type": "address"
        }
      ],
      "name": "allowance",
      "outputs": [
        {
          "internalType": "uint256",
          "name": "",
          "type": "uint256"
        }
      ],
      "stateMutability": "view",
      "type": "function"
    },
    {
      "inputs": [
        {
          "internalType": "address",
          "name": "spender",
          "type": "address"
        },
        {
          "internalType": "uint256",
          "name": "amount",
          "type": "uint256"
        }
      ],
      "name": "approve",
      "outputs": [
        {
          "internalType": "bool",
          "name": "",
          "type": "bool"
        }
      ],
      "stateMutability": "nonpayable",
      "type": "function"
    },
    {
      "inputs": [
        {
          "internalType": "address",
          "name": "account",
          "type": "address"
        }
      ],
      "name": "balanceOf",
      "outputs": [
        {
          "internalType": "uint256",
          "name": "",
          "type": "uint256"
        }
      ],
      "stateMutability": "view",
      "type": "function"
    },
    {
      "inputs": [],
      "name": "decimals",
      "outputs": [
        {
          "internalType": "uint8",
          "name": "",
          "type": "uint8"
        }
      ],
      "stateMutability": "view",
      "type": "function"
    },
    {
      "inputs": [
        {
          "internalType": "address",
          "name": "spender",
          "type": "address"
        },
        {
          "internalType": "uint256",
          "name": "subtractedValue",
          "type": "uint256"
        }
      ],
      "name": "decreaseAllowance",
      "outputs": [
        {
          "internalType": "bool",
          "name": "",
          "type": "bool"
        }
      ],
      "stateMutability": "nonpayable",
      "type": "function"
    },
    {
      "inputs": [
        {
          "internalType": "address",
          "name": "spender",
          "type": "address"
        },
        {
          "internalType": "uint256",
          "name": "addedValue",
          "type": "uint256"
        }
      ],
      "name": "increaseAllowance",
      "outputs": [
        {
          "internalType": "bool",
          "name": "",
          "type": "bool"
        }
      ],
      "stateMutability": "nonpayable",
      "type": "function"
    },
    {
      "inputs": [],
      "name": "name",
      "outputs": [
        {
          "internalType": "string",
          "name": "",
          "type": "string"
        }
      ],
      "stateMutability": "view",
      "type": "function"
    },
    {
      "inputs": [],
      "name": "symbol",
      "outputs": [
        {
          "internalType": "string",
          "name": "",
          "type": "string"
        }
      ],
      "stateMutability": "view",
      "type": "function"
    },
    {
      "inputs": [],
      "name": "totalSupply",
      "outputs": [
        {
          "internalType": "uint256",
          "name": "",
          "type": "uint256"
        }
      ],
      "stateMutability": "view",
      "type": "function"
    },
    {
      "inputs": [
        {
          "internalType": "address",
          "name": "to",
          "type": "address"
        },
        {
          "internalType": "uint256",
          "name": "amount",
          "type": "uint256"
        }
      ],
      "name": "transfer",
      "outputs": [
        {
          "internalType": "bool",
          "name": "",
          "type": "bool"
        }
      ],
      "stateMutability": "nonpayable",
      "type": "function"
    },
    {
      "inputs": [
        {
          "internalType": "address",
          "name": "from",
          "type": "address"
        },
        {
          "internalType": "address",
          "name": "to",
          "type": "address"
        },
        {
          "internalType": "uint256",
          "name": "amount",
          "type": "uint256"
        }
      ],
      "name": "transferFrom",
      "outputs": [
        {
          "internalType": "bool",
          "name": "",
          "type": "bool"
        }
      ],
      "stateMutability": "nonpayable",
      "type": "function"
    },
    {
      "inputs": [
        {
          "internalType": "uint256",
          "name": "_amount",
          "type": "uint256"
        }
      ],
      "name": "get_ettr_balance_subtract",
      "outputs": [
        {
          "internalType": "bool",
          "name": "",
          "type": "bool"
        }
      ],
      "stateMutability": "nonpayable",
      "type": "function"
    },
    {
      "inputs": [
        {
          "internalType": "uint256",
          "name": "_amount",
          "type": "uint256"
        }
      ],
      "name": "ettr_mint",
      "outputs": [
        {
          "internalType": "bool",
          "name": "",
          "type": "bool"
        }
      ],
      "stateMutability": "nonpayable",
      "type": "function"
    }
  ],
  "bytecode": "0x60806040523480156200001157600080fd5b506040518060400160405280600581526020017f45747472320000000000000000000000000000000000000000000000000000008152506040518060400160405280600581526020017f4554545232000000000000000000000000000000000000000000000000000000815250816003908051906020019062000096929190620000b8565b508060049080519060200190620000af929190620000b8565b505050620001cd565b828054620000c69062000168565b90600052602060002090601f016020900481019282620000ea576000855562000136565b82601f106200010557805160ff191683800117855562000136565b8280016001018555821562000136579182015b828111156200013557825182559160200191906001019062000118565b5b50905062000145919062000149565b5090565b5b80821115620001645760008160009055506001016200014a565b5090565b600060028204905060018216806200018157607f821691505b602082108114156200019857620001976200019e565b5b50919050565b7f4e487b7100000000000000000000000000000000000000000000000000000000600052602260045260246000fd5b61177080620001dd6000396000f3fe608060405234801561001057600080fd5b50600436106100cf5760003560e01c8063395093511161008c57806395d89b411161006657806395d89b411461024e578063a457c2d71461026c578063a9059cbb1461029c578063dd62ed3e146102cc576100cf565b806339509351146101be57806342e64b36146101ee57806370a082311461021e576100cf565b806306fdde03146100d4578063095ea7b3146100f25780630a02dd931461012257806318160ddd1461015257806323b872dd14610170578063313ce567146101a0575b600080fd5b6100dc6102fc565b6040516100e99190610fdc565b60405180910390f35b61010c60048036038101906101079190610dd6565b61038e565b6040516101199190610fc1565b60405180910390f35b61013c60048036038101906101379190610e16565b6103b1565b6040516101499190610fc1565b60405180910390f35b61015a6103e7565b60405161016791906110fe565b60405180910390f35b61018a60048036038101906101859190610d83565b6103f1565b6040516101979190610fc1565b60405180910390f35b6101a8610420565b6040516101b59190611119565b60405180910390f35b6101d860048036038101906101d39190610dd6565b610429565b6040516101e59190610fc1565b60405180910390f35b61020860048036038101906102039190610e16565b610460565b6040516102159190610fc1565b60405180910390f35b61023860048036038101906102339190610d16565b6104a7565b60405161024591906110fe565b60405180910390f35b6102566104ef565b6040516102639190610fdc565b60405180910390f35b61028660048036038101906102819190610dd6565b610581565b6040516102939190610fc1565b60405180910390f35b6102b660048036038101906102b19190610dd6565b6105f8565b6040516102c39190610fc1565b60405180910390f35b6102e660048036038101906102e19190610d43565b61061b565b6040516102f391906110fe565b60405180910390f35b60606003805461030b9061142d565b80601f01602080910402602001604051908101604052809291908181526020018280546103379061142d565b80156103845780601f1061035957610100808354040283529160200191610384565b820191906000526020600020905b81548152906001019060200180831161036757829003601f168201915b5050505050905090565b6000806103996106a2565b90506103a68185856106aa565b600191505092915050565b60006103de336103bf610420565b60ff16600a6103ce91906111f9565b846103d99190611317565b610875565b60019050919050565b6000600254905090565b6000806103fc6106a2565b90506104098582856109d5565b610414858585610a61565b60019150509392505050565b60006012905090565b6000806104346106a2565b9050610455818585610446858961061b565b6104509190611150565b6106aa565b600191505092915050565b60008061046b610420565b60ff16600a61047a91906111f9565b836104859190611317565b9050600081610493336104a7565b61049d9190611371565b1015915050919050565b60008060008373ffffffffffffffffffffffffffffffffffffffff1673ffffffffffffffffffffffffffffffffffffffff168152602001908152602001600020549050919050565b6060600480546104fe9061142d565b80601f016020809104026020016040519081016040528092919081815260200182805461052a9061142d565b80156105775780601f1061054c57610100808354040283529160200191610577565b820191906000526020600020905b81548152906001019060200180831161055a57829003601f168201915b5050505050905090565b60008061058c6106a2565b9050600061059a828661061b565b9050838110156105df576040517f08c379a00000000000000000000000000000000000000000000000000000000081526004016105d6906110be565b60405180910390fd5b6105ec82868684036106aa565b60019250505092915050565b6000806106036106a2565b9050610610818585610a61565b600191505092915050565b6000600160008473ffffffffffffffffffffffffffffffffffffffff1673ffffffffffffffffffffffffffffffffffffffff16815260200190815260200160002060008373ffffffffffffffffffffffffffffffffffffffff1673ffffffffffffffffffffffffffffffffffffffff16815260200190815260200160002054905092915050565b600033905090565b600073ffffffffffffffffffffffffffffffffffffffff168373ffffffffffffffffffffffffffffffffffffffff16141561071a576040517f08c379a00000000000000000000000000000000000000000000000000000000081526004016107119061109e565b60405180910390fd5b600073ffffffffffffffffffffffffffffffffffffffff168273ffffffffffffffffffffffffffffffffffffffff16141561078a576040517f08c379a00000000000000000000000000000000000000000000000000000000081526004016107819061101e565b60405180910390fd5b80600160008573ffffffffffffffffffffffffffffffffffffffff1673ffffffffffffffffffffffffffffffffffffffff16815260200190815260200160002060008473ffffffffffffffffffffffffffffffffffffffff1673ffffffffffffffffffffffffffffffffffffffff168152602001908152602001600020819055508173ffffffffffffffffffffffffffffffffffffffff168373ffffffffffffffffffffffffffffffffffffffff167f8c5be1e5ebec7d5bd14f71427d1e84f3dd0314c0f7b2291e5b200ac8c7c3b9258360405161086891906110fe565b60405180910390a3505050565b600073ffffffffffffffffffffffffffffffffffffffff168273ffffffffffffffffffffffffffffffffffffffff1614156108e5576040517f08c379a00000000000000000000000000000000000000000000000000000000081526004016108dc906110de565b60405180910390fd5b6108f160008383610ce2565b80600260008282546109039190611150565b92505081905550806000808473ffffffffffffffffffffffffffffffffffffffff1673ffffffffffffffffffffffffffffffffffffffff16815260200190815260200160002060008282546109589190611150565b925050819055508173ffffffffffffffffffffffffffffffffffffffff16600073ffffffffffffffffffffffffffffffffffffffff167fddf252ad1be2c89b69c2b068fc378daa952ba7f163c4a11628f55a4df523b3ef836040516109bd91906110fe565b60405180910390a36109d160008383610ce7565b5050565b60006109e1848461061b565b90507fffffffffffffffffffffffffffffffffffffffffffffffffffffffffffffffff8114610a5b5781811015610a4d576040517f08c379a0000000000000000000000000000000000000000000000000000000008152600401610a449061103e565b60405180910390fd5b610a5a84848484036106aa565b5b50505050565b600073ffffffffffffffffffffffffffffffffffffffff168373ffffffffffffffffffffffffffffffffffffffff161415610ad1576040517f08c379a0000000000000000000000000000000000000000000000000000000008152600401610ac89061107e565b60405180910390fd5b600073ffffffffffffffffffffffffffffffffffffffff168273ffffffffffffffffffffffffffffffffffffffff161415610b41576040517f08c379a0000000000000000000000000000000000000000000000000000000008152600401610b3890610ffe565b60405180910390fd5b610b4c838383610ce2565b60008060008573ffffffffffffffffffffffffffffffffffffffff1673ffffffffffffffffffffffffffffffffffffffff16815260200190815260200160002054905081811015610bd2576040517f08c379a0000000000000000000000000000000000000000000000000000000008152600401610bc99061105e565b60405180910390fd5b8181036000808673ffffffffffffffffffffffffffffffffffffffff1673ffffffffffffffffffffffffffffffffffffffff16815260200190815260200160002081905550816000808573ffffffffffffffffffffffffffffffffffffffff1673ffffffffffffffffffffffffffffffffffffffff1681526020019081526020016000206000828254610c659190611150565b925050819055508273ffffffffffffffffffffffffffffffffffffffff168473ffffffffffffffffffffffffffffffffffffffff167fddf252ad1be2c89b69c2b068fc378daa952ba7f163c4a11628f55a4df523b3ef84604051610cc991906110fe565b60405180910390a3610cdc848484610ce7565b50505050565b505050565b505050565b600081359050610cfb8161170c565b92915050565b600081359050610d1081611723565b92915050565b600060208284031215610d2c57610d2b6114bd565b5b6000610d3a84828501610cec565b91505092915050565b60008060408385031215610d5a57610d596114bd565b5b6000610d6885828601610cec565b9250506020610d7985828601610cec565b9150509250929050565b600080600060608486031215610d9c57610d9b6114bd565b5b6000610daa86828701610cec565b9350506020610dbb86828701610cec565b9250506040610dcc86828701610d01565b9150509250925092565b60008060408385031215610ded57610dec6114bd565b5b6000610dfb85828601610cec565b9250506020610e0c85828601610d01565b9150509250929050565b600060208284031215610e2c57610e2b6114bd565b5b6000610e3a84828501610d01565b91505092915050565b610e4c816113b7565b82525050565b6000610e5d82611134565b610e67818561113f565b9350610e778185602086016113fa565b610e80816114c2565b840191505092915050565b6000610e9860238361113f565b9150610ea3826114e0565b604082019050919050565b6000610ebb60228361113f565b9150610ec68261152f565b604082019050919050565b6000610ede601d8361113f565b9150610ee98261157e565b602082019050919050565b6000610f0160268361113f565b9150610f0c826115a7565b604082019050919050565b6000610f2460258361113f565b9150610f2f826115f6565b604082019050919050565b6000610f4760248361113f565b9150610f5282611645565b604082019050919050565b6000610f6a60258361113f565b9150610f7582611694565b604082019050919050565b6000610f8d601f8361113f565b9150610f98826116e3565b602082019050919050565b610fac816113e3565b82525050565b610fbb816113ed565b82525050565b6000602082019050610fd66000830184610e43565b92915050565b60006020820190508181036000830152610ff68184610e52565b905092915050565b6000602082019050818103600083015261101781610e8b565b9050919050565b6000602082019050818103600083015261103781610eae565b9050919050565b6000602082019050818103600083015261105781610ed1565b9050919050565b6000602082019050818103600083015261107781610ef4565b9050919050565b6000602082019050818103600083015261109781610f17565b9050919050565b600060208201905081810360008301526110b781610f3a565b9050919050565b600060208201905081810360008301526110d781610f5d565b9050919050565b600060208201905081810360008301526110f781610f80565b9050919050565b60006020820190506111136000830184610fa3565b92915050565b600060208201905061112e6000830184610fb2565b92915050565b600081519050919050565b600082825260208201905092915050565b600061115b826113e3565b9150611166836113e3565b9250827fffffffffffffffffffffffffffffffffffffffffffffffffffffffffffffffff0382111561119b5761119a61145f565b5b828201905092915050565b6000808291508390505b60018511156111f0578086048111156111cc576111cb61145f565b5b60018516156111db5780820291505b80810290506111e9856114d3565b94506111b0565b94509492505050565b6000611204826113e3565b915061120f836113e3565b925061123c7fffffffffffffffffffffffffffffffffffffffffffffffffffffffffffffffff8484611244565b905092915050565b6000826112545760019050611310565b816112625760009050611310565b81600181146112785760028114611282576112b1565b6001915050611310565b60ff8411156112945761129361145f565b5b8360020a9150848211156112ab576112aa61145f565b5b50611310565b5060208310610133831016604e8410600b84101617156112e65782820a9050838111156112e1576112e061145f565b5b611310565b6112f384848460016111a6565b9250905081840481111561130a5761130961145f565b5b81810290505b9392505050565b6000611322826113e3565b915061132d836113e3565b9250817fffffffffffffffffffffffffffffffffffffffffffffffffffffffffffffffff04831182151516156113665761136561145f565b5b828202905092915050565b600061137c826113e3565b9150611387836113e3565b92508282101561139a5761139961145f565b5b828203905092915050565b60006113b0826113c3565b9050919050565b60008115159050919050565b600073ffffffffffffffffffffffffffffffffffffffff82169050919050565b6000819050919050565b600060ff82169050919050565b60005b838110156114185780820151818401526020810190506113fd565b83811115611427576000848401525b50505050565b6000600282049050600182168061144557607f821691505b602082108114156114595761145861148e565b5b50919050565b7f4e487b7100000000000000000000000000000000000000000000000000000000600052601160045260246000fd5b7f4e487b7100000000000000000000000000000000000000000000000000000000600052602260045260246000fd5b600080fd5b6000601f19601f8301169050919050565b60008160011c9050919050565b7f45524332303a207472616e7366657220746f20746865207a65726f206164647260008201527f6573730000000000000000000000000000000000000000000000000000000000602082015250565b7f45524332303a20617070726f766520746f20746865207a65726f20616464726560008201527f7373000000000000000000000000000000000000000000000000000000000000602082015250565b7f45524332303a20696e73756666696369656e7420616c6c6f77616e6365000000600082015250565b7f45524332303a207472616e7366657220616d6f756e742065786365656473206260008201527f616c616e63650000000000000000000000000000000000000000000000000000602082015250565b7f45524332303a207472616e736665722066726f6d20746865207a65726f20616460008201527f6472657373000000000000000000000000000000000000000000000000000000602082015250565b7f45524332303a20617070726f76652066726f6d20746865207a65726f2061646460008201527f7265737300000000000000000000000000000000000000000000000000000000602082015250565b7f45524332303a2064656372656173656420616c6c6f77616e63652062656c6f7760008201527f207a65726f000000000000000000000000000000000000000000000000000000602082015250565b7f45524332303a206d696e7420746f20746865207a65726f206164647265737300600082015250565b611715816113a5565b811461172057600080fd5b50565b61172c816113e3565b811461173757600080fd5b5056fea2646970667358221220c2d0cd99a28d1a3f79612d9d77c5c0a3863263c5ffc1ad310182214f096ef7f564736f6c63430008050033",
  "immutableReferences": {},
  "source": "// import '@openzeppelin/contracts/token/ERC721/ERC721.sol';\n// import '@openzeppelin/contracts/token/ERC721/extensions/ERC721Enumerable.sol';\n// import '@openzeppelin/contracts/token/ERC721/extensions/ERC721URIStorage.sol';\n// import './Ettr.sol';\n\n// contract CLTRNFT is ERC721, ERC721Enumerable, ERC721URIStorage{\n\n//     constructor() ERC721(\"Cletter NFT\", \"CLTRNFT\") public {\n//     }\n\n//     // function cltrnft_mint(address _to, string memory _tokenURI, uint256 _amount, address _ettr_contract) public returns(bool) {\n//     //     Ettr E = Ettr(_ettr_contract);\n//     //     if (E.get_ettr_balance_subtract(_amount)){\n//     //         return true;\n//     //     }\n//     //     else {\n//     //         return false;\n//     //     }\n        \n//     // }\n\n//     function ettr_mint(uint256 _amount) public returns(bool) {\n// \t\t_mint(msg.sender, _amount * 10**uint(decimals()));\n// \t\treturn true;\n// \t}\n// }\n\npragma solidity >=0.6.0 <0.9.0;\n\nimport '@openzeppelin/contracts/token/ERC20/ERC20.sol';\n\ncontract Ettr2 is ERC20 {\n\t constructor() public ERC20(\"Ettr2\", \"ETTR2\") {\n    }\n\n\tfunction get_ettr_balance_subtract(uint256 _amount) external returns(bool){\n\t\tuint subtract_value = _amount * 10**uint(decimals());\n\t\treturn balanceOf(msg.sender) - subtract_value >= 0;\n\t}\n\n\tfunction ettr_mint(uint256 _amount) public returns(bool) {\n\t\t_mint(msg.sender, _amount * 10**uint(decimals()));\n\t\treturn true;\n\t}\n\n\t// function ettr_burn(uint256 _amount) external {\n\t// \tif (balanceOf(msg.sender) - _amount >= 0){\n\t// \t\t_burn(msg.sender, _amount);\n\t// \t}\n\t// }\n}\n\n",
  "sourcePath": "/Users/chrismanueltrajano/Documents/Github/clettr/clettr-blockchain/contracts/CLTRNFT.sol",
  "compiler": {
    "name": "solc",
    "version": "0.8.5+commit.a4f2e591.Emscripten.clang"
  },
  "schemaVersion": "3.4.7",
  "updatedAt": "2022-06-13T14:48:55.089Z",
  "devdoc": {
    "kind": "dev",
    "methods": {
      "allowance(address,address)": {
        "details": "See {IERC20-allowance}."
      },
      "approve(address,uint256)": {
        "details": "See {IERC20-approve}. NOTE: If `amount` is the maximum `uint256`, the allowance is not updated on `transferFrom`. This is semantically equivalent to an infinite approval. Requirements: - `spender` cannot be the zero address."
      },
      "balanceOf(address)": {
        "details": "See {IERC20-balanceOf}."
      },
      "decimals()": {
        "details": "Returns the number of decimals used to get its user representation. For example, if `decimals` equals `2`, a balance of `505` tokens should be displayed to a user as `5.05` (`505 / 10 ** 2`). Tokens usually opt for a value of 18, imitating the relationship between Ether and Wei. This is the value {ERC20} uses, unless this function is overridden; NOTE: This information is only used for _display_ purposes: it in no way affects any of the arithmetic of the contract, including {IERC20-balanceOf} and {IERC20-transfer}."
      },
      "decreaseAllowance(address,uint256)": {
        "details": "Atomically decreases the allowance granted to `spender` by the caller. This is an alternative to {approve} that can be used as a mitigation for problems described in {IERC20-approve}. Emits an {Approval} event indicating the updated allowance. Requirements: - `spender` cannot be the zero address. - `spender` must have allowance for the caller of at least `subtractedValue`."
      },
      "increaseAllowance(address,uint256)": {
        "details": "Atomically increases the allowance granted to `spender` by the caller. This is an alternative to {approve} that can be used as a mitigation for problems described in {IERC20-approve}. Emits an {Approval} event indicating the updated allowance. Requirements: - `spender` cannot be the zero address."
      },
      "name()": {
        "details": "Returns the name of the token."
      },
      "symbol()": {
        "details": "Returns the symbol of the token, usually a shorter version of the name."
      },
      "totalSupply()": {
        "details": "See {IERC20-totalSupply}."
      },
      "transfer(address,uint256)": {
        "details": "See {IERC20-transfer}. Requirements: - `to` cannot be the zero address. - the caller must have a balance of at least `amount`."
      },
      "transferFrom(address,address,uint256)": {
        "details": "See {IERC20-transferFrom}. Emits an {Approval} event indicating the updated allowance. This is not required by the EIP. See the note at the beginning of {ERC20}. NOTE: Does not update the allowance if the current allowance is the maximum `uint256`. Requirements: - `from` and `to` cannot be the zero address. - `from` must have a balance of at least `amount`. - the caller must have allowance for ``from``'s tokens of at least `amount`."
      }
    },
    "version": 1
  },
  "userdoc": {
    "kind": "user",
    "methods": {},
    "version": 1
  }
}