{
  "contractName": "Ettr",
  "abi": [
    {
      "inputs": [],
      "stateMutability": "nonpayable",
      "type": "constructor"
    },
    {
      "anonymous": false,
      "inputs": [
        {
          "indexed": true,
          "internalType": "address",
          "name": "owner",
          "type": "address"
        },
        {
          "indexed": true,
          "internalType": "address",
          "name": "spender",
          "type": "address"
        },
        {
          "indexed": false,
          "internalType": "uint256",
          "name": "value",
          "type": "uint256"
        }
      ],
      "name": "Approval",
      "type": "event"
    },
    {
      "anonymous": false,
      "inputs": [
        {
          "indexed": true,
          "internalType": "address",
          "name": "from",
          "type": "address"
        },
        {
          "indexed": true,
          "internalType": "address",
          "name": "to",
          "type": "address"
        },
        {
          "indexed": false,
          "internalType": "uint256",
          "name": "value",
          "type": "uint256"
        }
      ],
      "name": "Transfer",
      "type": "event"
    },
    {
      "inputs": [
        {
          "internalType": "address",
          "name": "owner",
          "type": "address"
        },
        {
          "internalType": "address",
          "name": "spender",
          "type": "address"
        }
      ],
      "name": "allowance",
      "outputs": [
        {
          "internalType": "uint256",
          "name": "",
          "type": "uint256"
        }
      ],
      "stateMutability": "view",
      "type": "function",
      "constant": true
    },
    {
      "inputs": [
        {
          "internalType": "address",
          "name": "spender",
          "type": "address"
        },
        {
          "internalType": "uint256",
          "name": "amount",
          "type": "uint256"
        }
      ],
      "name": "approve",
      "outputs": [
        {
          "internalType": "bool",
          "name": "",
          "type": "bool"
        }
      ],
      "stateMutability": "nonpayable",
      "type": "function"
    },
    {
      "inputs": [
        {
          "internalType": "address",
          "name": "account",
          "type": "address"
        }
      ],
      "name": "balanceOf",
      "outputs": [
        {
          "internalType": "uint256",
          "name": "",
          "type": "uint256"
        }
      ],
      "stateMutability": "view",
      "type": "function",
      "constant": true
    },
    {
      "inputs": [],
      "name": "decimals",
      "outputs": [
        {
          "internalType": "uint8",
          "name": "",
          "type": "uint8"
        }
      ],
      "stateMutability": "view",
      "type": "function",
      "constant": true
    },
    {
      "inputs": [
        {
          "internalType": "address",
          "name": "spender",
          "type": "address"
        },
        {
          "internalType": "uint256",
          "name": "subtractedValue",
          "type": "uint256"
        }
      ],
      "name": "decreaseAllowance",
      "outputs": [
        {
          "internalType": "bool",
          "name": "",
          "type": "bool"
        }
      ],
      "stateMutability": "nonpayable",
      "type": "function"
    },
    {
      "inputs": [
        {
          "internalType": "address",
          "name": "spender",
          "type": "address"
        },
        {
          "internalType": "uint256",
          "name": "addedValue",
          "type": "uint256"
        }
      ],
      "name": "increaseAllowance",
      "outputs": [
        {
          "internalType": "bool",
          "name": "",
          "type": "bool"
        }
      ],
      "stateMutability": "nonpayable",
      "type": "function"
    },
    {
      "inputs": [],
      "name": "name",
      "outputs": [
        {
          "internalType": "string",
          "name": "",
          "type": "string"
        }
      ],
      "stateMutability": "view",
      "type": "function",
      "constant": true
    },
    {
      "inputs": [],
      "name": "symbol",
      "outputs": [
        {
          "internalType": "string",
          "name": "",
          "type": "string"
        }
      ],
      "stateMutability": "view",
      "type": "function",
      "constant": true
    },
    {
      "inputs": [],
      "name": "totalSupply",
      "outputs": [
        {
          "internalType": "uint256",
          "name": "",
          "type": "uint256"
        }
      ],
      "stateMutability": "view",
      "type": "function",
      "constant": true
    },
    {
      "inputs": [
        {
          "internalType": "address",
          "name": "to",
          "type": "address"
        },
        {
          "internalType": "uint256",
          "name": "amount",
          "type": "uint256"
        }
      ],
      "name": "transfer",
      "outputs": [
        {
          "internalType": "bool",
          "name": "",
          "type": "bool"
        }
      ],
      "stateMutability": "nonpayable",
      "type": "function"
    },
    {
      "inputs": [
        {
          "internalType": "address",
          "name": "from",
          "type": "address"
        },
        {
          "internalType": "address",
          "name": "to",
          "type": "address"
        },
        {
          "internalType": "uint256",
          "name": "amount",
          "type": "uint256"
        }
      ],
      "name": "transferFrom",
      "outputs": [
        {
          "internalType": "bool",
          "name": "",
          "type": "bool"
        }
      ],
      "stateMutability": "nonpayable",
      "type": "function"
    },
    {
      "inputs": [
        {
          "internalType": "address",
          "name": "_sender",
          "type": "address"
        },
        {
          "internalType": "uint256",
          "name": "_amount",
          "type": "uint256"
        }
      ],
      "name": "get_ettr_balance_subtract",
      "outputs": [
        {
          "internalType": "bool",
          "name": "",
          "type": "bool"
        }
      ],
      "stateMutability": "nonpayable",
      "type": "function"
    },
    {
      "inputs": [
        {
          "internalType": "uint256",
          "name": "_amount",
          "type": "uint256"
        }
      ],
      "name": "ettr_mint",
      "outputs": [
        {
          "internalType": "bool",
          "name": "",
          "type": "bool"
        }
      ],
      "stateMutability": "nonpayable",
      "type": "function"
    },
    {
      "inputs": [
        {
          "internalType": "address",
          "name": "_sender",
          "type": "address"
        },
        {
          "internalType": "uint256",
          "name": "_amount",
          "type": "uint256"
        }
      ],
      "name": "external_ettr_mint",
      "outputs": [],
      "stateMutability": "nonpayable",
      "type": "function"
    },
    {
      "inputs": [
        {
          "internalType": "address",
          "name": "_sender",
          "type": "address"
        },
        {
          "internalType": "uint256",
          "name": "_amount",
          "type": "uint256"
        }
      ],
      "name": "ettr_burn",
      "outputs": [],
      "stateMutability": "nonpayable",
      "type": "function"
    }
  ],
  "bytecode": "0x60806040523480156200001157600080fd5b506040518060400160405280600481526020017f45747472000000000000000000000000000000000000000000000000000000008152506040518060400160405280600481526020017f4554545200000000000000000000000000000000000000000000000000000000815250816003908051906020019062000096929190620000b8565b508060049080519060200190620000af929190620000b8565b505050620001cd565b828054620000c69062000168565b90600052602060002090601f016020900481019282620000ea576000855562000136565b82601f106200010557805160ff191683800117855562000136565b8280016001018555821562000136579182015b828111156200013557825182559160200191906001019062000118565b5b50905062000145919062000149565b5090565b5b80821115620001645760008160009055506001016200014a565b5090565b600060028204905060018216806200018157607f821691505b602082108114156200019857620001976200019e565b5b50919050565b7f4e487b7100000000000000000000000000000000000000000000000000000000600052602260045260246000fd5b611b4a80620001dd6000396000f3fe608060405234801561001057600080fd5b50600436106100f55760003560e01c80633950935111610097578063a457c2d711610066578063a457c2d7146102ae578063a9059cbb146102de578063dc951e161461030e578063dd62ed3e1461032a576100f5565b8063395093511461020057806370a082311461023057806392422f791461026057806395d89b4114610290576100f5565b806318160ddd116100d357806318160ddd1461017857806323b872dd1461019657806324a69438146101c6578063313ce567146101e2576100f5565b806306fdde03146100fa578063095ea7b3146101185780630a02dd9314610148575b600080fd5b61010261035a565b60405161010f91906112d8565b60405180910390f35b610132600480360381019061012d919061108c565b6103ec565b60405161013f91906112bd565b60405180910390f35b610162600480360381019061015d91906110cc565b61040f565b60405161016f91906112bd565b60405180910390f35b610180610445565b60405161018d919061143a565b60405180910390f35b6101b060048036038101906101ab9190611039565b61044f565b6040516101bd91906112bd565b60405180910390f35b6101e060048036038101906101db919061108c565b61047e565b005b6101ea6104ad565b6040516101f79190611455565b60405180910390f35b61021a6004803603810190610215919061108c565b6104b6565b60405161022791906112bd565b60405180910390f35b61024a60048036038101906102459190610fcc565b6104ed565b604051610257919061143a565b60405180910390f35b61027a6004803603810190610275919061108c565b610535565b60405161028791906112bd565b60405180910390f35b61029861057d565b6040516102a591906112d8565b60405180910390f35b6102c860048036038101906102c3919061108c565b61060f565b6040516102d591906112bd565b60405180910390f35b6102f860048036038101906102f3919061108c565b610686565b60405161030591906112bd565b60405180910390f35b6103286004803603810190610323919061108c565b6106a9565b005b610344600480360381019061033f9190610ff9565b6106fa565b604051610351919061143a565b60405180910390f35b60606003805461036990611769565b80601f016020809104026020016040519081016040528092919081815260200182805461039590611769565b80156103e25780601f106103b7576101008083540402835291602001916103e2565b820191906000526020600020905b8154815290600101906020018083116103c557829003601f168201915b5050505050905090565b6000806103f7610781565b9050610404818585610789565b600191505092915050565b600061043c3361041d6104ad565b60ff16600a61042c9190611535565b846104379190611653565b610954565b60019050919050565b6000600254905090565b60008061045a610781565b9050610467858285610ab4565b610472858585610b40565b60019150509392505050565b6104a98261048a6104ad565b60ff16600a6104999190611535565b836104a49190611653565b610954565b5050565b60006012905090565b6000806104c1610781565b90506104e28185856104d385896106fa565b6104dd919061148c565b610789565b600191505092915050565b60008060008373ffffffffffffffffffffffffffffffffffffffff1673ffffffffffffffffffffffffffffffffffffffff168152602001908152602001600020549050919050565b6000806105406104ad565b60ff16600a61054f9190611535565b8361055a9190611653565b9050600081610568866104ed565b61057291906116ad565b101591505092915050565b60606004805461058c90611769565b80601f01602080910402602001604051908101604052809291908181526020018280546105b890611769565b80156106055780601f106105da57610100808354040283529160200191610605565b820191906000526020600020905b8154815290600101906020018083116105e857829003601f168201915b5050505050905090565b60008061061a610781565b9050600061062882866106fa565b90508381101561066d576040517f08c379a0000000000000000000000000000000000000000000000000000000008152600401610664906113fa565b60405180910390fd5b61067a8286868403610789565b60019250505092915050565b600080610691610781565b905061069e818585610b40565b600191505092915050565b60006106b36104ad565b60ff16600a6106c29190611535565b826106cd9190611653565b90506000816106db856104ed565b6106e591906116ad565b106106f5576106f48382610dc1565b5b505050565b6000600160008473ffffffffffffffffffffffffffffffffffffffff1673ffffffffffffffffffffffffffffffffffffffff16815260200190815260200160002060008373ffffffffffffffffffffffffffffffffffffffff1673ffffffffffffffffffffffffffffffffffffffff16815260200190815260200160002054905092915050565b600033905090565b600073ffffffffffffffffffffffffffffffffffffffff168373ffffffffffffffffffffffffffffffffffffffff1614156107f9576040517f08c379a00000000000000000000000000000000000000000000000000000000081526004016107f0906113da565b60405180910390fd5b600073ffffffffffffffffffffffffffffffffffffffff168273ffffffffffffffffffffffffffffffffffffffff161415610869576040517f08c379a00000000000000000000000000000000000000000000000000000000081526004016108609061133a565b60405180910390fd5b80600160008573ffffffffffffffffffffffffffffffffffffffff1673ffffffffffffffffffffffffffffffffffffffff16815260200190815260200160002060008473ffffffffffffffffffffffffffffffffffffffff1673ffffffffffffffffffffffffffffffffffffffff168152602001908152602001600020819055508173ffffffffffffffffffffffffffffffffffffffff168373ffffffffffffffffffffffffffffffffffffffff167f8c5be1e5ebec7d5bd14f71427d1e84f3dd0314c0f7b2291e5b200ac8c7c3b92583604051610947919061143a565b60405180910390a3505050565b600073ffffffffffffffffffffffffffffffffffffffff168273ffffffffffffffffffffffffffffffffffffffff1614156109c4576040517f08c379a00000000000000000000000000000000000000000000000000000000081526004016109bb9061141a565b60405180910390fd5b6109d060008383610f98565b80600260008282546109e2919061148c565b92505081905550806000808473ffffffffffffffffffffffffffffffffffffffff1673ffffffffffffffffffffffffffffffffffffffff1681526020019081526020016000206000828254610a37919061148c565b925050819055508173ffffffffffffffffffffffffffffffffffffffff16600073ffffffffffffffffffffffffffffffffffffffff167fddf252ad1be2c89b69c2b068fc378daa952ba7f163c4a11628f55a4df523b3ef83604051610a9c919061143a565b60405180910390a3610ab060008383610f9d565b5050565b6000610ac084846106fa565b90507fffffffffffffffffffffffffffffffffffffffffffffffffffffffffffffffff8114610b3a5781811015610b2c576040517f08c379a0000000000000000000000000000000000000000000000000000000008152600401610b239061135a565b60405180910390fd5b610b398484848403610789565b5b50505050565b600073ffffffffffffffffffffffffffffffffffffffff168373ffffffffffffffffffffffffffffffffffffffff161415610bb0576040517f08c379a0000000000000000000000000000000000000000000000000000000008152600401610ba7906113ba565b60405180910390fd5b600073ffffffffffffffffffffffffffffffffffffffff168273ffffffffffffffffffffffffffffffffffffffff161415610c20576040517f08c379a0000000000000000000000000000000000000000000000000000000008152600401610c17906112fa565b60405180910390fd5b610c2b838383610f98565b60008060008573ffffffffffffffffffffffffffffffffffffffff1673ffffffffffffffffffffffffffffffffffffffff16815260200190815260200160002054905081811015610cb1576040517f08c379a0000000000000000000000000000000000000000000000000000000008152600401610ca89061137a565b60405180910390fd5b8181036000808673ffffffffffffffffffffffffffffffffffffffff1673ffffffffffffffffffffffffffffffffffffffff16815260200190815260200160002081905550816000808573ffffffffffffffffffffffffffffffffffffffff1673ffffffffffffffffffffffffffffffffffffffff1681526020019081526020016000206000828254610d44919061148c565b925050819055508273ffffffffffffffffffffffffffffffffffffffff168473ffffffffffffffffffffffffffffffffffffffff167fddf252ad1be2c89b69c2b068fc378daa952ba7f163c4a11628f55a4df523b3ef84604051610da8919061143a565b60405180910390a3610dbb848484610f9d565b50505050565b600073ffffffffffffffffffffffffffffffffffffffff168273ffffffffffffffffffffffffffffffffffffffff161415610e31576040517f08c379a0000000000000000000000000000000000000000000000000000000008152600401610e289061139a565b60405180910390fd5b610e3d82600083610f98565b60008060008473ffffffffffffffffffffffffffffffffffffffff1673ffffffffffffffffffffffffffffffffffffffff16815260200190815260200160002054905081811015610ec3576040517f08c379a0000000000000000000000000000000000000000000000000000000008152600401610eba9061131a565b60405180910390fd5b8181036000808573ffffffffffffffffffffffffffffffffffffffff1673ffffffffffffffffffffffffffffffffffffffff168152602001908152602001600020819055508160026000828254610f1a91906116ad565b92505081905550600073ffffffffffffffffffffffffffffffffffffffff168373ffffffffffffffffffffffffffffffffffffffff167fddf252ad1be2c89b69c2b068fc378daa952ba7f163c4a11628f55a4df523b3ef84604051610f7f919061143a565b60405180910390a3610f9383600084610f9d565b505050565b505050565b505050565b600081359050610fb181611ae6565b92915050565b600081359050610fc681611afd565b92915050565b600060208284031215610fe257610fe16117f9565b5b6000610ff084828501610fa2565b91505092915050565b600080604083850312156110105761100f6117f9565b5b600061101e85828601610fa2565b925050602061102f85828601610fa2565b9150509250929050565b600080600060608486031215611052576110516117f9565b5b600061106086828701610fa2565b935050602061107186828701610fa2565b925050604061108286828701610fb7565b9150509250925092565b600080604083850312156110a3576110a26117f9565b5b60006110b185828601610fa2565b92505060206110c285828601610fb7565b9150509250929050565b6000602082840312156110e2576110e16117f9565b5b60006110f084828501610fb7565b91505092915050565b611102816116f3565b82525050565b600061111382611470565b61111d818561147b565b935061112d818560208601611736565b611136816117fe565b840191505092915050565b600061114e60238361147b565b91506111598261181c565b604082019050919050565b600061117160228361147b565b915061117c8261186b565b604082019050919050565b600061119460228361147b565b915061119f826118ba565b604082019050919050565b60006111b7601d8361147b565b91506111c282611909565b602082019050919050565b60006111da60268361147b565b91506111e582611932565b604082019050919050565b60006111fd60218361147b565b915061120882611981565b604082019050919050565b600061122060258361147b565b915061122b826119d0565b604082019050919050565b600061124360248361147b565b915061124e82611a1f565b604082019050919050565b600061126660258361147b565b915061127182611a6e565b604082019050919050565b6000611289601f8361147b565b915061129482611abd565b602082019050919050565b6112a88161171f565b82525050565b6112b781611729565b82525050565b60006020820190506112d260008301846110f9565b92915050565b600060208201905081810360008301526112f28184611108565b905092915050565b6000602082019050818103600083015261131381611141565b9050919050565b6000602082019050818103600083015261133381611164565b9050919050565b6000602082019050818103600083015261135381611187565b9050919050565b60006020820190508181036000830152611373816111aa565b9050919050565b60006020820190508181036000830152611393816111cd565b9050919050565b600060208201905081810360008301526113b3816111f0565b9050919050565b600060208201905081810360008301526113d381611213565b9050919050565b600060208201905081810360008301526113f381611236565b9050919050565b6000602082019050818103600083015261141381611259565b9050919050565b600060208201905081810360008301526114338161127c565b9050919050565b600060208201905061144f600083018461129f565b92915050565b600060208201905061146a60008301846112ae565b92915050565b600081519050919050565b600082825260208201905092915050565b60006114978261171f565b91506114a28361171f565b9250827fffffffffffffffffffffffffffffffffffffffffffffffffffffffffffffffff038211156114d7576114d661179b565b5b828201905092915050565b6000808291508390505b600185111561152c578086048111156115085761150761179b565b5b60018516156115175780820291505b80810290506115258561180f565b94506114ec565b94509492505050565b60006115408261171f565b915061154b8361171f565b92506115787fffffffffffffffffffffffffffffffffffffffffffffffffffffffffffffffff8484611580565b905092915050565b600082611590576001905061164c565b8161159e576000905061164c565b81600181146115b457600281146115be576115ed565b600191505061164c565b60ff8411156115d0576115cf61179b565b5b8360020a9150848211156115e7576115e661179b565b5b5061164c565b5060208310610133831016604e8410600b84101617156116225782820a90508381111561161d5761161c61179b565b5b61164c565b61162f84848460016114e2565b925090508184048111156116465761164561179b565b5b81810290505b9392505050565b600061165e8261171f565b91506116698361171f565b9250817fffffffffffffffffffffffffffffffffffffffffffffffffffffffffffffffff04831182151516156116a2576116a161179b565b5b828202905092915050565b60006116b88261171f565b91506116c38361171f565b9250828210156116d6576116d561179b565b5b828203905092915050565b60006116ec826116ff565b9050919050565b60008115159050919050565b600073ffffffffffffffffffffffffffffffffffffffff82169050919050565b6000819050919050565b600060ff82169050919050565b60005b83811015611754578082015181840152602081019050611739565b83811115611763576000848401525b50505050565b6000600282049050600182168061178157607f821691505b60208210811415611795576117946117ca565b5b50919050565b7f4e487b7100000000000000000000000000000000000000000000000000000000600052601160045260246000fd5b7f4e487b7100000000000000000000000000000000000000000000000000000000600052602260045260246000fd5b600080fd5b6000601f19601f8301169050919050565b60008160011c9050919050565b7f45524332303a207472616e7366657220746f20746865207a65726f206164647260008201527f6573730000000000000000000000000000000000000000000000000000000000602082015250565b7f45524332303a206275726e20616d6f756e7420657863656564732062616c616e60008201527f6365000000000000000000000000000000000000000000000000000000000000602082015250565b7f45524332303a20617070726f766520746f20746865207a65726f20616464726560008201527f7373000000000000000000000000000000000000000000000000000000000000602082015250565b7f45524332303a20696e73756666696369656e7420616c6c6f77616e6365000000600082015250565b7f45524332303a207472616e7366657220616d6f756e742065786365656473206260008201527f616c616e63650000000000000000000000000000000000000000000000000000602082015250565b7f45524332303a206275726e2066726f6d20746865207a65726f2061646472657360008201527f7300000000000000000000000000000000000000000000000000000000000000602082015250565b7f45524332303a207472616e736665722066726f6d20746865207a65726f20616460008201527f6472657373000000000000000000000000000000000000000000000000000000602082015250565b7f45524332303a20617070726f76652066726f6d20746865207a65726f2061646460008201527f7265737300000000000000000000000000000000000000000000000000000000602082015250565b7f45524332303a2064656372656173656420616c6c6f77616e63652062656c6f7760008201527f207a65726f000000000000000000000000000000000000000000000000000000602082015250565b7f45524332303a206d696e7420746f20746865207a65726f206164647265737300600082015250565b611aef816116e1565b8114611afa57600080fd5b50565b611b068161171f565b8114611b1157600080fd5b5056fea2646970667358221220768ce783b8e7deb209f05011259dec4865802c98a18de0fbe0c02f10cc22326864736f6c63430008050033",
  "immutableReferences": {},
  "source": "pragma solidity >=0.6.0 <0.9.0;\n\nimport '@openzeppelin/contracts/token/ERC20/ERC20.sol';\n\ncontract Ettr is ERC20 {\n\t constructor() public ERC20(\"Ettr\", \"ETTR\") {\n    }\n\n\tfunction get_ettr_balance_subtract(address _sender, uint256 _amount) external returns(bool){\n\t\tuint subtract_value = _amount * 10**uint(decimals());\n\t\treturn balanceOf(_sender) - subtract_value >= 0;\n\t}\n\n\tfunction ettr_mint(uint256 _amount) public returns(bool) {\n\t\t_mint(msg.sender, _amount * 10**uint(decimals()));\n\t\treturn true;\n\t}\n\n\tfunction external_ettr_mint(address _sender, uint256 _amount) external {\n\t\t_mint(_sender, _amount * 10**uint(decimals()));\n\t}\n\n\tfunction ettr_burn(address _sender, uint256 _amount) external {\n\t\tuint subtract_value = _amount * 10**uint(decimals());\n\t\tif (balanceOf(_sender) - subtract_value >= 0){\n\t\t\t_burn(_sender, subtract_value);\n\t\t}\n\t}\n}\n\n",
  "sourcePath": "/Users/chrismanueltrajano/Documents/Github/clettr/clettr-blockchain/contracts/Ettr.sol",
  "compiler": {
    "name": "solc",
    "version": "0.8.5+commit.a4f2e591.Emscripten.clang"
  },
  "schemaVersion": "3.4.7",
  "updatedAt": "2022-06-13T17:17:55.862Z",
  "networkType": "ethereum",
  "devdoc": {
    "kind": "dev",
    "methods": {
      "allowance(address,address)": {
        "details": "See {IERC20-allowance}."
      },
      "approve(address,uint256)": {
        "details": "See {IERC20-approve}. NOTE: If `amount` is the maximum `uint256`, the allowance is not updated on `transferFrom`. This is semantically equivalent to an infinite approval. Requirements: - `spender` cannot be the zero address."
      },
      "balanceOf(address)": {
        "details": "See {IERC20-balanceOf}."
      },
      "decimals()": {
        "details": "Returns the number of decimals used to get its user representation. For example, if `decimals` equals `2`, a balance of `505` tokens should be displayed to a user as `5.05` (`505 / 10 ** 2`). Tokens usually opt for a value of 18, imitating the relationship between Ether and Wei. This is the value {ERC20} uses, unless this function is overridden; NOTE: This information is only used for _display_ purposes: it in no way affects any of the arithmetic of the contract, including {IERC20-balanceOf} and {IERC20-transfer}."
      },
      "decreaseAllowance(address,uint256)": {
        "details": "Atomically decreases the allowance granted to `spender` by the caller. This is an alternative to {approve} that can be used as a mitigation for problems described in {IERC20-approve}. Emits an {Approval} event indicating the updated allowance. Requirements: - `spender` cannot be the zero address. - `spender` must have allowance for the caller of at least `subtractedValue`."
      },
      "increaseAllowance(address,uint256)": {
        "details": "Atomically increases the allowance granted to `spender` by the caller. This is an alternative to {approve} that can be used as a mitigation for problems described in {IERC20-approve}. Emits an {Approval} event indicating the updated allowance. Requirements: - `spender` cannot be the zero address."
      },
      "name()": {
        "details": "Returns the name of the token."
      },
      "symbol()": {
        "details": "Returns the symbol of the token, usually a shorter version of the name."
      },
      "totalSupply()": {
        "details": "See {IERC20-totalSupply}."
      },
      "transfer(address,uint256)": {
        "details": "See {IERC20-transfer}. Requirements: - `to` cannot be the zero address. - the caller must have a balance of at least `amount`."
      },
      "transferFrom(address,address,uint256)": {
        "details": "See {IERC20-transferFrom}. Emits an {Approval} event indicating the updated allowance. This is not required by the EIP. See the note at the beginning of {ERC20}. NOTE: Does not update the allowance if the current allowance is the maximum `uint256`. Requirements: - `from` and `to` cannot be the zero address. - `from` must have a balance of at least `amount`. - the caller must have allowance for ``from``'s tokens of at least `amount`."
      }
    },
    "version": 1
  },
  "userdoc": {
    "kind": "user",
    "methods": {},
    "version": 1
  }
}