{
  "contractName": "SUSDC",
  "abi": [
    {
      "inputs": [],
      "stateMutability": "nonpayable",
      "type": "constructor"
    },
    {
      "anonymous": false,
      "inputs": [
        {
          "indexed": true,
          "internalType": "address",
          "name": "owner",
          "type": "address"
        },
        {
          "indexed": true,
          "internalType": "address",
          "name": "spender",
          "type": "address"
        },
        {
          "indexed": false,
          "internalType": "uint256",
          "name": "value",
          "type": "uint256"
        }
      ],
      "name": "Approval",
      "type": "event"
    },
    {
      "anonymous": false,
      "inputs": [
        {
          "indexed": true,
          "internalType": "address",
          "name": "account",
          "type": "address"
        },
        {
          "indexed": false,
          "internalType": "uint256",
          "name": "balance",
          "type": "uint256"
        },
        {
          "indexed": false,
          "internalType": "uint256",
          "name": "subtractedValue",
          "type": "uint256"
        },
        {
          "indexed": false,
          "internalType": "bool",
          "name": "isBalanceEnough",
          "type": "bool"
        }
      ],
      "name": "BalanceCheck",
      "type": "event"
    },
    {
      "anonymous": false,
      "inputs": [
        {
          "indexed": true,
          "internalType": "address",
          "name": "from",
          "type": "address"
        },
        {
          "indexed": true,
          "internalType": "address",
          "name": "to",
          "type": "address"
        },
        {
          "indexed": false,
          "internalType": "uint256",
          "name": "value",
          "type": "uint256"
        }
      ],
      "name": "Transfer",
      "type": "event"
    },
    {
      "inputs": [
        {
          "internalType": "address",
          "name": "owner",
          "type": "address"
        },
        {
          "internalType": "address",
          "name": "spender",
          "type": "address"
        }
      ],
      "name": "allowance",
      "outputs": [
        {
          "internalType": "uint256",
          "name": "",
          "type": "uint256"
        }
      ],
      "stateMutability": "view",
      "type": "function",
      "constant": true
    },
    {
      "inputs": [
        {
          "internalType": "address",
          "name": "spender",
          "type": "address"
        },
        {
          "internalType": "uint256",
          "name": "amount",
          "type": "uint256"
        }
      ],
      "name": "approve",
      "outputs": [
        {
          "internalType": "bool",
          "name": "",
          "type": "bool"
        }
      ],
      "stateMutability": "nonpayable",
      "type": "function"
    },
    {
      "inputs": [
        {
          "internalType": "address",
          "name": "account",
          "type": "address"
        }
      ],
      "name": "balanceOf",
      "outputs": [
        {
          "internalType": "uint256",
          "name": "",
          "type": "uint256"
        }
      ],
      "stateMutability": "view",
      "type": "function",
      "constant": true
    },
    {
      "inputs": [],
      "name": "decimals",
      "outputs": [
        {
          "internalType": "uint8",
          "name": "",
          "type": "uint8"
        }
      ],
      "stateMutability": "view",
      "type": "function",
      "constant": true
    },
    {
      "inputs": [
        {
          "internalType": "address",
          "name": "spender",
          "type": "address"
        },
        {
          "internalType": "uint256",
          "name": "subtractedValue",
          "type": "uint256"
        }
      ],
      "name": "decreaseAllowance",
      "outputs": [
        {
          "internalType": "bool",
          "name": "",
          "type": "bool"
        }
      ],
      "stateMutability": "nonpayable",
      "type": "function"
    },
    {
      "inputs": [
        {
          "internalType": "address",
          "name": "spender",
          "type": "address"
        },
        {
          "internalType": "uint256",
          "name": "addedValue",
          "type": "uint256"
        }
      ],
      "name": "increaseAllowance",
      "outputs": [
        {
          "internalType": "bool",
          "name": "",
          "type": "bool"
        }
      ],
      "stateMutability": "nonpayable",
      "type": "function"
    },
    {
      "inputs": [],
      "name": "name",
      "outputs": [
        {
          "internalType": "string",
          "name": "",
          "type": "string"
        }
      ],
      "stateMutability": "view",
      "type": "function",
      "constant": true
    },
    {
      "inputs": [],
      "name": "symbol",
      "outputs": [
        {
          "internalType": "string",
          "name": "",
          "type": "string"
        }
      ],
      "stateMutability": "view",
      "type": "function",
      "constant": true
    },
    {
      "inputs": [],
      "name": "totalSupply",
      "outputs": [
        {
          "internalType": "uint256",
          "name": "",
          "type": "uint256"
        }
      ],
      "stateMutability": "view",
      "type": "function",
      "constant": true
    },
    {
      "inputs": [
        {
          "internalType": "address",
          "name": "to",
          "type": "address"
        },
        {
          "internalType": "uint256",
          "name": "amount",
          "type": "uint256"
        }
      ],
      "name": "transfer",
      "outputs": [
        {
          "internalType": "bool",
          "name": "",
          "type": "bool"
        }
      ],
      "stateMutability": "nonpayable",
      "type": "function"
    },
    {
      "inputs": [
        {
          "internalType": "address",
          "name": "from",
          "type": "address"
        },
        {
          "internalType": "address",
          "name": "to",
          "type": "address"
        },
        {
          "internalType": "uint256",
          "name": "amount",
          "type": "uint256"
        }
      ],
      "name": "transferFrom",
      "outputs": [
        {
          "internalType": "bool",
          "name": "",
          "type": "bool"
        }
      ],
      "stateMutability": "nonpayable",
      "type": "function"
    },
    {
      "inputs": [
        {
          "internalType": "address",
          "name": "_sender",
          "type": "address"
        },
        {
          "internalType": "uint256",
          "name": "_amount",
          "type": "uint256"
        }
      ],
      "name": "get_susdc_balance_subtract",
      "outputs": [
        {
          "internalType": "bool",
          "name": "",
          "type": "bool"
        }
      ],
      "stateMutability": "nonpayable",
      "type": "function"
    },
    {
      "inputs": [
        {
          "internalType": "uint256",
          "name": "_amount",
          "type": "uint256"
        }
      ],
      "name": "susdc_mint",
      "outputs": [
        {
          "internalType": "bool",
          "name": "",
          "type": "bool"
        }
      ],
      "stateMutability": "nonpayable",
      "type": "function"
    },
    {
      "inputs": [
        {
          "internalType": "address",
          "name": "_sender",
          "type": "address"
        },
        {
          "internalType": "uint256",
          "name": "_amount",
          "type": "uint256"
        }
      ],
      "name": "external_susdc_mint",
      "outputs": [],
      "stateMutability": "nonpayable",
      "type": "function"
    },
    {
      "inputs": [
        {
          "internalType": "address",
          "name": "_sender",
          "type": "address"
        },
        {
          "internalType": "uint256",
          "name": "_amount",
          "type": "uint256"
        }
      ],
      "name": "susdc_burn",
      "outputs": [],
      "stateMutability": "nonpayable",
      "type": "function"
    }
  ],
  "bytecode": "0x60806040523480156200001157600080fd5b506040518060400160405280600581526020017f53555344430000000000000000000000000000000000000000000000000000008152506040518060400160405280600581526020017f5355534443000000000000000000000000000000000000000000000000000000815250816003908051906020019062000096929190620000b8565b508060049080519060200190620000af929190620000b8565b505050620001cd565b828054620000c69062000168565b90600052602060002090601f016020900481019282620000ea576000855562000136565b82601f106200010557805160ff191683800117855562000136565b8280016001018555821562000136579182015b828111156200013557825182559160200191906001019062000118565b5b50905062000145919062000149565b5090565b5b80821115620001645760008160009055506001016200014a565b5090565b600060028204905060018216806200018157607f821691505b602082108114156200019857620001976200019e565b5b50919050565b7f4e487b7100000000000000000000000000000000000000000000000000000000600052602260045260246000fd5b611bd580620001dd6000396000f3fe608060405234801561001057600080fd5b50600436106100f55760003560e01c8063540e78f911610097578063a9059cbb11610066578063a9059cbb146102c2578063b4e809e1146102f2578063dd62ed3e1461030e578063ed27ab8e1461033e576100f5565b8063540e78f91461021457806370a082311461024457806395d89b4114610274578063a457c2d714610292576100f5565b806323b872dd116100d357806323b872dd14610166578063313ce56714610196578063365ce3a0146101b457806339509351146101e4576100f5565b806306fdde03146100fa578063095ea7b31461011857806318160ddd14610148575b600080fd5b61010261035a565b60405161010f919061132c565b60405180910390f35b610132600480360381019061012d91906110e0565b6103ec565b60405161013f9190611311565b60405180910390f35b61015061040f565b60405161015d919061148e565b60405180910390f35b610180600480360381019061017b919061108d565b610419565b60405161018d9190611311565b60405180910390f35b61019e610448565b6040516101ab91906114e0565b60405180910390f35b6101ce60048036038101906101c99190611120565b610451565b6040516101db9190611311565b60405180910390f35b6101fe60048036038101906101f991906110e0565b610487565b60405161020b9190611311565b60405180910390f35b61022e600480360381019061022991906110e0565b6104be565b60405161023b9190611311565b60405180910390f35b61025e60048036038101906102599190611020565b61055a565b60405161026b919061148e565b60405180910390f35b61027c6105a2565b604051610289919061132c565b60405180910390f35b6102ac60048036038101906102a791906110e0565b610634565b6040516102b99190611311565b60405180910390f35b6102dc60048036038101906102d791906110e0565b6106ab565b6040516102e99190611311565b60405180910390f35b61030c600480360381019061030791906110e0565b6106ce565b005b6103286004803603810190610323919061104d565b61071f565b604051610335919061148e565b60405180910390f35b610358600480360381019061035391906110e0565b6107a6565b005b606060038054610369906117f4565b80601f0160208091040260200160405190810160405280929190818152602001828054610395906117f4565b80156103e25780601f106103b7576101008083540402835291602001916103e2565b820191906000526020600020905b8154815290600101906020018083116103c557829003601f168201915b5050505050905090565b6000806103f76107d5565b90506104048185856107dd565b600191505092915050565b6000600254905090565b6000806104246107d5565b90506104318582856109a8565b61043c858585610a34565b60019150509392505050565b60006012905090565b600061047e3361045f610448565b60ff16600a61046e91906115c0565b8461047991906116de565b610cb5565b60019050919050565b6000806104926107d5565b90506104b38185856104a4858961071f565b6104ae9190611517565b6107dd565b600191505092915050565b6000806104c9610448565b60ff16600a6104d891906115c0565b836104e391906116de565b90506000816104f18661055a565b101590508473ffffffffffffffffffffffffffffffffffffffff167f1991abab887e33a89e3c0ebfd976c982eb02e88573bc9760ff21575645e4f3d66105368761055a565b8484604051610547939291906114a9565b60405180910390a2809250505092915050565b60008060008373ffffffffffffffffffffffffffffffffffffffff1673ffffffffffffffffffffffffffffffffffffffff168152602001908152602001600020549050919050565b6060600480546105b1906117f4565b80601f01602080910402602001604051908101604052809291908181526020018280546105dd906117f4565b801561062a5780601f106105ff5761010080835404028352916020019161062a565b820191906000526020600020905b81548152906001019060200180831161060d57829003601f168201915b5050505050905090565b60008061063f6107d5565b9050600061064d828661071f565b905083811015610692576040517f08c379a00000000000000000000000000000000000000000000000000000000081526004016106899061144e565b60405180910390fd5b61069f82868684036107dd565b60019250505092915050565b6000806106b66107d5565b90506106c3818585610a34565b600191505092915050565b60006106d8610448565b60ff16600a6106e791906115c0565b826106f291906116de565b90506000816107008561055a565b61070a9190611738565b1061071a576107198382610e15565b5b505050565b6000600160008473ffffffffffffffffffffffffffffffffffffffff1673ffffffffffffffffffffffffffffffffffffffff16815260200190815260200160002060008373ffffffffffffffffffffffffffffffffffffffff1673ffffffffffffffffffffffffffffffffffffffff16815260200190815260200160002054905092915050565b6107d1826107b2610448565b60ff16600a6107c191906115c0565b836107cc91906116de565b610cb5565b5050565b600033905090565b600073ffffffffffffffffffffffffffffffffffffffff168373ffffffffffffffffffffffffffffffffffffffff16141561084d576040517f08c379a00000000000000000000000000000000000000000000000000000000081526004016108449061142e565b60405180910390fd5b600073ffffffffffffffffffffffffffffffffffffffff168273ffffffffffffffffffffffffffffffffffffffff1614156108bd576040517f08c379a00000000000000000000000000000000000000000000000000000000081526004016108b49061138e565b60405180910390fd5b80600160008573ffffffffffffffffffffffffffffffffffffffff1673ffffffffffffffffffffffffffffffffffffffff16815260200190815260200160002060008473ffffffffffffffffffffffffffffffffffffffff1673ffffffffffffffffffffffffffffffffffffffff168152602001908152602001600020819055508173ffffffffffffffffffffffffffffffffffffffff168373ffffffffffffffffffffffffffffffffffffffff167f8c5be1e5ebec7d5bd14f71427d1e84f3dd0314c0f7b2291e5b200ac8c7c3b9258360405161099b919061148e565b60405180910390a3505050565b60006109b4848461071f565b90507fffffffffffffffffffffffffffffffffffffffffffffffffffffffffffffffff8114610a2e5781811015610a20576040517f08c379a0000000000000000000000000000000000000000000000000000000008152600401610a17906113ae565b60405180910390fd5b610a2d84848484036107dd565b5b50505050565b600073ffffffffffffffffffffffffffffffffffffffff168373ffffffffffffffffffffffffffffffffffffffff161415610aa4576040517f08c379a0000000000000000000000000000000000000000000000000000000008152600401610a9b9061140e565b60405180910390fd5b600073ffffffffffffffffffffffffffffffffffffffff168273ffffffffffffffffffffffffffffffffffffffff161415610b14576040517f08c379a0000000000000000000000000000000000000000000000000000000008152600401610b0b9061134e565b60405180910390fd5b610b1f838383610fec565b60008060008573ffffffffffffffffffffffffffffffffffffffff1673ffffffffffffffffffffffffffffffffffffffff16815260200190815260200160002054905081811015610ba5576040517f08c379a0000000000000000000000000000000000000000000000000000000008152600401610b9c906113ce565b60405180910390fd5b8181036000808673ffffffffffffffffffffffffffffffffffffffff1673ffffffffffffffffffffffffffffffffffffffff16815260200190815260200160002081905550816000808573ffffffffffffffffffffffffffffffffffffffff1673ffffffffffffffffffffffffffffffffffffffff1681526020019081526020016000206000828254610c389190611517565b925050819055508273ffffffffffffffffffffffffffffffffffffffff168473ffffffffffffffffffffffffffffffffffffffff167fddf252ad1be2c89b69c2b068fc378daa952ba7f163c4a11628f55a4df523b3ef84604051610c9c919061148e565b60405180910390a3610caf848484610ff1565b50505050565b600073ffffffffffffffffffffffffffffffffffffffff168273ffffffffffffffffffffffffffffffffffffffff161415610d25576040517f08c379a0000000000000000000000000000000000000000000000000000000008152600401610d1c9061146e565b60405180910390fd5b610d3160008383610fec565b8060026000828254610d439190611517565b92505081905550806000808473ffffffffffffffffffffffffffffffffffffffff1673ffffffffffffffffffffffffffffffffffffffff1681526020019081526020016000206000828254610d989190611517565b925050819055508173ffffffffffffffffffffffffffffffffffffffff16600073ffffffffffffffffffffffffffffffffffffffff167fddf252ad1be2c89b69c2b068fc378daa952ba7f163c4a11628f55a4df523b3ef83604051610dfd919061148e565b60405180910390a3610e1160008383610ff1565b5050565b600073ffffffffffffffffffffffffffffffffffffffff168273ffffffffffffffffffffffffffffffffffffffff161415610e85576040517f08c379a0000000000000000000000000000000000000000000000000000000008152600401610e7c906113ee565b60405180910390fd5b610e9182600083610fec565b60008060008473ffffffffffffffffffffffffffffffffffffffff1673ffffffffffffffffffffffffffffffffffffffff16815260200190815260200160002054905081811015610f17576040517f08c379a0000000000000000000000000000000000000000000000000000000008152600401610f0e9061136e565b60405180910390fd5b8181036000808573ffffffffffffffffffffffffffffffffffffffff1673ffffffffffffffffffffffffffffffffffffffff168152602001908152602001600020819055508160026000828254610f6e9190611738565b92505081905550600073ffffffffffffffffffffffffffffffffffffffff168373ffffffffffffffffffffffffffffffffffffffff167fddf252ad1be2c89b69c2b068fc378daa952ba7f163c4a11628f55a4df523b3ef84604051610fd3919061148e565b60405180910390a3610fe783600084610ff1565b505050565b505050565b505050565b60008135905061100581611b71565b92915050565b60008135905061101a81611b88565b92915050565b60006020828403121561103657611035611884565b5b600061104484828501610ff6565b91505092915050565b6000806040838503121561106457611063611884565b5b600061107285828601610ff6565b925050602061108385828601610ff6565b9150509250929050565b6000806000606084860312156110a6576110a5611884565b5b60006110b486828701610ff6565b93505060206110c586828701610ff6565b92505060406110d68682870161100b565b9150509250925092565b600080604083850312156110f7576110f6611884565b5b600061110585828601610ff6565b92505060206111168582860161100b565b9150509250929050565b60006020828403121561113657611135611884565b5b60006111448482850161100b565b91505092915050565b6111568161177e565b82525050565b6000611167826114fb565b6111718185611506565b93506111818185602086016117c1565b61118a81611889565b840191505092915050565b60006111a2602383611506565b91506111ad826118a7565b604082019050919050565b60006111c5602283611506565b91506111d0826118f6565b604082019050919050565b60006111e8602283611506565b91506111f382611945565b604082019050919050565b600061120b601d83611506565b915061121682611994565b602082019050919050565b600061122e602683611506565b9150611239826119bd565b604082019050919050565b6000611251602183611506565b915061125c82611a0c565b604082019050919050565b6000611274602583611506565b915061127f82611a5b565b604082019050919050565b6000611297602483611506565b91506112a282611aaa565b604082019050919050565b60006112ba602583611506565b91506112c582611af9565b604082019050919050565b60006112dd601f83611506565b91506112e882611b48565b602082019050919050565b6112fc816117aa565b82525050565b61130b816117b4565b82525050565b6000602082019050611326600083018461114d565b92915050565b60006020820190508181036000830152611346818461115c565b905092915050565b6000602082019050818103600083015261136781611195565b9050919050565b60006020820190508181036000830152611387816111b8565b9050919050565b600060208201905081810360008301526113a7816111db565b9050919050565b600060208201905081810360008301526113c7816111fe565b9050919050565b600060208201905081810360008301526113e781611221565b9050919050565b6000602082019050818103600083015261140781611244565b9050919050565b6000602082019050818103600083015261142781611267565b9050919050565b600060208201905081810360008301526114478161128a565b9050919050565b60006020820190508181036000830152611467816112ad565b9050919050565b60006020820190508181036000830152611487816112d0565b9050919050565b60006020820190506114a360008301846112f3565b92915050565b60006060820190506114be60008301866112f3565b6114cb60208301856112f3565b6114d8604083018461114d565b949350505050565b60006020820190506114f56000830184611302565b92915050565b600081519050919050565b600082825260208201905092915050565b6000611522826117aa565b915061152d836117aa565b9250827fffffffffffffffffffffffffffffffffffffffffffffffffffffffffffffffff0382111561156257611561611826565b5b828201905092915050565b6000808291508390505b60018511156115b75780860481111561159357611592611826565b5b60018516156115a25780820291505b80810290506115b08561189a565b9450611577565b94509492505050565b60006115cb826117aa565b91506115d6836117aa565b92506116037fffffffffffffffffffffffffffffffffffffffffffffffffffffffffffffffff848461160b565b905092915050565b60008261161b57600190506116d7565b8161162957600090506116d7565b816001811461163f576002811461164957611678565b60019150506116d7565b60ff84111561165b5761165a611826565b5b8360020a91508482111561167257611671611826565b5b506116d7565b5060208310610133831016604e8410600b84101617156116ad5782820a9050838111156116a8576116a7611826565b5b6116d7565b6116ba848484600161156d565b925090508184048111156116d1576116d0611826565b5b81810290505b9392505050565b60006116e9826117aa565b91506116f4836117aa565b9250817fffffffffffffffffffffffffffffffffffffffffffffffffffffffffffffffff048311821515161561172d5761172c611826565b5b828202905092915050565b6000611743826117aa565b915061174e836117aa565b92508282101561176157611760611826565b5b828203905092915050565b60006117778261178a565b9050919050565b60008115159050919050565b600073ffffffffffffffffffffffffffffffffffffffff82169050919050565b6000819050919050565b600060ff82169050919050565b60005b838110156117df5780820151818401526020810190506117c4565b838111156117ee576000848401525b50505050565b6000600282049050600182168061180c57607f821691505b602082108114156118205761181f611855565b5b50919050565b7f4e487b7100000000000000000000000000000000000000000000000000000000600052601160045260246000fd5b7f4e487b7100000000000000000000000000000000000000000000000000000000600052602260045260246000fd5b600080fd5b6000601f19601f8301169050919050565b60008160011c9050919050565b7f45524332303a207472616e7366657220746f20746865207a65726f206164647260008201527f6573730000000000000000000000000000000000000000000000000000000000602082015250565b7f45524332303a206275726e20616d6f756e7420657863656564732062616c616e60008201527f6365000000000000000000000000000000000000000000000000000000000000602082015250565b7f45524332303a20617070726f766520746f20746865207a65726f20616464726560008201527f7373000000000000000000000000000000000000000000000000000000000000602082015250565b7f45524332303a20696e73756666696369656e7420616c6c6f77616e6365000000600082015250565b7f45524332303a207472616e7366657220616d6f756e742065786365656473206260008201527f616c616e63650000000000000000000000000000000000000000000000000000602082015250565b7f45524332303a206275726e2066726f6d20746865207a65726f2061646472657360008201527f7300000000000000000000000000000000000000000000000000000000000000602082015250565b7f45524332303a207472616e736665722066726f6d20746865207a65726f20616460008201527f6472657373000000000000000000000000000000000000000000000000000000602082015250565b7f45524332303a20617070726f76652066726f6d20746865207a65726f2061646460008201527f7265737300000000000000000000000000000000000000000000000000000000602082015250565b7f45524332303a2064656372656173656420616c6c6f77616e63652062656c6f7760008201527f207a65726f000000000000000000000000000000000000000000000000000000602082015250565b7f45524332303a206d696e7420746f20746865207a65726f206164647265737300600082015250565b611b7a8161176c565b8114611b8557600080fd5b50565b611b91816117aa565b8114611b9c57600080fd5b5056fea2646970667358221220044e715a0f1c7b86f931ead9eebeaa199c277d0464384fc80c1e1ee44c798e2164736f6c63430008050033",
  "immutableReferences": {},
  "source": "//pragma solidity >=0.6.0 <0.9.0;\npragma solidity ^0.8.5;\n\nimport '@openzeppelin/contracts/token/ERC20/ERC20.sol';\n\ncontract SUSDC is ERC20 {\n\n\tconstructor() public ERC20(\"SUSDC\", \"SUSDC\") {\n\t}\n\n\tevent BalanceCheck(address indexed account, uint256 balance, uint256 subtractedValue, bool isBalanceEnough);\n\n\tfunction get_susdc_balance_subtract(address _sender, uint256 _amount) external returns(bool){\n\t\t// uint subtract_value = _amount * 10**uint(decimals());\n\t\t// return balanceOf(_sender) - subtract_value >= 0;\n\n\t\tuint subtract_value = _amount * 10**uint(decimals());\n    bool isBalanceEnough = balanceOf(_sender) >= subtract_value;\n    emit BalanceCheck(_sender, balanceOf(_sender), subtract_value, isBalanceEnough);\n    return isBalanceEnough;\n\t}\n\n\tfunction susdc_mint(uint256 _amount) public returns(bool) {\n\t\t_mint(msg.sender, _amount * 10**uint(decimals()));\n\t\treturn true;\n\t}\n\n\tfunction external_susdc_mint(address _sender, uint256 _amount) external {\n\t\t_mint(_sender, _amount * 10**uint(decimals()));\n\t}\n\n\tfunction susdc_burn(address _sender, uint256 _amount) external {\n\t\tuint subtract_value = _amount * 10**uint(decimals());\n\t\tif (balanceOf(_sender) - subtract_value >= 0){\n\t\t\t_burn(_sender, subtract_value);\n\t\t}\n\t}\n}\n\n",
  "sourcePath": "/Users/chrismanueltrajano/Documents/Github/clettr/clettr-backend/blockchain/contracts/SUSDC.sol",
  "compiler": {
    "name": "solc",
    "version": "0.8.5+commit.a4f2e591.Emscripten.clang"
  },
  "schemaVersion": "3.4.16",
  "updatedAt": "2024-01-21T13:17:13.960Z",
  "networkType": "ethereum",
  "devdoc": {
    "kind": "dev",
    "methods": {
      "allowance(address,address)": {
        "details": "See {IERC20-allowance}."
      },
      "approve(address,uint256)": {
        "details": "See {IERC20-approve}. NOTE: If `amount` is the maximum `uint256`, the allowance is not updated on `transferFrom`. This is semantically equivalent to an infinite approval. Requirements: - `spender` cannot be the zero address."
      },
      "balanceOf(address)": {
        "details": "See {IERC20-balanceOf}."
      },
      "decimals()": {
        "details": "Returns the number of decimals used to get its user representation. For example, if `decimals` equals `2`, a balance of `505` tokens should be displayed to a user as `5.05` (`505 / 10 ** 2`). Tokens usually opt for a value of 18, imitating the relationship between Ether and Wei. This is the value {ERC20} uses, unless this function is overridden; NOTE: This information is only used for _display_ purposes: it in no way affects any of the arithmetic of the contract, including {IERC20-balanceOf} and {IERC20-transfer}."
      },
      "decreaseAllowance(address,uint256)": {
        "details": "Atomically decreases the allowance granted to `spender` by the caller. This is an alternative to {approve} that can be used as a mitigation for problems described in {IERC20-approve}. Emits an {Approval} event indicating the updated allowance. Requirements: - `spender` cannot be the zero address. - `spender` must have allowance for the caller of at least `subtractedValue`."
      },
      "increaseAllowance(address,uint256)": {
        "details": "Atomically increases the allowance granted to `spender` by the caller. This is an alternative to {approve} that can be used as a mitigation for problems described in {IERC20-approve}. Emits an {Approval} event indicating the updated allowance. Requirements: - `spender` cannot be the zero address."
      },
      "name()": {
        "details": "Returns the name of the token."
      },
      "symbol()": {
        "details": "Returns the symbol of the token, usually a shorter version of the name."
      },
      "totalSupply()": {
        "details": "See {IERC20-totalSupply}."
      },
      "transfer(address,uint256)": {
        "details": "See {IERC20-transfer}. Requirements: - `to` cannot be the zero address. - the caller must have a balance of at least `amount`."
      },
      "transferFrom(address,address,uint256)": {
        "details": "See {IERC20-transferFrom}. Emits an {Approval} event indicating the updated allowance. This is not required by the EIP. See the note at the beginning of {ERC20}. NOTE: Does not update the allowance if the current allowance is the maximum `uint256`. Requirements: - `from` and `to` cannot be the zero address. - `from` must have a balance of at least `amount`. - the caller must have allowance for ``from``'s tokens of at least `amount`."
      }
    },
    "version": 1
  },
  "userdoc": {
    "kind": "user",
    "methods": {},
    "version": 1
  }
}